:100000000C9439010C946A010C946A010C946A01F5
:100010000C946A010C946A010C946A010C946A01B4
:100020000C946A010C946A010C946A010C946A01A4
:100030000C946A010C946A010C946A010C946A0194
:100040000C946A010C946A010C946A010C946A0184
:100050000C946A010C946A010C946A010C941A05C0
:100060000C946A010C94E4040C94BA040C946A0194
:100070000C946A010C946A010C946A010C946A0154
:100080000C946A010C946A010C946A010C946A0144
:100090000C946A010C946A010C946A010C946A0134
:1000A0000C946A010C946A010C946A010C946A0124
:1000B0000C946A010C946A010C946A010C946A0114
:1000C0000C946A010C946A010C946A010C946A0104
:1000D0000C946A010C946A010C946A010C946A01F4
:1000E0000C946A010C94F2020C94BD010C94D4029D
:1000F0000C94A9010C94DE020C94EC020C94B8044C
:100100000C94C5020C94F6020C946D010C94DA0266
:100110000C946C010C9464050C94FF020C94030283
:100120000C94BF020C94E8020C9400030C949A0106
:100130000C94D1020C94C9020C94FA020C94CB01D9
:100140000C9450020C94E4020C94CD020C94040321
:1001500000002100240027002A002D003000330079
:1001600001010000040107010A010000220025002E
:1001700028002B002E003100340002010000050190
:1001800008010B01000020002300260029002C009C
:100190002F003200000100000301060109010505DE
:1001A0000505070508080808020202020A0A0808ED
:1001B000040404040101010101010101030303031B
:1001C00003030303040707070C0C0C0C0C0C0C0CAA
:1001D0000202020206060606060606060B0B0B0BBB
:1001E0000B0B0B0B010210202008081020401020E0
:1001F00040800201020108040201010204081020EB
:1002000040808040201008040201800402018040E8
:100210002010080402010804020101020408102051
:100220004080010204081020408000000A0B0209EF
:100230000C0D0E0807030401000000000000000080
:1002400000000000000000000000000000000000AE
:10025000000000000000121110000000000000006B
:10026000000000000000000000000000000000008E
:10027000640511241FBECFEFD1E2DEBFCDBF00E089
:100280000CBF12E0A0E0B2E0EAEBF5E100E00BBF4A
:1002900002C007900D92AC33B107D9F724E0ACE36C
:1002A000B2E001C01D92A437B207E1F711E0C9E343
:1002B000D1E000E006C021970109802FFE010E94D5
:1002C000AE09C833D10780E00807A9F70E941F06CE
:1002D0000C94DB0A0C9400000895AF92BF92CF9269
:1002E000DF92EF92FF920F931F93CF93DF936C01F6
:1002F0007B018B01040F151FEB015E01AE18BF08D7
:10030000C017D10759F06991D601ED91FC91019088
:10031000F081E02DC6011995892B79F7C501DF9190
:10032000CF911F910F91FF90EF90DF90CF90BF90F2
:10033000AF900895FC01538D448D252F30E0842F1C
:1003400090E0821B930B541710F0CF9608950197FD
:100350000895FC01918D828D981761F0A28DAE0FEA
:10036000BF2FB11D5D968C91928D9F5F9F73928F71
:1003700090E008958FEF9FEF0895FC01918D828D9D
:10038000981731F0828DE80FF11D858D90E008956A
:100390008FEF9FEF0895FC01918D228D892F90E0C2
:1003A000805C9F4F821B91098F739927089585E583
:1003B00093E00E94CB0121E0892B09F420E0822FF9
:1003C0000895FC01A48DA80FB92FB11DA35ABF4FEA
:1003D0002C91848D90E001968F739927848FA68944
:1003E000B7892C93A089B1898C91837080648C9398
:1003F000938D848D981306C00288F389E02D808147
:100400008F7D80830895EF92FF920F931F93CF9378
:10041000DF93EC0181E0888F9B8D8C8D98131AC03F
:10042000E889F989808185FF15C09FB7F894EE8926
:10043000FF896083E889F989808183708064808383
:100440009FBF81E090E0DF91CF911F910F91FF90CE
:10045000EF900895F62E0B8D10E00F5F1F4F0F7376
:100460001127E02E8C8D8E110CC00FB607FCFACF31
:10047000E889F989808185FFF5CFCE010E94E101ED
:10048000F1CFEB8DEC0FFD2FF11DE35AFF4FF08202
:100490009FB7F8940B8FEA89FB8980818062CFCF68
:1004A000CF93DF93EC01888D8823B9F0AA89BB89AB
:1004B000E889F9898C9185FD03C0808186FD0DC096
:1004C0000FB607FCF7CF8C9185FFF2CF808185FFB7
:1004D000EDCFCE010E94E101E9CFDF91CF910895E8
:1004E00080E090E0892B29F00E94D70181110E94C1
:1004F000000080E090E0892B49F080E090E0892BBB
:1005000029F00E94000081110E94000080E090E02C
:10051000892B49F080E090E0892B29F00E940000AF
:1005200081110E94000080E090E0892B49F080E07A
:1005300090E0892B29F00E94000081110C940000AA
:1005400008958150823108F05AC0E82FF0E08827E2
:10055000E355FD4F8F4F0C94AE09CD02D102BF027F
:10056000C502C902FF02D402DA02DE02E402E80296
:10057000EC02F202F602FF02FA0200030403809189
:1005800080008F77809380000895809180008F7D18
:10059000F9CF80918000877FF5CF84B58F7784BDB8
:1005A000089584B58F7DFBCF8091B0008F778093C5
:1005B000B00008958091B0008F7DF9CF80919000B8
:1005C0008F77809390000895809190008F7DF9CF70
:1005D00080919000877FF5CF8091A0008F778093E6
:1005E000A00008958091A0008F7DF9CF8091A00098
:1005F000877FF5CF809120018F7780932001089528
:10060000809120018F7DF9CF80912001877FF5CFE8
:10061000CF93DF93282F30E0F901E65DFD4F849101
:10062000F901EC51FE4FD491F901E256FE4FC4910D
:10063000CC23A1F081110E94A102EC2FF0E0EE0F7B
:10064000FF1FEC57FE4FA591B491EC91ED2381E093
:1006500090E009F480E0DF91CF91089580E090E090
:10066000FACF1F93CF93DF93282F30E0F901E65D97
:10067000FD4F8491F901EC51FE4FD491F901E256FE
:10068000FE4FC491CC23A9F0162F81110E94A10224
:10069000EC2FF0E0EE0FFF1FE659FE4FA591B4914D
:1006A0008FB7F894EC91111108C0D095DE23DC933C
:1006B0008FBFDF91CF911F910895DE2BF8CFCF939D
:1006C000DF9390E0FC01EC51FE4F249182569E4F47
:1006D000FC0184918823D1F090E0880F991FFC01E0
:1006E000E05BFE4FA591B491FC01E659FE4FC59128
:1006F000D49161110EC09FB7F8948C91E22FE095D0
:100700008E238C932881E223E8839FBFDF91CF91D2
:1007100008958FB7F894EC91E22BEC938FBFF6CF4E
:100720003FB7F8948091410290914202A091430218
:10073000B091440226B5A89B05C02F3F19F0019641
:10074000A11DB11D3FBFBA2FA92F982F8827BC012B
:10075000CD01620F711D811D911D42E0660F771F53
:10076000881F991F4A95D1F708958F929F92AF9253
:10077000BF92CF92DF92EF92FF926B017C010E94B9
:1007800090034B015C01C114D104E104F104B9F000
:100790000E949003681979098A099B09683E734091
:1007A0008105910580F321E0C21AD108E108F10822
:1007B00088EE880E83E0981EA11CB11CE4CFFF9048
:1007C000EF90DF90CF90BF90AF909F908F90089563
:1007D000FC018AE092E09183808313821282158269
:1007E000148284E090E09783868317861686118AA8
:1007F000108A128A138612861586148681E090E08C
:10080000918780870895CF92DF92EF92FF920F93A6
:100810001F93CF93DF931F921F92CDB7DEB76983EB
:100820004A83880F991F00916E0410916F04000F86
:10083000111FE8E1F4E09F012851344020173107EF
:1008400014F41192F8CF2981FC01E85EFB4F21835B
:100850008A81808360E080916C040E9431031016CD
:10086000110604F501501109F801E85EFB4FE08024
:10087000D0906A04C090680488E0F82E6E2D661F40
:100880006627661F8C2D0E943103EE0C61E08D2DD2
:100890000E94310360E08D2D0E943103FA94F11023
:1008A000EDCFDDCF61E080916C040F900F90DF9170
:1008B000CF911F910F91FF90EF90DF90CF900C940C
:1008C000310397FD2CC0E0916E04F0916F048E17F8
:1008D0009F072CF56830710510F548305105F8F484
:1008E000E0E8F0E0DF0102C0B595A7954A95E2F790
:1008F000AD01FC0133E0EE0FFF1F3A95E1F7E60F83
:10090000F71FE85EFB4F3089222331F0432B408BE9
:100910006F5F40890C94030440954323F8CF0895FA
:10092000EF92FF920F931F93CF937C018C0183E092
:10093000000F111F8A95E1F7085D1B4FC1E0F80118
:1009400011928F0140E06C2FC7010E940304CF5F1A
:10095000C930A9F7CF911F910F91FF90EF900895A3
:1009600042E050E060E272E085E593E00C946D01B6
:100970000C94520A1F920F920FB60F9211240BB6CD
:100980000F922F933F934F935F936F937F938F9328
:100990009F93AF93BF93EF93FF9385E593E00E94FE
:1009A000E101FF91EF91BF91AF919F918F917F9165
:1009B0006F915F914F913F912F910F900BBE0F90D0
:1009C0000FBE0F901F9018951F920F920FB60F92A7
:1009D00011240BB60F922F938F939F93EF93FF9356
:1009E000E0916503F09166038081E0916B03F091E3
:1009F0006C0382FD1DC0908180916E038F5F8F73A9
:100A000020916F03821741F0E0916E03F0E0EB5A02
:100A1000FC4F958F80936E03FF91EF919F918F9183
:100A20002F910F900BBE0F900FBE0F901F90189537
:100A30008081F2CF1F920F920FB60F9211242F9345
:100A40003F938F939F93AF93BF9380913D0290917B
:100A50003E02A0913F02B091400230913C0223E05F
:100A6000230F2D3758F50196A11DB11D20933C028F
:100A700080933D0290933E02A0933F02B0934002C8
:100A80008091410290914202A0914302B0914402B0
:100A90000196A11DB11D8093410290934202A09343
:100AA0004302B0934402BF91AF919F918F913F91C8
:100AB0002F910F900FBE0F901F90189526E8230FCF
:100AC0000296A11DB11DD2CFCF93DF931092580390
:100AD0001092570388EE93E0A0E0B0E080935903B2
:100AE00090935A03A0935B03B0935C0382E192E07E
:100AF000909356038093550385EC90E090936203A6
:100B00008093610384EC90E090936403809363038B
:100B100080EC90E0909366038093650381EC90E015
:100B2000909368038093670382EC90E090936A034C
:100B30008093690386EC90E090936C0380936B0341
:100B400010926E0310926F03109270031092710353
:100B5000CCE0D0E0D0936904C09368048BE090E0CF
:100B600090936B0480936A048AE090E090936D0404
:100B700080936C0482E090E090936F0480936E0405
:100B800061E08CE00E945F0361E080916A040E9452
:100B90005F0361E080916C040E945F0361E08091DB
:100BA0006C040E943103D0936904C0936804E8E2A6
:100BB000F4E0119284E0E836F807D9F7D0E0C0E01D
:100BC00080916E0490916F04C817D90774F540E0C6
:100BD0006FE0CE010E94030480916E0490916F0437
:100BE000C817D9072CF447E06BE0CE010E9403043C
:100BF00040E069E0CE010E94030480916E04909170
:100C00006F04C817D9071CF4CE010E94900480918C
:100C10006E0490916F04C817D9072CF440E06CE083
:100C2000CE010E9403042196CBCF85E094E00E9480
:100C3000E80382EF93E0DF91CF910C94E803CF9328
:100C4000DF93CDB7DEB7CC54D1090FB6F894DEBF31
:100C50000FBECDBF789484B5826084BD84B58160B9
:100C600084BD85B5826085BD85B5816085BD809177
:100C70006E00816080936E001092810080918100EF
:100C800082608093810080918100816080938100E7
:100C9000809180008160809380008091B1008460A9
:100CA0008093B1008091B00081608093B00080910A
:100CB0009100826080939100809191008160809387
:100CC0009100809190008160809390008091A100BC
:100CD00082608093A1008091A10081608093A10037
:100CE0008091A00081608093A000809121018260AA
:100CF0008093210180912101816080932101809165
:100D0000200181608093200180917A00846080932B
:100D10007A0080917A00826080937A0080917A00D4
:100D2000816080937A0080917A00806880937A0055
:100D30001092C10060E087E00E945F0360E086E0FF
:100D40000E945F0360E085E00E945F0360E084E052
:100D50000E945F0361E083E00E945F03E09165030E
:100D6000F091660382E08083E0916103F091620379
:100D70001082E0916303F09164038FEC8083109202
:100D80006D03E0916903F0916A0386E08083E0914E
:100D90006703F0916803808180618083E09167033D
:100DA000F0916803808188608083E0916703F0910F
:100DB0006803808180688083E0916703F091680315
:100DC00080818F7D808380916E0490916F041816CE
:100DD000190634F441E06CE090E080E00E940304E6
:100DE00080916E0490916F041816190634F448E04F
:100DF0006AE090E080E00E94030480916E0490918C
:100E00006F041816190624F490E080E00E94900404
:100E100080916E0490916F04029734F041E06CE091
:100E200081E090E00E94030480916E0490916F0431
:100E3000029734F048E06AE081E090E00E94030409
:100E400080916E0490916F04029724F081E090E00D
:100E50000E94900421E043E050E070E060E090E008
:100E600080E00E94610481E08093170483E090E0B9
:100E7000909308048093070410920A0410920904C6
:100E8000109214041092130482E090E090931004E6
:100E900080930F0410921204109211041092160401
:100EA0001092150490930E0480930D0485E094E055
:100EB000909346028093450282EF93E0909348021C
:100EC000809347026CEB72E080E090E00E94B503F3
:100ED0001E012AE3220E311C2E0187E2480E511C0E
:100EE0003E0194E1690E711C01E010E0DE011196F3
:100EF0006D0187E00E9408037C0190935403809366
:100F0000530386E00E9408034C01909352038093A0
:100F1000510385E00E9408035C0190935003809385
:100F20004F0384E00E94080390934E0380934D0387
:100F3000B1E0EB16F10409F020C161E083E00E940A
:100F40003103F0920C04E0920B04E0900D04F09059
:100F50000E0492E0E916F10409F08FC04EE050E073
:100F600063E272E085E593E00E946D010E94B004A7
:100F7000C1010E94E803C2010E94E803C3010E946C
:100F8000E80381E02D968FAF2D97FDAEECAE1FAE3E
:100F90001EAE2A961FAE1EAE2A9726961FAF0EAF24
:100FA000269728961FAE1EAE28972C961FAE1EAE13
:100FB0002C9789AF1AA709A71CA61BA61EAA1DAAB3
:100FC0001AAA19AA1CAA1BAA18AE1FAA8EA31F8AA6
:100FD0001E8A198E188E1BA21AA21F8E1E8E19A28F
:100FE00018A21DA21CA2809147029091480200976E
:100FF00039F0DC01ED91FC910280F381E02D19952F
:10100000309248022092470250924A02409249028E
:1010100070924C0260924B02C6010E94E803D0928B
:101020004E02C0924D0221E050E040E070E060E0EE
:1010300090E080E00E94610421E041E050E070E037
:1010400060E090E080E00E94610421E042E050E036
:1010500070E060E090E080E00E9461046CEB72E080
:1010600080E090E00E94B50380910D0490910E0401
:10107000019690930E0480930D0480910B0490913F
:101080000C048230910509F4F8C00CF09EC0019761
:1010900009F4D5C095E4A92E92E0B92EF12CE12CEB
:1010A000D5011296ED91FC918289882309F42DC116
:1010B00049E050E062E372E085E593E00E946D0153
:1010C0000E94B004D5011296ED91FC911397828194
:1010D000938193878287848195819587848786858C
:1010E0009785918B808B2D913D915D01D9011A9649
:1010F0008D919C911B97938382831C968D919C91DB
:101100001D979583848350968D919C9197878687B0
:10111000BFEFEB1AFB0A20E8E216F10409F6409152
:101120000704509108046091090470910A0421E0B9
:1011300080911304909114040E94610480910D0425
:1011400090910E04019709F0FBC040910F0450915B
:101150001004609111047091120420E08091150434
:10116000909116040E9461046CEB72E080E090E0C4
:101170000E94B5030E947002BCCE892859F061E03C
:1011800083E00E94310382E090E090930C0480930E
:101190000B04DBCEAB2859F061E083E00E94310301
:1011A000A3E0B0E0B0930C04A0930B04CECE892B47
:1011B00039F061E083E00E94310384E090E0E5CF04
:1011C00060E083E00E943103C0CE8330910509F4D2
:1011D0005EC0049709F05ECF8091070490910804E7
:1011E0009093100480930F042091090430910A0415
:1011F0003093120420931104019690930804809375
:101200000704209113043091140408970CF478C05B
:101210002115310509F070C01093140400931304D4
:10122000109216041092150487E090E09093100439
:1012300080930F0410920804109207042BCF809122
:10124000090490910A049093120480931104019769
:1012500090930A04809309048091070490910804F4
:101260009093100480930F048091130490911404C0
:1012700090931604809315040DCF809109049091EA
:101280000A0490931204809311040196E1CF809197
:101290000704909108049093100480930F04209108
:1012A000090430910A043093120420931104019729
:1012B0009093080480930704209113043091140440
:1012C00097FF1EC02115310509F4E4CE2130310508
:1012D000B9F410921404109213043093160420935E
:1012E00015041092100410920F0487E090E0909380
:1012F000080480930704CECE2130310509F4CACE0C
:101300003093160420931504C5CEF701EE0FFF1F8E
:10131000EB5BFD4F0190F081E02D828593859093EA
:101320004C0380934B038485958590934A03809367
:101330004903808991899093480380934703EFCEB6
:1013400040914B0350914C036091490370914A03C3
:1013500020E0809147039091480304CFEE0FFF1FD8
:10136000881F8BBF0790F691E02D19940F931F9360
:10137000CF93DF938230910510F482E090E0E0910A
:101380007204F091730430E020E0B0E0A0E0309708
:1013900099F42115310509F44AC0281B390B243072
:1013A0003105D8F58A819B816115710589F1FB01B1
:1013B00093838283FE0111C0408151810281138198
:1013C00048175907E0F04817590799F4109761F04A
:1013D00012960C93129713961C933296CF01DF91BD
:1013E000CF911F910F91089500937204109373048D
:1013F000F4CF2115310551F04217530738F0A901F8
:10140000DB019A01BD01DF01F801C1CFEF01F9CF86
:101410009093730480937204CDCFFE01E20FF31F0B
:10142000819391932250310939832883D7CF20911A
:10143000700430917104232B41F420910202309109
:1014400003023093710420937004209100023091C4
:1014500001022115310541F42DB73EB74091040238
:1014600050910502241B350BE0917004F09171043A
:10147000E217F307A0F42E1B3F0B2817390778F06B
:10148000AC014E5F5F4F2417350748F04E0F5F1FCA
:101490005093710440937004819391939FCFF0E037
:1014A000E0E09CCFCF93DF930097E9F0FC01329707
:1014B00013821282A0917204B0917304ED0130E0A6
:1014C00020E01097A1F420813181820F931F209199
:1014D0007004309171042817390709F061C0F09346
:1014E0007104E0937004DF91CF910895EA01CE1763
:1014F000DF07E8F54A815B819E0141155105B1F78F
:10150000E901FB83EA8349915991C40FD51FEC1778
:10151000FD0761F4808191810296840F951FE90196
:1015200099838883828193819B838A83F0E0E0E0C2
:1015300012968D919C9113970097B9F52D913C913E
:101540001197CD010296820F931F20917004309164
:1015500071042817390739F6309751F51092730442
:1015600010927204B0937104A0937004BCCFD38323
:10157000C28340815181840F951FC817D90761F438
:101580004E5F5F4F88819981480F591F5183408377
:101590008A819B81938382832115310509F0B0CF25
:1015A000F0937304E09372049ECFFD01DC01C0CF81
:0A15B00013821282D7CFF894FFCF08
:1015BA00000074048000000000006C01B804000000
:1015CA00000003026D019A015002CB01A901BD017D
:1015DA000D0A00437265616E646F20736563746FF0
:0C15EA0072005369206578697374650015
:00000001FF
