:100000000C94C5040C94F6040C94F6040C94F604B9
:100010000C94F6040C94F6040C94F6040C94F60478
:100020000C94F6040C94F6040C94F6040C94F60468
:100030000C94F6040C94F6040C94F6040C94F60458
:100040000C94F6040C94F6040C94F6040C94F60448
:100050000C94F6040C94F6040C94F6040C94FD0A2B
:100060000C94F6040C94C70A0C949D0A0C94F604A4
:100070000C94F6040C94F6040C94F6040C94F60418
:100080000C94F6040C94F6040C94F6040C94F60408
:100090000C94F6040C94F6040C94F6040C94F604F8
:1000A0000C94F6040C94F6040C94F6040C94F604E8
:1000B0000C94F6040C94F6040C94F6040C94F604D8
:1000C0000C94F6040C94F6040C94F6040C94F604C8
:1000D0000C94F6040C94F6040C94F6040C94F604B8
:1000E0000C94F6040C948E050C94DB050C948A0693
:1000F0000C945C060C948F060C9450060C94F80437
:100100000C9465060C9485060C944A060C945406CF
:100110000C9456050C9477060C948B060C945F0691
:100120000C948C0B0C9425050C9434050C946906E6
:100130000C946F060C947D060C9458060C9448059C
:100140000C9473060C94810600000000000000006F
:100150000000010101010000000101000001010097
:100160000001010001010100000101010001010085
:100170000001010000010100000101000001010077
:10018000000001010101000000000000000000006B
:10019000000000010100000000000001010000005B
:1001A000000001010100000000000001010000004A
:1001B000000000010100000000000001010000003B
:1001C0000001010101010100000000000000000029
:1001D0000000010101010000000101000001010017
:1001E000000000000001010000000000010100000B
:1001F00000000101000000000001010000000000FB
:1002000000010101010101000000000000000000E8
:1002100000000101010100000001010000010100D6
:1002200000000000000101000000000101010000C9
:1002300000000000000101000001010000010100B8
:1002400000000101010100000000000000000000AA
:100250000000000001010000000000010101000099
:100260000000010001010000000100000101000088
:100270000001010101010100000000000101000076
:10028000000000000101000000000000000000006C
:100290000001010101010100000101000000000056
:1002A0000001010101010000000000000001010047
:1002B0000000000000010100000101000001010038
:1002C000000001010101000000000000000000002A
:1002D0000000010101010000000101000001010016
:1002E0000001010000000000000101010101000007
:1002F00000010100000101000001010000010100F6
:1003000000000101010100000000000000000000E9
:1003100000010101010101000001010000010100D3
:1003200000000000010100000000000001010000C9
:1003300000000001010000000000000101000000B9
:1003400000000001010000000000000000000000AB
:100350000000010101010000000101000001010095
:100360000001010000010100000001010101000085
:100370000001010000010100000101000001010075
:100380000000010101010000000000000000000069
:100390000000010101010000000101000001010055
:1003A0000001010000010100000001010101010044
:1003B0000000000000010100000101000001010037
:1003C0000000010101010000000000000000000029
:1003D000000000000000000000000000000000001D
:1003E000000000000000000000000000000000000D
:1003F00000000000000000000000000000000000FD
:1004000000000000000000000000000101010100E8
:1004100000000001010101000000000101010100D4
:1004200000000101010101000000010101010101C1
:1004300000000000000000000000000000000000BC
:1004400000000000010100000101000001010000A6
:100450000101000001010000010100000101000094
:100460000101000001010000000000000101000086
:10047000000000000000000000000000000001017A
:100480000000000000000101000000000000010168
:100490000000010100000101000001010000010154
:1004A000000000000000010100000000000000004A
:1004B0000000000000000000000101010100000038
:1004C0000101000000000000010100000101000026
:1004D0000101010101000000010101010100000012
:1004E000000000000000000000000000000000000C
:1004F00000000000000001010000010100000000F8
:1005000000000101000001010000010101010000E3
:1005100000000101000000000000010100000000D7
:1005200000000000000000000000000001010000C9
:1005300001010000010100000101000001010000B3
:1005400001010000010100010100000001010000A3
:100550000000000001010000000000000000000099
:100560000000000000000001010101000000000186
:100570000101010000000001010101000000010172
:100580000000010100000101010101010000000063
:10059000000000000000000000000000000000005B
:1005A000000000000000000000000000000000004B
:1005B000000000000000000000000000000000003B
:1005C000000000000000000000000000000000002B
:1005D000000000000000000000000000000000001B
:1005E000000000000000000000000000000000000B
:1005F00000000000000000000000000101010100F7
:1006000000000001010101000000010100000001E3
:1006100001000001010101010100000000000000D3
:1006200001010101000000010100000101000001C1
:1006300001010101010000010101010100000000B0
:1006400001010000000000000000000000000000A8
:100650000000000001010000010100000101000094
:100660000101000001010100010101000001010080
:100670000000000000000000000101000001010076
:100680000001010000010100000101000000000064
:100690000001010000010100000101010100000052
:1006A0000000000000000000000000000000010148
:1006B0000000000000000101000001010000010134
:1006C0000101010101000001010000000000000023
:1006D0000000000101000001010000010100000113
:1006E0000100000101000000000000010100000104
:1006F00001000001010101000000000000000000F5
:1007000000000000000000000101000000000000E7
:1007100001010101010100000101000100010100CE
:1007200000010101010100000000000000010100C2
:1007300000010100000101000001010000010101B0
:1007400001010000000101010101000000000101A0
:100750000000000000000000000000000000000099
:100760000000010100010101000001010000010180
:100770000000010100000001010000010100000073
:100780000000000000000001010000010100000164
:100790000100000101000001010000000000000153
:1007A0000101010000000000010100000000000044
:1007B0000000000000000000000000000101000037
:1007C0000101000001010000010100000101000021
:1007D0000001010000010100000000000000000015
:1007E0000001010000010100000001010101000001
:1007F00000010100000000000001010001010000F3
:1008000000000000000000000000000000000000E8
:1008100000000000000000010101010000000101D2
:1008200000000101000001010000000101000001C1
:1008300001010101010000000000000001010101AF
:1008400000000000000101000000000101010101A1
:100850000100000101000001010000000101000091
:10086000000000000000000000002100240027001C
:100870002A002D00300033000101000004010701AF
:100880000A0100002200250028002B002E00310064
:10089000340002010000050108010B0100000A0BF1
:1008A00002090C0D0E0807030401000000000000FF
:1008B0000000000000000000000000000000000038
:1008C00000000000000000001211100000000000F5
:1008D0000000000000000000000000000000000018
:1008E0000000000020002300260029002C002F001B
:1008F000320000010000030106010901050505059C
:10090000070508080808020202020A0A0808040487
:1009100004040101010101010101030303030303B5
:100920000303040707070C0C0C0C0C0C0C0C020244
:10093000020206060606060606060B0B0B0B0B0B41
:100940000B0B0102102020080810204010204080CE
:100950000201020108040201010204081020408083
:100960008040201008040201800402018040201011
:10097000080402010804020101020408102040805A
:1009800001020408102040808C0B11241FBECFEF01
:10099000D1E2DEBFCDBF00E00CBF13E0A0E0B2E0CB
:1009A000E0EAF4E200E00BBF02C007900D92A8332A
:1009B000B107D9F725E0A8E3B3E001C01D92A13E3D
:1009C000B207E1F714E0C5ECD4E000E006C02197DF
:1009D0000109802FFE010E943212C43CD10780E041
:1009E0000807A9F70E94680C0C944E120C940000A2
:1009F000AF92BF92CF92DF92EF92FF920F931F932D
:100A0000CF93DF936C017B018B01040F151FEB016A
:100A10005E01AE18BF08C017D10759F06991D60121
:100A2000ED91FC910190F081E02DC6011995892B83
:100A300079F7C501DF91CF911F910F91FF90EF9052
:100A4000DF90CF90BF90AF900895FC01538D448DFF
:100A5000252F30E0842F90E0821B930B541710F069
:100A6000CF96089501970895FC01918D828D981776
:100A700061F0A28DAE0FBF2FB11D5D968C91928D4E
:100A80009F5F9F73928F90E008958FEF9FEF08957F
:100A9000FC01918D828D981731F0828DE80FF11D48
:100AA000858D90E008958FEF9FEF0895FC01918D63
:100AB000228D892F90E0805C9F4F821B91098F735C
:100AC0009927089586ED94E00E94560521E0892B30
:100AD00009F420E0822F0895FC01A48DA80FB92FFE
:100AE000B11DA35ABF4F2C91848D90E001968F7356
:100AF0009927848FA689B7892C93A089B1898C9175
:100B0000837080648C93938D848D981306C00288C3
:100B1000F389E02D80818F7D80830895EF92FF928D
:100B20000F931F93CF93DF93EC0181E0888F9B8D10
:100B30008C8D98131AC0E889F989808185FF15C0CA
:100B40009FB7F894EE89FF896083E889F9898081ED
:100B50008370806480839FBF81E090E0DF91CF91BC
:100B60001F910F91FF90EF900895F62E0B8D10E0DE
:100B70000F5F1F4F0F731127E02E8C8D8E110CC04D
:100B80000FB607FCFACFE889F989808185FFF5CF98
:100B9000CE010E946C05F1CFEB8DEC0FFD2FF11D06
:100BA000E35AFF4FF0829FB7F8940B8FEA89FB89D5
:100BB00080818062CFCFCF93DF93EC01888D882333
:100BC000B9F0AA89BB89E889F9898C9185FD03C0B0
:100BD000808186FD0DC00FB607FCF7CF8C9185FF95
:100BE000F2CF808185FFEDCFCE010E946C05E9CF69
:100BF000DF91CF91089580E090E0892B29F00E9449
:100C0000620581110E94000080E090E0892B49F08C
:100C100080E090E0892B29F00E94000081110E9461
:100C2000000080E090E0892B49F080E090E0892B83
:100C300029F00E94000081110E94000080E090E0F5
:100C4000892B49F080E090E0892B29F00E94000078
:100C500081110C94000008958150823108F05AC02F
:100C6000E82FF0E08827E85CF94F8F4F0C943212A0
:100C700058065C064A06500654068A065F06650654
:100C800069066F06730677067D0681068A06850665
:100C90008B068F06809180008F7780938000089567
:100CA000809180008F7DF9CF80918000877FF5CF84
:100CB00084B58F7784BD089584B58F7DFBCF8091F7
:100CC000B0008F778093B00008958091B0008F7D41
:100CD000F9CF809190008F77809390000895809154
:100CE00090008F7DF9CF80919000877FF5CF809124
:100CF000A0008F778093A00008958091A0008F7D41
:100D0000F9CF8091A000877FF5CF809120018F7768
:100D1000809320010895809120018F7DF9CF8091EB
:100D20002001877FF5CFCF93DF93282F30E0F901A3
:100D3000E456F74F8491F901EE5BF64FD491F90137
:100D4000E450F74FC491CC23A1F081110E942C06EE
:100D5000EC2FF0E0EE0FFF1FEE51F74FA591B4918D
:100D6000EC91ED2381E090E009F480E0DF91CF91F8
:100D7000089580E090E0FACF1F93CF93DF93282F60
:100D800030E0F901E456F74F8491F901EE5BF64F3C
:100D9000D491F901E450F74FC491CC23A9F0162F58
:100DA00081110E942C06EC2FF0E0EE0FFF1FEE5792
:100DB000F74FA591B4918FB7F894EC91111108C039
:100DC000D095DE23DC938FBFDF91CF911F910895E3
:100DD000DE2BF8CFCF93DF9390E0FC01EE5BF64F74
:100DE00024918450974FFC0184918823D1F090E0A6
:100DF000880F991FFC01E859F74FA591B491FC01A8
:100E0000EE57F74FC591D49161110EC09FB7F8947A
:100E10008C91E22FE0958E238C932881E223E88346
:100E20009FBFDF91CF9108958FB7F894EC91E22B9B
:100E3000EC938FBFF6CF3FB7F89480913D0390912C
:100E40003E03A0913F03B091400326B5A89B05C087
:100E50002F3F19F00196A11DB11D3FBFBA2FA92F39
:100E6000982F8827BC01CD01620F711D811D911D36
:100E700042E0660F771F881F991F4A95D1F70895A2
:100E80008F929F92AF92BF92CF92DF92EF92FF929A
:100E90006B017C010E941B074B015C01C114D10452
:100EA000E104F104B9F00E941B07681979098A0965
:100EB0009B09683E73408105910580F321E0C21AC9
:100EC000D108E108F10888EE880E83E0981EA11C85
:100ED000B11CE4CFFF90EF90DF90CF90BF90AF9028
:100EE0009F908F900895CF92DF92EF92FF920F9391
:100EF0001F93CF93DF931F921F92CDB7DEB7698305
:100F00004A83880F991F0091DF051091E005000FBB
:100F1000111FE9E8F5E09F012958354020173107F6
:100F200014F41192F8CF2981FC01E757FA4F21837D
:100F30008A81808360E08091DD050E94BC061016E6
:100F4000110604F501501109F801E757FA4FE08046
:100F5000D090DB05C090D90588E0F82E6E2D661F75
:100F60006627661F8C2D0E94BC06EE0C61E08D2D5D
:100F70000E94BC0660E08D2D0E94BC06FA94F11020
:100F8000EDCFDDCF61E08091DD050F900F90DF9117
:100F9000CF911F910F91FF90EF90DF90CF900C9425
:100FA000BC0697FD2CC0E091DF05F091E0058E179F
:100FB0009F072CF56830710510F548305105F8F49D
:100FC000E0E8F0E0DF0102C0B595A7954A95E2F7A9
:100FD000AD01FC0133E0EE0FFF1F3A95E1F7E60F9C
:100FE000F71FE757FA4F3089222331F0432B408B0C
:100FF0006F5F40890C94730740954323F8CF0895A1
:10100000EF92FF921F93CF93DF9340917D05509114
:101010007E0560917B0570917C0521E080917F05C4
:10102000909180050E94D1074091750550917605F9
:10103000609173057091740520E08091770590911F
:1010400078050E94D1071091C404C12FD0E011236C
:10105000A9F0CE018B5B9C4F7C01F70142917F018F
:1010600050E0E058FF4F608170E0E058FF4F808112
:1010700021E090E00E94D107115079F7FE01EC5B6E
:10108000FC4F808190E09093760580937505DF0199
:10109000A058BF4F8C9190E0909374058093730596
:1010A000F395808190E09093780580937705609127
:1010B0000002709101028091020290910302DF917F
:1010C000CF911F91FF90EF900C944007EF92FF9209
:1010D0001F93CF93DF932091DF053091E0058217B6
:1010E0009307B4F4EC0123E0880F991F2A95E1F7E8
:1010F0009C0127563A4F790111E0F70111927F01C7
:1011000040E0612FCE010E9473071F5F1930A9F7DD
:10111000DF91CF911F91FF90EF9008950F931F9350
:1011200090E0FC01EE5BF64F6491FC01E450F74F58
:10113000E491F0E0EE0FFF1FEE51F74F859194918F
:1011400000E412E42FE030E0462F0E94470B6115C7
:1011500071058105910529F06F5F7F4F8F4F9F4F7C
:101160009F701F910F910895FC0101900020E9F7F5
:101170003197AF01481B590BBC0186ED94E00C94EC
:10118000F8048F929F92AF92BF920F931F93CF93C9
:10119000DF93CDB7DEB7A1970FB6F894DEBF0FBED1
:1011A000CDBF19A2423008F44AE08E010F5D1F4FF7
:1011B000842E912CB12CA12CA50194010E94ED113B
:1011C000E62FB901CA01EA30F4F4E05DD801EE93EC
:1011D0008D01232B242B252B79F790E080E01097AD
:1011E00019F0CD010E94B408A1960FB6F894DEBFA5
:1011F0000FBECDBFDF91CF911F910F91BF90AF90E8
:101200009F908F900895E95CE1CFCF92DF92EF92AB
:10121000FF92CF93DF9397FF1BC06B017C016DE2C0
:1012200086ED94E00E948E05EC0166277727CB01BE
:101230006C197D098E099F094AE00E94C1088C0F34
:101240009D1FDF91CF91FF90EF90DF90CF90089599
:101250004AE0DF91CF91FF90EF90DF90CF900C9418
:10126000C108CF93DF930E94B408EC018AE192E0B9
:101270000E94B4088C0F9D1FDF91CF9108952F928B
:101280003F924F925F926F927F928F929F92AF9216
:10129000BF92CF92DF92EF92FF920F931F93CF9363
:1012A000DF9300D000D000D01F92CDB7DEB781E031
:1012B0008093C704F12CE12C1A82198297012856D9
:1012C0003A4F590160E070E0CB010E944007C980AD
:1012D000DA80CA0CDB1C10E000E0F601849121E00A
:1012E000811101C020E049815A81B80190E080E07D
:1012F0000E94D107F6013797E49121E0E11101C086
:1013000020E049815A81B80181E090E00E94D10734
:101310000F5F1F4FFAE5CF0ED11C08301105E9F61B
:1013200029813A812F5F3F4F3A8329832830310545
:1013300049F63FEFE31AF30A83E5E816F10409F0F2
:10134000BBCF409041035090420394E649165104AC
:1013500008F0A6C0C2016AE070E00E941E123B01C4
:101360001C0126E0220C331C2A95E1F7FB0136E034
:10137000EE0FFF1F3A95E1F7F887EF83F12CE12C90
:10138000670110E000E060E070E0CB010E944007E0
:101390005601FAE04F1651040CF0BCC02CE2A21A20
:1013A000B108C50108979E838D83F601E853FC4F71
:1013B0004F011A861986C501820D931D9C01205C80
:1013C0003E4F3A8329838F8198858A0D9B1DFC01AE
:1013D000E85BFE4FFC83EB83F3E3EF16F104DCF4F0
:1013E000F401849121E0811101C020E0A801698508
:1013F0007A8590E080E00E94D107F4013797E4916C
:1014000021E0E11101C020E0A80169857A8581E031
:1014100090E00E94D107F8E0AF16B10408F07EC05A
:1014200061147104B9F0E985FA8593E0EE0FFF1FAE
:101430009A95E1F72B813C81E20FF31FE49121E0C3
:10144000E11101C020E0A80169857A8590E080E083
:101450000E94D10789859A8501969A8789879AE3A0
:10146000890E911CE985FA85389709F0B5CF0F5F91
:101470001F4FFFEFCF1ADF0A0830110509F083CFA5
:101480002FEFE21AF20A3AE4E316F10409F078CFFA
:1014900090E080E00E94660881E090E00E9466088B
:1014A00010924203109241034091850550918605A8
:1014B000609183057091840520E08091870590916B
:1014C00088050E94D1078DE192E00E94310990E0E9
:1014D00080E00E94660881E090E00E946608109219
:1014E000D5042A960FB6F894DEBF0FBECDBFDF91AC
:1014F000CF911F910F91FF90EF90DF90CF90BF9011
:10150000AF909F908F907F906F905F904F903F90A3
:101510002F90089534E3A31AB10843CF8D819E81A3
:10152000089708F097CFE985FA8583E0EE0FFF1F53
:101530008A95E1F729813A817FCF1F920F920FB6EA
:101540000F9211240BB60F922F933F934F935F93FB
:101550006F937F938F939F93AF93BF93EF93FF937B
:1015600086ED94E00E946C05FF91EF91BF91AF91E1
:101570009F918F917F916F915F914F913F912F91AB
:101580000F900BBE0F900FBE0F901F9018951F92DB
:101590000F920FB60F9211240BB60F922F938F93C9
:1015A0009F93EF93FF93E091E604F091E70480812D
:1015B000E091EC04F091ED0482FD1DC090818091DA
:1015C000EF048F5F8F732091F004821741F0E09158
:1015D000EF04F0E0EA52FB4F958F8093EF04FF9108
:1015E000EF919F918F912F910F900BBE0F900FBE97
:1015F0000F901F9018958081F2CF1F920F920FB617
:101600000F9211242F933F938F939F93AF93BF9388
:101610008091390390913A03A0913B03B0913C0330
:101620003091380323E0230F2D3758F50196A11D83
:10163000B11D209338038093390390933A03A0930C
:101640003B03B0933C0380913D0390913E03A091F6
:101650003F03B09140030196A11DB11D80933D034E
:1016600090933E03A0933F03B0934003BF91AF918B
:101670009F918F913F912F910F900FBE0F901F90D0
:10168000189526E8230F0296A11DB11DD2CFCF9247
:10169000DF92EF92FF920F931F93E82FF92F05C06F
:1016A000015011092109310961F1908196239417A4
:1016B000B9F305C0015011092109310911F19081D7
:1016C00096239413F7CFC12CD12CE12CF12C0AC016
:1016D0008FEFC81AD80AE80AF80A0C151D052E055E
:1016E0003F0579F080818623841791F36C2D7D2D41
:1016F0008E2D9F2D1F910F91FF90EF90DF90CF9037
:10170000089560E070E080E090E01F910F91FF90FD
:10171000EF90DF90CF900895CF93DF931092D9048C
:101720001092D80488EE93E0A0E0B0E08093DA0451
:101730009093DB04A093DC04B093DD048CE092E092
:101740009093D7048093D60485EC90E09093E304C3
:101750008093E20484EC90E09093E5048093E404A9
:1017600080EC90E09093E7048093E60481EC90E0B5
:101770009093E9048093E80482EC90E09093EB046A
:101780008093EA0486EC90E09093ED048093EC045F
:101790001092EF041092F0041092F1041092F204EF
:1017A000CCE0D0E0D093DA05C093D9058BE090E08F
:1017B0009093DC058093DB058AE090E09093DE0552
:1017C0008093DD0582E090E09093E0058093DF0553
:1017D00061E08CE00E94EA0661E08091DB050E94F6
:1017E000EA0661E08091DD050E94EA0661E08091F1
:1017F000DD050E94BC06D093DA05C093D905E9E95E
:10180000F5E089ED95E011928E179F07E1F7D0E0A2
:10181000C0E08091DF059091E005C817D9073CF53D
:1018200040E06FE0CE010E9473078091DF05909148
:10183000E005C817D9072CF447E06BE0CE010E9401
:10184000730740E069E0CE010E947307CE010E9459
:1018500066088091DF059091E005C817D9072CF440
:1018600040E06CE0CE010E9473072196D2CF8FEF4B
:101870009FEF9093840580938305909386058093D2
:101880008505909388058093870510927C051092BA
:101890007B0510927E0510927D05109280051092B6
:1018A0007F051092820510928105109274051092A6
:1018B00073051092760510927505109278051092B6
:1018C000770510927A0510927905DF91CF910895EE
:1018D000789484B5826084BD84B5816084BD85B50B
:1018E000826085BD85B5816085BD80916E00816017
:1018F00080936E00109281008091810082608093BD
:1019000081008091810081608093810080918000BE
:101910008160809380008091B10084608093B100E9
:101920008091B00081608093B000809191008260CE
:1019300080939100809191008160809391008091CB
:1019400090008160809390008091A10082608093DC
:10195000A1008091A10081608093A1008091A000EE
:1019600081608093A0008091210182608093210199
:10197000809121018160809321018091200181600B
:101980008093200180917A00846080937A00809116
:101990007A00826080937A0080917A0081608093DF
:1019A0007A0080917A00806880937A001092C1005A
:1019B00060E087E00E94EA0660E086E00E94EA06B6
:1019C00060E085E00E94EA0660E084E00E94EA06AA
:1019D00061E083E00E94EA0660E088E00E94EA0697
:1019E000E091E604F091E70482E08083E091E20474
:1019F000F091E3041082E091E404F091E5048FECAF
:101A000080831092EE04E091EA04F091EB0486E00A
:101A10008083E091E804F091E90480818061808313
:101A2000E091E804F091E904808188608083E0918E
:101A3000E804F091E904808180688083E091E80403
:101A4000F091E90480818F7D80838091DF05909102
:101A5000E0051816190634F441E06CE090E080E0EF
:101A60000E9473078091DF059091E0051816190612
:101A700034F448E06AE090E080E00E94730790E070
:101A800080E00E9466088091DF059091E005029752
:101A900034F041E06CE081E090E00E9473078091B7
:101AA000DF059091E005029734F048E06AE081E0BC
:101AB00090E00E94730781E090E00E94660883E650
:101AC00092E00E94310960910002709101028091C0
:101AD0000202909103020E94400766246A94762CC9
:101AE00097E0892E912CA12CB12CCC24C394D12C1D
:101AF00032E0232E312C412C512C88E00E94930699
:101B00009093C6048093C504019709F0BEC088E095
:101B10000E948E08672B682B692BD1F46091C90451
:101B20007091CA048091CB049091CC046F5F7F4F79
:101B30008F4F9F4F6093C9047093CA048093CB0466
:101B40009093CC040E9405098AE192E00E94B408B7
:101B50008091C9049091CA04A091CB04B091CC04A7
:101B60000397A105B1050CF490C080EA92E00E94B1
:101B700031091092C9041092CA041092CB04109239
:101B8000CC047092860560928505709284056092FF
:101B9000830510924203109241031092C6041092E2
:101BA000C5041092C8041092C704E091C404F0E088
:101BB000EB5BFC4F1292DF01A058BF4F1C92A05864
:101BC000BF4F1C9283E0E434F807A1F71092C404DD
:101BD0000E946311A50194010E94BB116F5F7F4FAA
:101BE0008F4F9F4F70937C0560937B050E9463111C
:101BF000A50194010E94BB116F5F7F4F8F4F9F4FD4
:101C000070937E0560937D050E94631124E030E0AF
:101C100040E050E00E94BB116F5F7F4F8F4F9F4F9E
:101C200070938205609381050E946311D0928005B4
:101C3000C0927F0560917B0570917C056093730570
:101C40007093740540917D0550917E054093750514
:101C500050937605809181059091820590937A0545
:101C600080937905D0927805C0927705409344031C
:101C70006093C40391E09093440421E081E090E0FC
:101C80000E94D10781E08093D5048091D5048823F8
:101C900009F4D4C087E00E949306EC019093D40429
:101CA0008093D30486E00E9493067C019093D20433
:101CB0008093D10485E00E9493068C019093D00418
:101CC0008093CF0484E00E9493069093CE04809387
:101CD000CD04C130D10509F047C061E083E00E9426
:101CE000BC06D0938205C09381058091C904909170
:101CF000CA04A091CB04B091CC0481309105A10518
:101D0000B10509F09EC08091C80491E089278093B5
:101D1000C804882309F475C08BEB92E00E94310956
:101D200040918505509186056091830570918405E9
:101D300020E080918705909188050E94D107C0918D
:101D4000C404EC2FF0E0EC5BFC4F408150E0DF017D
:101D5000A058BF4F6C9170E0F395808120E090E037
:101D60000E94D107C150EDCFEF2859F061E083E028
:101D70000E94BC0682E090E09093820580938105EA
:101D8000B4CF012B39F061E083E00E94BC0683E010
:101D900090E0F2CF892B39F061E083E00E94BC062D
:101DA00084E090E0E9CF8091C5049091C60401974A
:101DB00019F588E00E948E08672B682B692B09F0C3
:101DC00094CF6091C9047091CA048091CB04909122
:101DD000CC046F5F7F4F8F4F9F4F6093C904709308
:101DE000CA048093CB049093CC040E9405098AE135
:101DF00092E00E94B40879CF60E083E00E94BC06C4
:101E000074CF89EC92E00E94310940918505509190
:101E10008605609183057091840521E08091870596
:101E2000909188050E94D1070E9400081092C90471
:101E30001092CA041092CB041092CC040E94FB05AD
:101E40005CCE0397A105B1057CF088ED92E00E947D
:101E500031091092C9041092CA041092CB04109256
:101E6000CC040E943F09EACF8091C80481119FC031
:101E70008091C70481119BC080914303811110920E
:101E8000430320918105309182052230310509F408
:101E900022C10CF05AC02130310509F47BC0609199
:101EA0007D0570917E0540917B0550917C052091C8
:101EB0007F05309180058091850590918605681792
:101EC000790789F480918305909184054817590713
:101ED00051F480918705909188058217930719F432
:101EE00091E090934303E091C404F0E0EC5BFC4F7D
:101EF000808190E09093760580937505DF01A0586E
:101F0000BF4F8C9190E09093740580937305A05817
:101F1000BF4F8C9190E0909378058093770584E48F
:101F200093E08E179F0709F400C1DF018E91808333
:101F3000EF01C158DF4F888121968883C158DF4F58
:101F40008881F3958083FD01EACF80917D05909192
:101F50007E0540917F05509180052330310509F4BD
:101F6000C7C02430310509F09ACF019690937E05C1
:101F700080937D0508970CF492CF4130510509F00C
:101F8000D0C010927E0510927D05109280051092AF
:101F90007F0585CF80917B0590917C05019790937B
:101FA0007C0580937B0597FF7ACF0E943F0962E30F
:101FB00070E080E090E00E9440078091C7048111AA
:101FC0003DCFE0908505F090860500918305109146
:101FD0008405C0918705D091880521E0A701B8014B
:101FE000CE010E94D1070F3F100741F08FEFE81696
:101FF000F80621F0CF3FDC0709F0A0C00E94631172
:1020000026E030E040E050E00E94BB116F5F7F4F60
:102010008F4F9F4F70938605609385050E946311D3
:1020200028E030E040E050E00E94BB11709384054E
:10203000609383050E946311A20191010E94BB116C
:10204000CB01709388056093870540918505509179
:102050008605609183057091840521E00E94D10777
:1020600082EE92E00E94B40860918305709184052D
:10207000072E000C880B990B0E9405098CE192E059
:102080000E9431098DEE92E00E94B40860918505AE
:1020900070918605072E000C880B990B0E9405098C
:1020A0008CE192E00E94310988EF92E00E94B4082E
:1020B0006091870570918805072E000C880B990B9D
:1020C0000E9405098CE192E00E94310986E093E0CC
:1020D0000E943109B3CE80917B0590917C050196D9
:1020E00090937C0580937B0508970CF4D8CE5DCF48
:1020F000019790937E0580937D0597FFD0CE413068
:10210000510509F452CF452B09F0C9CED092800574
:10211000C0927F0587E090E090937E0580937D05D7
:10212000BECE452B09F0BBCE40CF60934403409315
:10213000C403209344040E94000839CF80917D0598
:1021400090917E05E816F90609F078CE80917B051E
:1021500090917C050817190709F070CE80917F05D2
:1021600090918005C817D90709F068CEF0927605DE
:10217000E09275051093740500937305D09378056C
:10218000C0937705E091C404EF5FE093C404F0E0EE
:10219000EC5BFC4FE082DF01A058BF4F0C93F3953E
:1021A000C083709286056092850570928405609266
:1021B00083058091000290910102A0910202B091EA
:1021C00003020A97A109B1098093000290930102CA
:1021D000A0930202B09303028FE193E00E94B4083F
:1021E00060910002709101028091020290910302BD
:1021F0004AE00E94C10880914103909142030196F8
:1022000090934203809341038DE293E00E94B408CF
:102210006091410370914203072E000C880B990BCB
:102220000E9405098AE192E00E94B40807CE8F92CD
:102230009F92AF92BF92CF92DF92EF92FF92CF9395
:10224000DF93EC01688179818A819B816115710539
:102250008105910521F464E279ED8BE597E02DE1AC
:1022600033EF41E050E00E94BB1149015A019B014C
:10227000AC01A7EAB1E40E94DA116B017C01ACEE7B
:10228000B4EFA50194010E94E811C60ED71EE81E06
:10229000F91EF7FE06C081E0C81AD108E10880E8FF
:1022A000F80AC882D982EA82FB82C701B6019F7709
:1022B000DF91CF91FF90EF90DF90CF90BF90AF90E4
:1022C0009F908F9008958F929F92AF92BF92CF92DE
:1022D000DF92EF92FF92609104027091050280916B
:1022E000060290910702611571058105910521F49F
:1022F00064E279ED8BE597E02DE133EF41E050E0CA
:102300000E94BB1149015A019B01AC01A7EAB1E44B
:102310000E94DA116B017C01ACEEB4EFA5019401CF
:102320000E94E811C60ED71EE81EF91EF7FE06C071
:1023300081E0C81AD108E10880E8F80AC0920402D6
:10234000D0920502E0920602F0920702C701B601A0
:102350009F77FF90EF90DF90CF90BF90AF909F90CE
:102360008F90089560930402709305028093060293
:10237000909307020895052E97FB1EF400940E9487
:10238000D21157FD07D00E94ED1107FC03D04EF487
:102390000C94D21150954095309521953F4F4F4F59
:1023A0005F4F089590958095709561957F4F8F4F01
:1023B0009F4F08950E940F12A59F900DB49F900DFE
:1023C000A49F800D911D11240895B7FF0C94DA117C
:1023D0000E94DA11821B930B0895A1E21A2EAA1B08
:1023E000BB1BFD010DC0AA1FBB1FEE1FFF1FA217C5
:1023F000B307E407F50720F0A21BB30BE40BF50BC2
:10240000661F771F881F991F1A9469F7609570954A
:10241000809590959B01AC01BD01CF010895A29FCD
:10242000B001B39FC001A39F700D811D1124911DA8
:10243000B29F700D811D1124911D089597FB072EE9
:1024400016F4009407D077FD09D00E943A1207FCD9
:1024500005D03EF4909581959F4F089570956195B4
:102460007F4F0895EE0FFF1F881F8BBF0790F691D7
:10247000E02D1994AA1BBB1B51E107C0AA1FBB1F6B
:10248000A617B70710F0A61BB70B881F991F5A9500
:10249000A9F780959095BC01CD010895F894FFCFE0
:1024A000BC02000001000000000000008E05F804DE
:1024B0002505DB055605340548050D0A003E3E3E60
:1024C0003E3E3E3E70726573696F6E6520535441A7
:1024D000525420706F722033207365672F766563C6
:1024E000657321207061726120696E696369617230
:1024F00020656C206A7565676F3C3C3C3C3C3C3C0D
:102500003C29003E3E3E3E3E3E3E70726573696F22
:102510006E6520535441525420706F7220332073E3
:1025200065672F766563657321207061726120692C
:102530006E69636961723C3C3C3C3C3C3C3C29001C
:10254000696E696369616E646F206A7565676F2083
:10255000534E414B452E2E2E2E2E006D6F646F2054
:102560005041555341204F4E006D6F646F205041D4
:10257000555341204F4646006D6F646F20455849C2
:102580005400436F6D696461526F773A00436F6D19
:10259000696461436F6C3A00436F6D6964614D61BA
:1025A0007472697A3A002D2D2D2D2D2D2D2D2D2D66
:1025B0002D2D2D2D2D2D2D2D2D2D2D2D2D2D003E67
:1025C0003E3E76656C6F63696461643A003E3E3EF0
:0825D00070756E746F733A0020
:00000001FF
