:020000040000FA
:100000000C94C5040C94F6040C94F6040C94F604B9
:100010000C94F6040C94F6040C94F6040C94F60478
:100020000C94F6040C94F6040C94F6040C94F60468
:100030000C94F6040C94F6040C94F6040C94F60458
:100040000C94F6040C94F6040C94F6040C94F60448
:100050000C94F6040C94F6040C94F6040C94250C01
:100060000C94F6040C94EF0B0C94C50B0C94F60452
:100070000C94F6040C94F6040C94F6040C94F60418
:100080000C94F6040C94F6040C94F6040C94F60408
:100090000C94F6040C94F6040C94F6040C94F604F8
:1000A0000C94F6040C94F6040C94F6040C94F604E8
:1000B0000C94F6040C94F6040C94F6040C94F604D8
:1000C0000C94F6040C94F6040C94F6040C94F604C8
:1000D0000C94F6040C94F6040C94F6040C94F604B8
:1000E0000C94F6040C948E050C94DB050C948A0693
:1000F0000C945C060C948F060C9450060C94F80437
:100100000C9465060C9485060C944A060C945406CF
:100110000C9456050C9477060C948B060C945F0691
:100120000C94B40C0C9425050C9434050C946906BD
:100130000C946F060C947D060C9458060C9448059C
:100140000C9473060C94810600000000000000006F
:100150000000010101010000000101000001010097
:100160000001010001010100000101010001010085
:100170000001010000010100000101000001010077
:10018000000001010101000000000000000000006B
:10019000000000010100000000000001010000005B
:1001A000000001010100000000000001010000004A
:1001B000000000010100000000000001010000003B
:1001C0000001010101010100000000000000000029
:1001D0000000010101010000000101000001010017
:1001E000000000000001010000000000010100000B
:1001F00000000101000000000001010000000000FB
:1002000000010101010101000000000000000000E8
:1002100000000101010100000001010000010100D6
:1002200000000000000101000000000101010000C9
:1002300000000000000101000001010000010100B8
:1002400000000101010100000000000000000000AA
:100250000000000001010000000000010101000099
:100260000000010001010000000100000101000088
:100270000001010101010100000000000101000076
:10028000000000000101000000000000000000006C
:100290000001010101010100000101000000000056
:1002A0000001010101010000000000000001010047
:1002B0000000000000010100000101000001010038
:1002C000000001010101000000000000000000002A
:1002D0000000010101010000000101000001010016
:1002E0000001010000000000000101010101000007
:1002F00000010100000101000001010000010100F6
:1003000000000101010100000000000000000000E9
:1003100000010101010101000001010000010100D3
:1003200000000000010100000000000001010000C9
:1003300000000001010000000000000101000000B9
:1003400000000001010000000000000000000000AB
:100350000000010101010000000101000001010095
:100360000001010000010100000001010101000085
:100370000001010000010100000101000001010075
:100380000000010101010000000000000000000069
:100390000000010101010000000101000001010055
:1003A0000001010000010100000001010101010044
:1003B0000000000000010100000101000001010037
:1003C0000000010101010000000000000000000029
:1003D000000000000000000000000000000000001D
:1003E000000000000000000000000000000000000D
:1003F00000000000000000000000000000000000FD
:1004000000000000000000000000000101010100E8
:1004100000000001010101000000000101010100D4
:1004200000000101010101000000010101010101C1
:1004300000000000000000000000000000000000BC
:1004400000000000010100000101000001010000A6
:100450000101000001010000010100000101000094
:100460000101000001010000000000000101000086
:10047000000000000000000000000000000001017A
:100480000000000000000101000000000000010168
:100490000000010100000101000001010000010154
:1004A000000000000000010100000000000000004A
:1004B0000000000000000000000101010100000038
:1004C0000101000000000000010100000101000026
:1004D0000101010101000000010101010100000012
:1004E000000000000000000000000000000000000C
:1004F00000000000000001010000010100000000F8
:1005000000000101000001010000010101010000E3
:1005100000000101000000000000010100000000D7
:1005200000000000000000000000000001010000C9
:1005300001010000010100000101000001010000B3
:1005400001010000010100010100000001010000A3
:100550000000000001010000000000000000000099
:100560000000000000000001010101000000000186
:100570000101010000000001010101000000010172
:100580000000010100000101010101010000000063
:10059000000000000000000000000000000000005B
:1005A000000000000000000000000000000000004B
:1005B000000000000000000000000000000000003B
:1005C000000000000000000000000000000000002B
:1005D000000000000000000000000000000000001B
:1005E000000000000000000000000000000000000B
:1005F00000000000000000000000000101010100F7
:1006000000000001010101000000010100000001E3
:1006100001000001010101010100000000000000D3
:1006200001010101000000010100000101000001C1
:1006300001010101010000010101010100000000B0
:1006400001010000000000000000000000000000A8
:100650000000000001010000010100000101000094
:100660000101000001010100010101000001010080
:100670000000000000000000000101000001010076
:100680000001010000010100000101000000000064
:100690000001010000010100000101010100000052
:1006A0000000000000000000000000000000010148
:1006B0000000000000000101000001010000010134
:1006C0000101010101000001010000000000000023
:1006D0000000000101000001010000010100000113
:1006E0000100000101000000000000010100000104
:1006F00001000001010101000000000000000000F5
:1007000000000000000000000101000000000000E7
:1007100001010101010100000101000100010100CE
:1007200000010101010100000000000000010100C2
:1007300000010100000101000001010000010101B0
:1007400001010000000101010101000000000101A0
:100750000000000000000000000000000000000099
:100760000000010100010101000001010000010180
:100770000000010100000001010000010100000073
:100780000000000000000001010000010100000164
:100790000100000101000001010000000000000153
:1007A0000101010000000000010100000000000044
:1007B0000000000000000000000000000101000037
:1007C0000101000001010000010100000101000021
:1007D0000001010000010100000000000000000015
:1007E0000001010000010100000001010101000001
:1007F00000010100000000000001010001010000F3
:1008000000000000000000000000000000000000E8
:1008100000000000000000010101010000000101D2
:1008200000000101000001010000000101000001C1
:1008300001010101010000000000000001010101AF
:1008400000000000000101000000000101010101A1
:100850000100000101000001010000000101000091
:10086000000000000000000000002100240027001C
:100870002A002D00300033000101000004010701AF
:100880000A0100002200250028002B002E00310064
:10089000340002010000050108010B0100000A0BF1
:1008A00002090C0D0E0807030401000000000000FF
:1008B0000000000000000000000000000000000038
:1008C00000000000000000001211100000000000F5
:1008D0000000000000000000000000000000000018
:1008E0000000000020002300260029002C002F001B
:1008F000320000010000030106010901050505059C
:10090000070508080808020202020A0A0808040487
:1009100004040101010101010101030303030303B5
:100920000303040707070C0C0C0C0C0C0C0C020244
:10093000020206060606060606060B0B0B0B0B0B41
:100940000B0B0102102020080810204010204080CE
:100950000201020108040201010204081020408083
:100960008040201008040201800402018040201011
:10097000080402010804020101020408102040805A
:100980000102040810204080B40C11241FBECFEFD8
:10099000D1E2DEBFCDBF00E00CBF12E0A0E0B2E0CC
:1009A000E0EFF4E200E00BBF02C007900D92AC3F15
:1009B000B107D9F725E0ACEFB2E001C01D92A53A2E
:1009C000B207E1F714E0C5ECD4E000E006C02197DF
:1009D0000109802FFE010E945A12C43CD10780E019
:1009E0000807A9F70E94900D0C9476120C94000051
:1009F000AF92BF92CF92DF92EF92FF920F931F932D
:100A0000CF93DF936C017B018B01040F151FEB016A
:100A10005E01AE18BF08C017D10759F06991D60121
:100A2000ED91FC910190F081E02DC6011995892B83
:100A300079F7C501DF91CF911F910F91FF90EF9052
:100A4000DF90CF90BF90AF900895FC01538D448DFF
:100A5000252F30E0842F90E0821B930B541710F069
:100A6000CF96089501970895FC01918D828D981776
:100A700061F0A28DAE0FBF2FB11D5D968C91928D4E
:100A80009F5F9F73928F90E008958FEF9FEF08957F
:100A9000FC01918D828D981731F0828DE80FF11D48
:100AA000858D90E008958FEF9FEF0895FC01918D63
:100AB000228D892F90E0805C9F4F821B91098F735C
:100AC000992708958AE994E00E94560521E0892B30
:100AD00009F420E0822F0895FC01A48DA80FB92FFE
:100AE000B11DA35ABF4F2C91848D90E001968F7356
:100AF0009927848FA689B7892C93A089B1898C9175
:100B0000837080648C93938D848D981306C00288C3
:100B1000F389E02D80818F7D80830895EF92FF928D
:100B20000F931F93CF93DF93EC0181E0888F9B8D10
:100B30008C8D98131AC0E889F989808185FF15C0CA
:100B40009FB7F894EE89FF896083E889F9898081ED
:100B50008370806480839FBF81E090E0DF91CF91BC
:100B60001F910F91FF90EF900895F62E0B8D10E0DE
:100B70000F5F1F4F0F731127E02E8C8D8E110CC04D
:100B80000FB607FCFACFE889F989808185FFF5CF98
:100B9000CE010E946C05F1CFEB8DEC0FFD2FF11D06
:100BA000E35AFF4FF0829FB7F8940B8FEA89FB89D5
:100BB00080818062CFCFCF93DF93EC01888D882333
:100BC000B9F0AA89BB89E889F9898C9185FD03C0B0
:100BD000808186FD0DC00FB607FCF7CF8C9185FF95
:100BE000F2CF808185FFEDCFCE010E946C05E9CF69
:100BF000DF91CF91089580E090E0892B29F00E9449
:100C0000620581110E94000080E090E0892B49F08C
:100C100080E090E0892B29F00E94000081110E9461
:100C2000000080E090E0892B49F080E090E0892B83
:100C300029F00E94000081110E94000080E090E0F5
:100C4000892B49F080E090E0892B29F00E94000078
:100C500081110C94000008958150823108F05AC02F
:100C6000E82FF0E08827E85CF94F8F4F0C945A1278
:100C700058065C064A06500654068A065F06650654
:100C800069066F06730677067D0681068A06850665
:100C90008B068F06809180008F7780938000089567
:100CA000809180008F7DF9CF80918000877FF5CF84
:100CB00084B58F7784BD089584B58F7DFBCF8091F7
:100CC000B0008F778093B00008958091B0008F7D41
:100CD000F9CF809190008F77809390000895809154
:100CE00090008F7DF9CF80919000877FF5CF809124
:100CF000A0008F778093A00008958091A0008F7D41
:100D0000F9CF8091A000877FF5CF809120018F7768
:100D1000809320010895809120018F7DF9CF8091EB
:100D20002001877FF5CFCF93DF93282F30E0F901A3
:100D3000E456F74F8491F901EE5BF64FD491F90137
:100D4000E450F74FC491CC23A1F081110E942C06EE
:100D5000EC2FF0E0EE0FFF1FEE51F74FA591B4918D
:100D6000EC91ED2381E090E009F480E0DF91CF91F8
:100D7000089580E090E0FACF1F93CF93DF93282F60
:100D800030E0F901E456F74F8491F901EE5BF64F3C
:100D9000D491F901E450F74FC491CC23A9F0162F58
:100DA00081110E942C06EC2FF0E0EE0FFF1FEE5792
:100DB000F74FA591B4918FB7F894EC91111108C039
:100DC000D095DE23DC938FBFDF91CF911F910895E3
:100DD000DE2BF8CFCF93DF9390E0FC01EE5BF64F74
:100DE00024918450974FFC0184918823D1F090E0A6
:100DF000880F991FFC01E859F74FA591B491FC01A8
:100E0000EE57F74FC591D49161110EC09FB7F8947A
:100E10008C91E22FE0958E238C932881E223E88346
:100E20009FBFDF91CF9108958FB7F894EC91E22B9B
:100E3000EC938FBFF6CF3FB7F89480910103909168
:100E40000203A0910303B091040326B5A89B05C03B
:100E50002F3F19F00196A11DB11D3FBFBA2FA92F39
:100E6000982F8827BC01CD01620F711D811D911D36
:100E700042E0660F771F881F991F4A95D1F70895A2
:100E80008F929F92AF92BF92CF92DF92EF92FF929A
:100E90006B017C010E941B074B015C01C114D10452
:100EA000E104F104B9F00E941B07681979098A0965
:100EB0009B09683E73408105910580F321E0C21AC9
:100EC000D108E108F10888EE880E83E0981EA11C85
:100ED000B11CE4CFFF90EF90DF90CF90BF90AF9028
:100EE0009F908F900895CF92DF92EF92FF920F9391
:100EF0001F93CF93DF931F921F92CDB7DEB7698305
:100F00004A83880F991F0091A3051091A405000F33
:100F1000111FEDE4F5E09F012D54354020173107F6
:100F200014F41192F8CF2981FC01E35BFA4F21837D
:100F30008A81808360E08091A1050E94BC06101622
:100F4000110604F501501109F801E35BFA4FE08046
:100F5000D0909F05C0909D0588E0F82E6E2D661FED
:100F60006627661F8C2D0E94BC06EE0C61E08D2D5D
:100F70000E94BC0660E08D2D0E94BC06FA94F11020
:100F8000EDCFDDCF61E08091A1050F900F90DF9153
:100F9000CF911F910F91FF90EF90DF90CF900C9425
:100FA000BC0697FD2CC0E091A305F091A4058E1717
:100FB0009F072CF56830710510F548305105F8F49D
:100FC000E0E8F0E0DF0102C0B595A7954A95E2F7A9
:100FD000AD01FC0133E0EE0FFF1F3A95E1F7E60F9C
:100FE000F71FE35BFA4F3089222331F0432B408B0C
:100FF0006F5F40890C94730740954323F8CF0895A1
:10100000EF92FF921F93CF93DF9340914105509150
:10101000420560913F057091400521E080914305B4
:10102000909144050E94D1074091390550913A05AD
:10103000609137057091380520E080913B059091D3
:101040003C050E94D10710918904C12FD0E01123E3
:10105000A9F0CE01865F9C4F7C01F70142917F0190
:1010600050E0E058FF4F608170E0E058FF4F808112
:1010700021E090E00E94D107115079F7FE01E75F6F
:10108000FC4F808190E090933A0580933905DF0111
:10109000A058BF4F8C9190E090933805809337050E
:1010A000F395808190E090933C0580933B0560919F
:1010B0000002709101028091020290910302DF917F
:1010C000CF911F91FF90EF900C944007EF92FF9209
:1010D0001F93CF93DF932091A3053091A40582172E
:1010E0009307B4F4EC0123E0880F991F2A95E1F7E8
:1010F0009C01235A3A4F790111E0F70111927F01C7
:1011000040E0612FCE010E9473071F5F1930A9F7DD
:10111000DF91CF911F91FF90EF900895FC01019016
:101120000020E9F73197AF01481B590BBC018AE950
:1011300094E00C94F8048F929F92AF92BF920F9319
:101140001F93CF93DF93CDB7DEB7A1970FB6F89477
:10115000DEBF0FBECDBF19A2423008F44AE08E01B7
:101160000F5D1F4F842E912CB12CA12CA501940151
:101170000E941512E62FB901CA01EA30F4F4E05DCD
:10118000D801EE938D01232B242B252B79F790E0AA
:1011900080E0109719F0CD010E948E08A1960FB63D
:1011A000F894DEBF0FBECDBFDF91CF911F910F919D
:1011B000BF90AF909F908F900895E95CE1CFCF9260
:1011C000DF92EF92FF92CF93DF9397FF1BC06B01EB
:1011D0007C016DE28AE994E00E948E05EC016627AD
:1011E0007727CB016C197D098E099F094AE00E947F
:1011F0009B088C0F9D1FDF91CF91FF90EF90DF90A8
:10120000CF9008954AE0DF91CF91FF90EF90DF906B
:10121000CF900C949B08CF93DF930E948E08EC0133
:101220008AE192E00E948E088C0F9D1FDF91CF9182
:1012300008952F923F924F925F926F927F928F927A
:101240009F92AF92BF92CF92DF92EF92FF920F9355
:101250001F93CF93DF9300D000D000D01F92CDB763
:10126000DEB781E080930503F12CE12C1A8219820C
:10127000970128563A4F590160E070E0CB010E9477
:101280004007C980DA80CA0CDB1C10E000E0F601E0
:10129000849121E0811101C020E049815A81B80187
:1012A00090E080E00E94D107F6013797E49121E0B9
:1012B000E11101C020E049815A81B80181E090E04C
:1012C0000E94D1070F5F1F4FFAE5CF0ED11C0830E7
:1012D0001105E9F629813A812F5F3F4F3A8329832F
:1012E0002830310549F63FEFE31AF30A83E5E816A3
:1012F000F10409F0BBCF409006035090070394E639
:101300004916510408F0A6C0C2016AE070E00E94CC
:1013100046123B011C0126E0220C331C2A95E1F702
:10132000FB0136E0EE0FFF1F3A95E1F7F887EF83F8
:10133000F12CE12C670110E000E060E070E0CB01EF
:101340000E9440075601FAE04F1651040CF0BCC051
:101350002CE2A21AB108C50108979E838D83F6017D
:10136000E853FC4F4F011A861986C501820D931D63
:101370009C01205C3E4F3A8329838F8198858A0D9A
:101380009B1DFC01E85BFE4FFC83EB83F3E3EF1650
:10139000F104DCF4F401849121E0811101C020E02A
:1013A000A80169857A8590E080E00E94D107F40168
:1013B0003797E49121E0E11101C020E0A80169859F
:1013C0007A8581E090E00E94D107F8E0AF16B10481
:1013D00008F07EC061147104B9F0E985FA8593E0E4
:1013E000EE0FFF1F9A95E1F72B813C81E20FF31F6F
:1013F000E49121E0E11101C020E0A80169857A852E
:1014000090E080E00E94D10789859A8501969A87AD
:1014100089879AE3890E911CE985FA85389709F046
:10142000B5CF0F5F1F4FFFEFCF1ADF0A083011054E
:1014300009F083CF2FEFE21AF20A3AE4E316F1043F
:1014400009F078CF90E080E00E94660881E090E0AB
:101450000E94660810920703109206034091490506
:1014600050914A05609147057091480520E08091B0
:101470004B0590914C050E94D1078DE192E00E94AE
:101480000B0990E080E00E94660881E090E00E94F5
:101490006608109299042A960FB6F894DEBF0FBE24
:1014A000CDBFDF91CF911F910F91FF90EF90DF9013
:1014B000CF90BF90AF909F908F907F906F905F90F4
:1014C0004F903F902F90089534E3A31AB10843CF73
:1014D0008D819E81089708F097CFE985FA8583E092
:1014E000EE0FFF1F8A95E1F729813A817FCF0F9395
:1014F0001F9390E0FC01EE5BF64F6491FC01E45019
:10150000F74FE491F0E0EE0FFF1FEE51F74F85919A
:10151000949100E412E42FE030E0462F0E946F0C1B
:10152000611571058105910529F06F5F7F4F8F4F20
:101530009F4F9F701F910F910895EF92FF920F930D
:101540001F93CF93DF9362E370E080E090E00E940E
:10155000400780910503811111C1E0904905F09089
:101560004A050091470510914805C0914B05D0915F
:101570004C0521E0A701B801CE010E94D1070F3F21
:10158000100741F08FEFE816F80621F0CF3FDC0797
:1015900009F074C00E948B1126E030E040E050E07A
:1015A0000E94E3116F5F7F4F8F4F9F4F70934A05EB
:1015B000609349050E948B1128E030E040E050E044
:1015C0000E94E31170934805609347050E948B11B8
:1015D00022E030E040E050E00E94E311CB01709344
:1015E0004C0560934B054091490550914A05609127
:1015F00047057091480521E00E94D10783E692E0FB
:101600000E948E086091470570914805072E000CD6
:10161000880B990B0E94DF088CE192E00E940B0975
:101620008EE692E00E948E086091490570914A050D
:10163000072E000C880B990B0E94DF088CE192E0CA
:101640000E940B0989E792E00E948E0860914B0589
:1016500070914C05072E000C880B990B0E94DF0837
:101660008CE192E00E940B0987E892E0DF91CF9134
:101670001F910F91FF90EF900C940B098091410501
:1016800090914205E816F90609F078C080913F056F
:10169000909140050817190709F070C08091430523
:1016A00090914405C817D90709F068C0F0923A052F
:1016B000E09239051093380500933705D0933C0527
:1016C000C0933B05E0918904EF5FE0938904F0E06B
:1016D000E75FFC4FE082DF01A058BF4F0C93F3950A
:1016E000C0838FEF9FEF90934A05809349059093B5
:1016F0004805809347058091000290910102A091D6
:101700000202B09103020A97A109B1098093000275
:1017100090930102A0930202B093030280EA92E048
:101720000E948E0860910002709101028091020275
:10173000909103024AE00E949B08809106039091D9
:101740000703019690930703809306038EEA92E0C5
:101750000E948E086091060370910703072E000C0B
:10176000880B990B0E94DF088AE192E0DF91CF910C
:101770001F910F91FF90EF900C948E08DF91CF9105
:101780001F910F91FF90EF9008951F920F920FB647
:101790000F9211240BB60F922F933F934F935F93A9
:1017A0006F937F938F939F93AF93BF93EF93FF9329
:1017B0008AE994E00E946C05FF91EF91BF91AF918F
:1017C0009F918F917F916F915F914F913F912F9159
:1017D0000F900BBE0F900FBE0F901F9018951F9289
:1017E0000F920FB60F9211240BB60F922F938F9377
:1017F0009F93EF93FF93E091AA04F091AB04808153
:10180000E091B004F091B10482FD1DC090818091FF
:10181000B3048F5F8F732091B404821741F0E0917D
:10182000B304F0E0E656FB4F958F8093B304FF912D
:10183000EF919F918F912F910F900BBE0F900FBE44
:101840000F901F9018958081F2CF1F920F920FB6C4
:101850000F9211242F933F938F939F93AF93BF9336
:101860008091FD029091FE02A091FF02B0910003D1
:101870003091FC0223E0230F2D3758F50196A11D6E
:10188000B11D2093FC028093FD029093FE02A09371
:10189000FF02B09300038091010390910203A09195
:1018A0000303B09104030196A11DB11D80930103B0
:1018B00090930203A0930303B0930403BF91AF91ED
:1018C0009F918F913F912F910F900FBE0F901F907E
:1018D000189526E8230F0296A11DB11DD2CFCF92F5
:1018E000DF92EF92FF920F931F93E82FF92F05C01D
:1018F000015011092109310961F190819623941752
:10190000B9F305C0015011092109310911F1908184
:1019100096239413F7CFC12CD12CE12CF12C0AC0C3
:101920008FEFC81AD80AE80AF80A0C151D052E050B
:101930003F0579F080818623841791F36C2D7D2DEE
:101940008E2D9F2D1F910F91FF90EF90DF90CF90E4
:10195000089560E070E080E090E01F910F91FF90AB
:10196000EF90DF90CF900895CF93DF9310929D0476
:1019700010929C0488EE93E0A0E0B0E080939E0477
:1019800090939F04A093A004B093A1048CE092E0F4
:1019900090939B0480939A0485EC90E09093A70425
:1019A0008093A60484EC90E09093A9048093A8040B
:1019B00080EC90E09093AB048093AA0481EC90E0DB
:1019C0009093AD048093AC0482EC90E09093AF04CC
:1019D0008093AE0486EC90E09093B1048093B004C1
:1019E0001092B3041092B4041092B5041092B6048D
:1019F000CCE0D0E0D0939E05C0939D058BE090E0B5
:101A00009093A00580939F058AE090E09093A205B3
:101A10008093A10582E090E09093A4058093A305B4
:101A200061E08CE00E94EA0661E080919F050E94DF
:101A3000EA0661E08091A1050E94EA0661E08091DA
:101A4000A1050E94BC06D0939E05C0939D05EDE5BF
:101A5000F5E08DE995E011928E179F07E1F7D0E050
:101A6000C0E08091A3059091A405C817D9073CF563
:101A700040E06FE0CE010E9473078091A305909132
:101A8000A405C817D9072CF447E06BE0CE010E94EB
:101A9000730740E069E0CE010E947307CE010E9407
:101AA00066088091A3059091A405C817D9072CF466
:101AB00040E06CE0CE010E9473072196D2CF8FEFF9
:101AC0009FEF909348058093470590934A05809334
:101AD000490590934C0580934B0510924005109258
:101AE0003F05109242051092410510924405109254
:101AF0004305109246051092450510923805109244
:101B0000370510923A051092390510923C05109253
:101B10003B0510923E0510923D05DF91CF9108954F
:101B2000789484B5826084BD84B5816084BD85B5B8
:101B3000826085BD85B5816085BD80916E008160C4
:101B400080936E001092810080918100826080936A
:101B5000810080918100816080938100809180006C
:101B60008160809380008091B10084608093B10097
:101B70008091B00081608093B0008091910082607C
:101B80008093910080919100816080939100809179
:101B900090008160809390008091A100826080938A
:101BA000A1008091A10081608093A1008091A0009C
:101BB00081608093A0008091210182608093210147
:101BC00080912101816080932101809120018160B9
:101BD0008093200180917A00846080937A008091C4
:101BE0007A00826080937A0080917A00816080938D
:101BF0007A0080917A00806880937A001092C10008
:101C000060E087E00E94EA0660E086E00E94EA0663
:101C100060E085E00E94EA0660E084E00E94EA0657
:101C200061E083E00E94EA0660E088E00E94EA0644
:101C3000E091AA04F091AB0482E08083E091A604D5
:101C4000F091A7041082E091A804F091A9048FEC10
:101C500080831092B204E091AE04F091AF0486E06C
:101C60008083E091AC04F091AD0480818061808339
:101C7000E091AC04F091AD04808188608083E091B4
:101C8000AC04F091AD04808180688083E091AC0465
:101C9000F091AD0480818F7D80838091A305909128
:101CA000A4051816190634F441E06CE090E080E0D9
:101CB0000E9473078091A3059091A4051816190638
:101CC00034F448E06AE090E080E00E94730790E01E
:101CD00080E00E9466088091A3059091A405029778
:101CE00034F041E06CE081E090E00E947307809165
:101CF000A3059091A405029734F048E06AE081E0E2
:101D000090E00E94730781E090E00E9466080E94C4
:101D10008B1127E0C22ED12CE12CF12CA7019601CA
:101D20000E94E3116F5F7F4F8F4F9F4F709340056D
:101D300060933F050E948B11A70196010E94E31159
:101D40006F5F7F4F8F4F9F4F7093420560934105A8
:101D50000E948B1124E030E040E050E00E94E3114B
:101D60006F5F7F4F8F4F9F4F709346056093450580
:101D70000E948B1181E090E090934405809343058D
:101D800020913F0530914005309338052093370569
:101D9000209141053091420530933A052093390551
:101DA000209145053091460530933E0520933D0531
:101DB00090933C0580933B050E949D0A10928904F4
:101DC0001091410550914205D0913F057091400519
:101DD000C091430521E0412F6D2F8C2F9091440538
:101DE0000E94D10710930903D0938903C09309047B
:101DF00060910002709101028091020290910302B1
:101E00000E9440070FEF1FEFEE24E394F12C47E010
:101E1000242E312C54E0452E512C63E0662E712C7B
:101E200072E0872E912C88E00E9493069093900494
:101E300080938F04019709F065C088E00E94770ABB
:101E4000672B682B692BD1F460918B0470918C0403
:101E500080918D0490918E046F5F7F4F8F4F9F4FC5
:101E600060938B0470938C0480938D0490938E0404
:101E70000E94DF088AE192E00E948E0880918B0424
:101E800090918C04A0918D04B0918E040397A105CC
:101E9000B105C4F189EB92E00E940B0910928B040A
:101EA00010928C0410928D0410928E0410934A05A7
:101EB00000934905109348050093470510920703C6
:101EC00010920603109242051092410510924005AF
:101ED00010923F05F0924405E09243051092900461
:101EE00010928F0410928A041092050321E050E0B2
:101EF00040E070E060E081E090E00E94D10781E086
:101F00008093990480919904882309F487C187E01C
:101F10000E949306EC01909398048093970486E0C6
:101F20000E9493065C01909396048093950485E04B
:101F30000E9493066C01909394048093930484E030
:101F40000E9493069093920480939104C130D1052E
:101F500009F071C061E083E00E94BC06D0934605A1
:101F6000C0934505809108038111109208034091A8
:101F70004505509146054230510509F452C10CF017
:101F800018C14130510509F438C1409141055091C3
:101F9000420520913F053091400580914305909185
:101FA00044056091490570914A054617570789F421
:101FB00060914705709148056217730751F460916D
:101FC0004B0570914C058617970719F461E06093F3
:101FD0000803E0918904F0E0E75FFC4F608170E066
:101FE00070933A0560933905DF01A058BF4F6C919B
:101FF00070E07093380560933705A058BF4F6C911F
:1020000070E070933C0560933B0569E073E06E17E8
:102010007F0709F42DC1DF016E916083EF01C15884
:10202000DF4F688121966883C158DF4F6881F3953F
:102030006083FD01EACFAB2849F061E083E00E94B4
:10204000BC0690924605809245058CCFCD2849F07C
:1020500061E083E00E94BC067092460560924505EF
:1020600081CF892B49F061E083E00E94BC06509249
:1020700046054092450576CF80918F04909190045B
:10208000019719F588E00E94770A672B682B692B66
:1020900009F068CF60918B0470918C0480918D045D
:1020A00090918E046F5F7F4F8F4F9F4F60938B0493
:1020B00070938C0480938D0490938E040E94DF08AB
:1020C0008AE192E00E948E084DCF60E083E00E949A
:1020D000BC0680918B0490918C04A0918D04B091EA
:1020E0008E0481309105A105B10509F04EC08091A3
:1020F0008A0491E0892780938A04882341F184ED42
:1021000092E00E940B094091490550914A05609167
:1021100047057091480520E080914B0590914C0552
:102120000E94D107C0918904EC2FF0E0E75FFC4FDB
:10213000408150E0DF01A058BF4F6C9170E0F395F3
:10214000808120E090E00E94D107C150EDCF82EE67
:1021500092E00E940B094091490550914A05609117
:1021600047057091480521E080914B0590914C0501
:102170000E94D1070E94000810928B0410928C04D8
:1021800010928D0410928E04EDCE0397A105B10537
:102190000CF4E8CE81EF92E00E940B0910928B04C0
:1021A00010928C0410928D0410928E040E941909D2
:1021B000D9CE8091410590914205209143053091FF
:1021C000440543305105D1F14430510509F0DDCECD
:1021D0000196909342058093410508970CF4D5CE63
:1021E0002130310509F040C010924205109241059E
:1021F0001092440510924305C8CE80913F059091FE
:10220000400501979093400580933F0597FFBDCE11
:102210000E9419090E9400080E949D0A0E94FB0565
:1022200002CE80913F059091400501969093400524
:1022300080933F0508970CF4A8CEEACF01979093BE
:1022400042058093410597FFA0CE2130310501F36F
:10225000232B09F09ACEF0924405E0924305309288
:1022600042052092410591CE232B09F08ECED0CF8E
:10227000409309032093890380930904CBCF8F9265
:102280009F92AF92BF92CF92DF92EF92FF92CF9345
:10229000DF93EC01688179818A819B8161157105E9
:1022A0008105910521F464E279ED8BE597E02DE15C
:1022B00033EF41E050E00E94E31149015A019B01D4
:1022C000AC01A7EAB1E40E9402126B017C01ACEE02
:1022D000B4EFA50194010E941012C60ED71EE81E8D
:1022E000F91EF7FE06C081E0C81AD108E10880E8AF
:1022F000F80AC882D982EA82FB82C701B6019F77B9
:10230000DF91CF91FF90EF90DF90CF90BF90AF9093
:102310009F908F9008958F929F92AF92BF92CF928D
:10232000DF92EF92FF92609104027091050280911A
:10233000060290910702611571058105910521F44E
:1023400064E279ED8BE597E02DE133EF41E050E079
:102350000E94E31149015A019B01AC01A7EAB1E4D3
:102360000E9402126B017C01ACEEB4EFA501940156
:102370000E941012C60ED71EE81EF91EF7FE06C0F8
:1023800081E0C81AD108E10880E8F80AC092040286
:10239000D0920502E0920602F0920702C701B60150
:1023A0009F77FF90EF90DF90CF90BF90AF909F907E
:1023B0008F90089560930402709305028093060243
:1023C000909307020895052E97FB1EF400940E9437
:1023D000FA1157FD07D00E94151207FC03D04EF4E6
:1023E0000C94FA1150954095309521953F4F4F4FE1
:1023F0005F4F089590958095709561957F4F8F4FB1
:102400009F4F08950E943712A59F900DB49F900D85
:10241000A49F800D911D11240895B7FF0C94021202
:102420000E940212821B930B0895A1E21A2EAA1B8E
:10243000BB1BFD010DC0AA1FBB1FEE1FFF1FA21774
:10244000B307E407F50720F0A21BB30BE40BF50B71
:10245000661F771F881F991F1A9469F760957095FA
:10246000809590959B01AC01BD01CF010895A29F7D
:10247000B001B39FC001A39F700D811D1124911D58
:10248000B29F700D811D1124911D089597FB072E99
:1024900016F4009407D077FD09D00E94621207FC61
:1024A00005D03EF4909581959F4F08957095619564
:1024B0007F4F0895EE0FFF1F881F8BBF0790F69187
:1024C000E02D1994AA1BBB1B51E107C0AA1FBB1F1B
:1024D000A617B70710F0A61BB70B881F991F5A95B0
:1024E000A9F780959095BC01CD010895F894FFCF90
:1024F000BC02000001000000000000008E05F8048E
:102500002505DB055605340548050D0A003E3E3E0F
:102510003E3E3E3E70726573696F6E652053544156
:10252000525420706F722033207365672F76656375
:10253000657321207061726120696E6963696172DF
:1025400020656C206A7565676F3C3C3C3C3C3C3CBC
:102550003C2900436F6D696461526F773A00436FA5
:102560006D696461436F6C3A00436F6D6964614DDE
:10257000617472697A3A002D2D2D2D2D2D2D2D2D62
:102580002D2D2D2D2D2D2D2D2D2D2D2D2D2D2D00A8
:102590003E3E3E76656C6F63696461643A003E3E20
:1025A0003E70756E746F733A00696E696369616E2F
:1025B000646F206A7565676F20534E414B452E2E20
:1025C0002E2E2E006D6F646F205041555341204FC9
:1025D0004E006D6F646F205041555341204F464669
:0C25E000006D6F646F20455849540000E6
:10E000000D9489F10D94B2F10D94B2F10D94B2F129
:10E010000D94B2F10D94B2F10D94B2F10D94B2F1F0
:10E020000D94B2F10D94B2F10D94B2F10D94B2F1E0
:10E030000D94B2F10D94B2F10D94B2F10D94B2F1D0
:10E040000D94B2F10D94B2F10D94B2F10D94B2F1C0
:10E050000D94B2F10D94B2F10D94B2F10D94B2F1B0
:10E060000D94B2F10D94B2F10D94B2F10D94B2F1A0
:10E070000D94B2F10D94B2F10D94B2F10D94B2F190
:10E080000D94B2F10D94B2F10D94B2F10D94B2F180
:10E090000D94B2F10D94B2F10D94B2F10D94B2F170
:10E0A0000D94B2F10D94B2F10D94B2F10D94B2F160
:10E0B0000D94B2F10D94B2F10D94B2F10D94B2F150
:10E0C0000D94B2F10D94B2F10D94B2F10D94B2F140
:10E0D0000D94B2F10D94B2F10D94B2F10D94B2F130
:10E0E0000D94B2F141546D656761323536300041AF
:10E0F000726475696E6F206578706C6F72657220DE
:10E1000073746B3530305632206279204D4C530099
:10E11000426F6F746C6F616465723E004875683F52
:10E1200000436F6D70696C6564206F6E203D200048
:10E130004350552054797065202020203D20005FF9
:10E140005F4156525F415243485F5F3D2000415658
:10E1500052204C696243205665723D20004743437C
:10E160002056657273696F6E203D20004350552024
:10E1700049442020202020203D20004C6F7720663D
:10E18000757365202020203D20004869676820665F
:10E190007573652020203D200045787420667573D6
:10E1A00065202020203D20004C6F636B2066757336
:10E1B000652020203D20004D617220203720323024
:10E1C000313300312E362E3800342E332E350056A2
:10E1D00023202020414444522020206F7020636F70
:10E1E00064652020202020696E73747275637469E1
:10E1F0006F6E2061646472202020496E74657272B3
:10E20000757074006E6F20766563746F7200726A49
:10E210006D702020006A6D70200057686174207056
:10E220006F72743A00506F7274206E6F7420737541
:10E2300070706F72746564004D7573742062652030
:10E2400061206C6574746572002000577269747483
:10E25000696E672045450052656164696E672045B7
:10E26000450045452065727220636E743D00504F35
:10E27000525400303D5A65726F2061646472003FF1
:10E280003D43505520737461747300403D454550C3
:10E29000524F4D207465737400423D426C696E6B41
:10E2A000204C454400453D44756D70204545505215
:10E2B0004F4D00463D44756D7020464C415348001B
:10E2C000483D48656C70004C3D4C69737420492F83
:10E2D0004F20506F72747300513D51756974005234
:10E2E0003D44756D702052414D00563D73686F7707
:10E2F00020696E7465727275707420566563746FF0
:10E30000727300593D506F727420626C696E6B00BD
:10E310002A0011241FBECFEFD1E2DEBFCDBF01E046
:10E320000CBF12E0A0E0B2E0EEE1FDEF03E00BBFB6
:10E3300002C007900D92A030B107D9F712E0A0E01B
:10E34000B2E001C01D92AE30B107E1F70F9460F367
:10E350000D948DFE01E20EBF0FEF0DBF11241FBE05
:10E360000D9460F30D9400F020E030E040ED57E0B4
:10E3700005C0FA013197F1F72F5F3F4F2817390792
:10E38000C0F308959C01260F311DC901A0E0B0E043
:10E390002F5F3F4FABBFFC018791882361F08093D3
:10E3A000C6008091C00086FFFCCF8091C0008064D1
:10E3B0008093C000EACF08958DE08093C6008091DD
:10E3C000C00086FFFCCF8091C00080648093C000B5
:10E3D0008AE08093C6008091C00086FFFCCF8091C8
:10E3E000C00080648093C00008950F94C2F10F9420
:10E3F000DCF10895FC019081992359F09093C600B7
:10E400008091C00086FFFCCF8091C0008064809323
:10E41000C0003196992379F70895282F982F929567
:10E420009F70892F805D8A3308F0895F8093C600D2
:10E430008091C00086FFFCCF8091C00080648093F3
:10E44000C000822F8F70982F905D9A3308F0995FEB
:10E450009093C6008091C00086FFFCCF8091C000E1
:10E4600080648093C00008959C01FB01853691056E
:10E470001CF46330710594F0C90164E670E00F94F8
:10E480002EFE605D7F4F6093C6008091C00086FFC6
:10E49000FCCF8091C00080648093C0002B30310598
:10E4A00014F43297B4F0C90164E670E00F942EFEC4
:10E4B0006AE070E00F942EFE605D7F4F6093C600AF
:10E4C0008091C00086FFFCCF8091C0008064809363
:10E4D000C000C9016AE070E00F942EFEC0968093E0
:10E4E000C6008091C00086FFFCCF8091C000806490
:10E4F0008093C00008951F93182F8EE692EE60E07F
:10E500000F94C2F11093C6008091C00086FFFCCF2B
:10E510008091C00080648093C0000F94DCF11F9153
:10E5200008952F923F924F925F926F927F928F92B7
:10E530009F92AF92BF92CF92DF92EF92FF920F9392
:10E540001F93DF93CF93CDB7DEB762970FB6F894E2
:10E55000DEBF0FBECDBF382E622ECA01DB015C01CB
:10E560006D01772420E2222E2E010894411C511CBB
:10E570008BC081E0A81680E0B80681E0C80680E084
:10E58000D80628F0C601AA27BB270F940DF2BB2797
:10E59000AD2D9C2D8B2D0F940DF28A2D0F940DF225
:10E5A0002092C6008091C00086FFFCCF8091C00001
:10E5B00080648093C0009DE29093C6008091C0006B
:10E5C00086FFFCCF8091C00080648093C0002092C1
:10E5D000C6008091C00086FFFCCF8091C00080649F
:10E5E0008093C00019828601750188249924A1E0D6
:10E5F0003A1651F03A1620F0B2E03B1661F409C029
:10E600000BBFF701779007C0C7010F9477FE782EF4
:10E6100002C0F7017080872D0F940DF22092C60082
:10E620008091C00086FFFCCF8091C0008064809301
:10E63000C000872D8052F401EF70F0708F3520F408
:10E64000E40DF51D708204C0E40DF51D8EE280839B
:10E650000894E11CF11C011D111D0894811C911CE2
:10E6600090E18916910409F0C2CF80E190E0A0E02A
:10E67000B0E0A80EB91ECA1EDB1E198AC2010F9493
:10E68000FAF10F94DCF16A94662009F072CF629679
:10E690000FB6F894DEBF0FBECDBFCF91DF911F91B3
:10E6A0000F91FF90EF90DF90CF90BF90AF909F9031
:10E6B0008F907F906F905F904F903F902F90089534
:10E6C0002F923F924F925F926F927F928F929F9282
:10E6D000AF92BF92CF92DF92EF92FF920F931F9370
:10E6E000DF93CF93CDB7DEB7CD53D1400FB6F894BB
:10E6F000DEBF0FBECDBF01E20EBF0FEF0DBF94B75F
:10E70000F894A89514BE80916000886180936000A1
:10E7100010926000789493FF05C0E0910002F091A0
:10E7200001021995279A2F9A8091C00082608093E8
:10E73000C00080E18093C40088E18093C1000000A4
:10E74000EE24FF24870144E0A42EB12CCC24DD2448
:10E7500024C0C5010197F1F70894E11CF11C011DCB
:10E76000111D21E2E2162EE4F20620E0020720E06D
:10E77000120718F031E0C32ED12CC801B70127ECE5
:10E780003BE140E050E00F9441FE611571058105C9
:10E79000910519F485B1805885B98091C00087FD35
:10E7A00003C0C114D104A9F2A6014F5F5F4FC25E3E
:10E7B000DE4F59834883CE51D140C25EDE4F8881FF
:10E7C0009981CE51D140019711F00D9410FEC05D9A
:10E7D000DE4F19821882C053D14060E0C15DDE4F28
:10E7E0001882CF52D14088249924C35DDE4F19820C
:10E7F0001882CD52D140C05EDE4F188219821A8233
:10E800001B82C052D140CE5CDE4F188219821A8220
:10E810001B82C253D140EE24FF2487010BBFF701B6
:10E8200007911691C45CDE4F19830883CC53D14005
:10E830000D940BFEC25EDE4F28813981CE51D1404E
:10E840002130310509F52091C600C25EDE4F1982E4
:10E850001882CE51D14022C02F5F3F4F4F4F5F4FA4
:10E86000213082E138078AE7480780E0580780F0C6
:10E87000C45CDE4FE881F981CC53D140EF5FFF4F9C
:10E8800019F0EE27FF27099420E030E040E050E047
:10E890008091C00087FFE0CF2091C600C35DDE4FAE
:10E8A00048815981CD52D1404F5F5F4FC35DDE4FEC
:10E8B00059834883CD52D140213209F063C64A3092
:10E8C000510508F05FC60894811C911C53E0851621
:10E8D000910409F059C600E010E018C081E280936D
:10E8E000C6008091C00086FFFCCF8091C00080648C
:10E8F0008093C0002F5F3F4F2931310579F70F9486
:10E90000DCF10F5F1F4F0530110519F020E030E0FA
:10E91000E5CF10920A0210920B0210920C02109294
:10E920000D02109206021092070210920802109235
:10E930000902109202021092030210920402109235
:10E9400005028FEE90EE60E00F94F5F180E191EE1C
:10E9500060E00F94C2F18091C00087FFFCCF9091DE
:10E96000C600903608F09F759032B8F09093C600BC
:10E970008091C00086FFFCCF8091C00080648093AE
:10E98000C000A0E2A093C6008091C00086FFFCCF2B
:10E990008091C00080648093C000983409F4D7C18E
:10E9A0009934B8F4923409F459C1933458F490333B
:10E9B00019F1903308F4E3C59F33A1F1903409F0C5
:10E9C000DEC5BDC0953409F470C1963409F0D7C5D1
:10E9D00098C1923509F42BC2933538F49C3409F46C
:10E9E000F5C1913509F0CBC518C2963509F445C279
:10E9F000993509F0C4C567C483E792EE62E00F94CD
:10EA0000F5F110920602109207021092080210927D
:10EA1000090210920A0210920B0210920C0210923C
:10EA20000D0213C18FE792EE62E00F94F5F18FEEC5
:10EA300090EE60E00F94F5F181E291EE60E00F94CA
:10EA4000C2F187EB91EE60E00F94F5F180E391EE77
:10EA500060E00F94C2F184EE90EE60E00F94F5F167
:10EA60008FE391EE60E00F94C2F186E090E061E008
:10EA700070E00F9434F20F94DCF18DE591EE60E0DC
:10EA80000F94C2F189EC91EE60E00F94F5F18EE401
:10EA900091EE60E00F94C2F183EC91EE60E00F9490
:10EAA000F5F18CE691EE60E00F94C2F18EE10F94E7
:10EAB0000DF288E90F940DF281E00F940DF20F949E
:10EAC000DCF18BE791EE60E00F94C2F119E0E0E039
:10EAD000F0E010935700E4918E2F0F940DF20F94F5
:10EAE000DCF18AE891EE60E00F94C2F1E3E0F0E03F
:10EAF00010935700E4918E2F0F940DF20F94DCF1D8
:10EB000089E991EE60E00F94C2F1E2E0F0E0109349
:10EB10005700E4918E2F0F940DF20F94DCF188EAE8
:10EB200091EE60E00F94C2F1E1E0F0E01093570045
:10EB30001491812F0F940DF20F94DCF107CF8BE825
:10EB400092EE62E00F94F5F18BE492EE60E00F94A8
:10EB5000F5F10F94DCF100E010E019C0C8016F2D51
:10EB60000F947FFEFF2031F489E492EE60E00F9471
:10EB7000C2F10BC0F092C6008091C00086FFFCCFAE
:10EB80008091C00080648093C0000F5F1F4FC80158
:10EB900081519F41A0E0B0E0ABBFFC01F790BAE229
:10EBA000FB1621F0E2E000301E07C1F60F94DCF105
:10EBB0000F94DCF187E592EE60E00F94F5F10F948D
:10EBC000DCF1CC24DD2400E010E01EC0C8010F946D
:10EBD00077FEF82E882331F489E492EE60E00F94FA
:10EBE000C2F10BC08093C6008091C00086FFFCCFAD
:10EBF0008091C00080648093C000FE1419F00894D6
:10EC0000C11CD11C0F5F1F4FC80181519F41A0E063
:10EC1000B0E0ABBFFC01E790FAE2EF1621F022E092
:10EC20000030120799F60F94DCF10F94DCF182E6C4
:10EC300092EE60E00F94C2F1C60161E070E00F94C3
:10EC400034F20F94DCF10F94DCF110920202109276
:10EC50000302109204021092050278CE89E992EE26
:10EC600062E00F94F5F1279A2F9A16C02F9880E052
:10EC700090E0E0EDF7E03197F1F7019684369105E9
:10EC8000C1F72F9A80E090E0E0EDF7E03197F1F7DF
:10EC9000019684369105C1F78091C00087FFE6CFC9
:10ECA0008091C00087FFFCCF64C485EA92EE62E0E9
:10ECB0000F94F5F140910202509103026091040219
:10ECC0007091050281E020E10F9491F2809102029F
:10ECD00090910302A0910402B091050280509F4FD1
:10ECE000AF4FBF4F8093020290930302A0930402A0
:10ECF000B093050280509041A040B04008F426CE69
:10ED0000A4CF83EB92EE62E00F94F5F140910602FE
:10ED100050910702609108027091090280E020E1A1
:10ED20000F9491F28091060290910702A09108023F
:10ED3000B091090280509F4FAF4FBF4F80930602A2
:10ED400090930702A0930802B0930902FFCD80ECD4
:10ED500092EE62E00F94F5F183E792EE60E00F949B
:10ED6000F5F18FE792EE60E00F94F5F18BE892EE0B
:10ED700060E00F94F5F189E992EE60E00F94F5F10F
:10ED800085EA92EE60E00F94F5F183EB92EE60E09D
:10ED90000F94F5F180EC92EE60E00F94F5F187ECC2
:10EDA00092EE60E00F94F5F188ED92EE60E00F9442
:10EDB000F5F18FED92EE60E00F94F5F18AEE92EEB0
:10EDC00060E00F94F5F183E093EEBDCD87EC92EE19
:10EDD00062E00F94F5F181E40F947BF282E40F94EA
:10EDE0007BF283E40F947BF284E40F947BF285E45E
:10EDF0000F947BF286E40F947BF287E40F947BF20E
:10EE000088E40F947BF28AE40F947BF28BE40F94F6
:10EE10007BF28CE40F947BF299CD88ED92EE62E068
:10EE20000F94F5F1772473948824992409C48FED05
:10EE300092EE62E00F94F5F140910A0250910B02BC
:10EE400060910C0270910D0282E020E10F9491F22A
:10EE500080910A0290910B02A0910C02B0910D02D8
:10EE600080509F4FAF4FBF4F80930A0290930B0289
:10EE7000A0930C02B0930D0269CD8AEE92EE62E08F
:10EE80000F94F5F184EE90EE60E00F94F5F18FECC5
:10EE900091EE60E00F94F5F1662477244301CC5D98
:10EEA000DE4F19821882C452D140D401C301B695F5
:10EEB000A79597958795CA5DDE4F88839983AA8326
:10EEC000BB83C652D140CC5DDE4FA881B981C4520C
:10EED000D1401196CC5DDE4FB983A883C452D14096
:10EEE000CD0162E070E00F9434F2B0E2B093C6005E
:10EEF0008091C00086FFFCCF8091C0008064809329
:10EF0000C000EDE2E093C6008091C00086FFFCCF18
:10EF10008091C00080648093C000F0E2F093C6004E
:10EF20008091C00086FFFCCF8091C00080648093F8
:10EF3000C000CA5DDE4FE880F9800A811B81C6529D
:10EF4000D140BB27A12F902F8F2D0F940DF2CA5DBA
:10EF5000DE4F8881C652D1400F940DF2B0E2FB2EF5
:10EF6000F092C6008091C00086FFFCCF8091C00067
:10EF700080648093C0000DE30093C6008091C000C0
:10EF800086FFFCCF8091C00080648093C00010E2B7
:10EF90001093C6008091C00086FFFCCF8091C00016
:10EFA00080648093C0008BBEF3012791C65DDE4F65
:10EFB0002883CA52D140A22EBB24CC24DD2408943D
:10EFC000611C711C811C911C8BBEF3018791282E42
:10EFD0003324442455240894611C711C811C911C09
:10EFE0008BBEF3013791C55DDE4F3883CB52D140E4
:10EFF0000894611C711C811C911C8BBEF30147910C
:10F00000C45DDE4F4883CC52D140ADEFEA2EAFEF66
:10F01000FA2EAFEF0A2FAFEF1A2F6E0C7F1C801E57
:10F02000911E142D032DF22CEE24EA0CFB1C0C1D5A
:10F030001D1D0F940DF220E22093C6008091C000A8
:10F0400086FFFCCF8091C00080648093C000C65DC5
:10F05000DE4F8881CA52D1400F940DF230E23093D6
:10F06000C6008091C00086FFFCCF8091C000806404
:10F070008093C000C45DDE4F8881CC52D1400F9494
:10F080000DF240E24093C6008091C00086FFFCCFA5
:10F090008091C00080648093C000C55DDE4F888190
:10F0A000CB52D1400F940DF250E25093C6008091A4
:10F0B000C00086FFFCCF8091C00080648093C000B8
:10F0C0008FEFE8168FEFF80680E0080780E018075A
:10F0D00031F484E092EE60E00F94C2F1DFC0D80119
:10F0E000C7018070907CA070B0708050904CA040A0
:10F0F000B040D1F52FEF3FE340E050E0E222F322B1
:10F1000004231523CA5DDE4FA880B980CA80DB8046
:10F11000C652D140AE0CBF1CC01ED11EAA0CBB1CD7
:10F12000CC1CDD1C8EE092EE60E00F94C2F1BB2798
:10F13000A12F902F8F2D0F940DF28E2D0F940DF285
:10F1400030E23093C6008091C00086FFFCCF8091F2
:10F15000C00080648093C0004EE34093C60080915D
:10F16000C00086FFFCCF87C08EE09EEFA0E0B0E03D
:10F17000E822F9220A231B239CE0E91694E9F90608
:10F1800090E0090790E0190709F088C0C45DDE4FE0
:10F19000A881CC52D140EA2EFF2400E010E0102FCD
:10F1A0000F2DFE2CEE24C55DDE4FB881CB52D14031
:10F1B000EB0EF11C011D111DD601C501817090706F
:10F1C000A070B070DC0199278827E80EF91E0A1F8D
:10F1D0001B1F20EF30E040E050E0A222B322C42207
:10F1E000D52241E1AA0CBB1CCC1CDD1C4A95D1F7F1
:10F1F000EA0CFB1C0C1D1D1D81E090E0A0E0B0E0BE
:10F20000282239224A225B2235E1220C331C441C7D
:10F21000551C3A95D1F7E20CF31C041D151D57013E
:10F220006801AA0CBB1CCC1CDD1C85E192EE60E0E1
:10F230000F94C2F1C801AA27BB270F940DF2BB2778
:10F24000A12F902F8F2D0F940DF28E2D0F940DF274
:10F2500090E29093C6008091C00086FFFCCF809121
:10F26000C00080648093C000AEE3A093C60080918C
:10F27000C00086FFFCCF8091C00080648093C000F6
:10F28000C601AA27BB270F940DF2BB27AD2D9C2DDD
:10F290008B2D0F940DF28A2D0F940DF20F94DCF14B
:10F2A000CC5DDE4FE881F981C452D140F99709F471
:10F2B0004DCBF4E0EF2EF12C012D112D6E0C7F1CA7
:10F2C000801E911EF2CD83E093EE62E00F94F5F183
:10F2D0008AE192EE60E00F94C2F18091C00087FF56
:10F2E000FCCF1091C6001F751093C6008091C0001E
:10F2F00086FFFCCF8091C00080648093C0000F9493
:10F30000DCF1812F81548A3108F036C1163409F4BA
:10F3100095C0173490F4133409F44EC0143430F40B
:10F320001134F1F0123409F01DC130C0143409F465
:10F3300059C0153409F016C16BC01A3409F4C4C0A1
:10F340001B3438F4173409F48FC0183409F00AC19B
:10F35000A1C01B3409F4D2C01C3409F003C1E8C0B9
:10F360008FEF81B90DC082B1809582B980E090E0C5
:10F37000E0EDF7E03197F1F70196883C9105C1F790
:10F380008091C00087FFEFCF12B8EFC08FEF84B934
:10F390000DC085B1809585B980E090E0E0EDF7E0A3
:10F3A0003197F1F70196883C9105C1F78091C00033
:10F3B00087FFEFCF15B8D9C08FEF87B90DC088B1DF
:10F3C000809588B980E090E0E0EDF7E03197F1F7C3
:10F3D0000196883C9105C1F78091C00087FFEFCF6F
:10F3E00018B8C3C08FEF8AB90DC08BB180958BB9A7
:10F3F00080E090E0E0EDF7E03197F1F70196883C8E
:10F400009105C1F78091C00087FFEFCF1BB8ADC059
:10F410008FEF8DB90DC08EB180958EB980E090E0F0
:10F42000E0EDF7E03197F1F70196883C9105C1F7DF
:10F430008091C00087FFEFCF1EB897C08FEF80BBD1
:10F440000DC081B3809581BB80E090E0E0EDF7E0F6
:10F450003197F1F70196883C9105C1F78091C00082
:10F4600087FFEFCF11BA81C08FEF83BB0DC084B38C
:10F47000809584BB80E090E0E0EDF7E03197F1F714
:10F480000196883C9105C1F78091C00087FFEFCFBE
:10F4900014BA6BC08FEF809301010FC080910201FD
:10F4A00080958093020180E090E0E0EDF7E03197F5
:10F4B000F1F70196883C9105C1F78091C00087FF64
:10F4C000EDCF1092020151C08FEF809304010FC065
:10F4D0008091050180958093050180E090E0E0ED4A
:10F4E000F7E03197F1F70196883C9105C1F78091DB
:10F4F000C00087FFEDCF1092050137C08FEF8093DA
:10F5000007010FC08091080180958093080180E079
:10F5100090E0E0EDF7E03197F1F70196883C910536
:10F52000C1F78091C00087FFEDCF109208011DC088
:10F530008FEF80930A010FC080910B01809580931B
:10F540000B0180E090E0E0EDF7E03197F1F70196F4
:10F55000883C9105C1F78091C00087FFEDCF1092E4
:10F560000B0103C085E292EEEEC98091C00087FFD7
:10F57000FCCF8091C600EAC988E392EEE4C98CE131
:10F5800091EEE1C988249924933011F1943028F444
:10F59000913089F09230B8F408C0953061F195301F
:10F5A000F0F0963009F048C043C02B3109F042C951
:10F5B00091E06BE13FC96227C15DDE4F2883CF52E6
:10F5C000D14092E037C9B22FA0E0622793E032C960
:10F5D000822F90E0A82BB92B622794E02BC92E3004
:10F5E00009F039C3622795E0C05DDE4F19821882A9
:10F5F000C053D1401FC9E1E0F0E0EC0FFD1FC05D3A
:10F60000DE4F08811981C053D140E00FF11F2083E4
:10F610000F5F1F4FC05DDE4F19830883C053D14079
:10F6200062270A171B0709F005C9D80196E002C92D
:10F63000261709F010C303C0973009F0FBC87724E0
:10F640009981933109F412C19431C8F4963009F4C8
:10F65000D8C0973050F4923009F406C1933009F4C1
:10F660006DC0913009F059C253C0913109F477C08F
:10F67000923108F0BBC0903109F04FC2F5C098310B
:10F6800009F487C0993150F4953109F4EFC09531F0
:10F6900008F4C6C1963109F040C2C2C19A3109F4DA
:10F6A0006CC09A3108F491C09B3109F45BC09D3164
:10F6B00009F033C29D81903359F48F81882311F46E
:10F6C0009EE11CC0813011F091E018C098E916C08D
:10F6D000892F807591F0903539F4E0E0F0E089E011
:10F6E0008093570094910AC0983539F4E3E0F0E034
:10F6F00089E080935700949101C090E01A821B82A8
:10F700008D818C831D829E831F8227E030E009C299
:10F710001A8288E08B8381E48C8386E58D8382E581
:10F720008E8389E48F8383E5888780E589878FE5E9
:10F730008A8782E38B872BE030E0F3C18A818139AD
:10F7400041F0823941F0803911F48FE005C080E04A
:10F7500003C082E001C08AE01A828B8344C0772410
:10F76000739482C08D81882311F48EE12CC0813086
:10F7700011F081E028C088E926C01A82E1E0F0E0BB
:10F7800089E08093570084918B831C8224E030E0D1
:10F79000C8C18B81803589F48C81883039F4E2E0EE
:10F7A000F0E089E08093570084910DC0E0E0F0E044
:10F7B00089E080935700849106C0E3E0F0E089E09F
:10F7C0008093570084911A82DFCF8D81836C99E0FA
:10F7D000E1E0F0E0082E90935700E89507B600FCB2
:10F7E000FDCF1A821B8223E030E09BC180EC8A832C
:10F7F000CE5CDE4F188219821A821B82C253D1401E
:10F800008EC18A8190E0A0E0B0E0582F44273327D2
:10F8100022278B8190E0A0E0B0E0DC0199278827C7
:10F82000282B392B4A2B5B2B8D8190E0A0E0B0E098
:10F83000282B392B4A2B5B2B8C8190E0A0E0B0E089
:10F84000BA2FA92F982F8827282B392B4A2B5B2BCF
:10F85000220F331F441F551FC05EDE4F288339839C
:10F860004A835B83C052D1401A8259C13A81C95C34
:10F87000DE4F3883C753D140CA5CDE4F1882C6536F
:10F88000D1408B81C82EDD24CA5CDE4F488159816E
:10F89000C653D140C42AD52A933109F082C0CE5C28
:10F8A000DE4F88819981AA81BB81C253D1408050AB
:10F8B000904CA340B04030F583E0CE5CDE4FE88052
:10F8C000F9800A811B81C253D140F70100935B008C
:10F8D00080935700E89507B600FCFDCFCE5CDE4F65
:10F8E000088119812A813B81C253D14000501F4FAA
:10F8F0002F4F3F4FCE5CDE4F088319832A833B8313
:10F90000C253D140C05EDE4F488159816A817B81FC
:10F91000C052D140DE011B9631E08C9111962C91A2
:10F9200011971296C75CDE4F2883C953D140C85C3B
:10F93000DE4F1882C853D14090E0C85CDE4FE881AA
:10F94000F981C853D1408E2B9F2B0C01FA01609393
:10F950005B0030935700E89511244E5F5F4F6F4F67
:10F960007F4F0EEFE02E0FEFF02ECE0CDF1CC114F8
:10F97000D10499F685E0C05EDE4F088119812A81A5
:10F980003B81C052D140F80120935B008093570027
:10F99000E89507B600FCFDCF81E180935700E8951C
:10F9A00035C0C05EDE4F88819981AA81BB81C0527B
:10F9B000D140B695A795979587957C018601ABE0D8
:10F9C000AA2EB12CAC0EBD1E0BC0D5016D915D01F0
:10F9D000C7010F947FFE0894E11CF11C01501040F8
:10F9E0000115110591F7A60160E070E0440F551F65
:10F9F000661F771FC05EDE4FE880F9800A811B8199
:10FA0000C052D1404E0D5F1D601F711F1A82C05E33
:10FA1000DE4F488359836A837B83C052D1407FC0C5
:10FA2000FA80C55CDE4FF882CB53D140C65CDE4F16
:10FA30001882CA53D1408B81C82EDD24C65CDE4FAC
:10FA400008811981CA53D140C02AD12A1A828981DA
:10FA5000BE016D5F7F4F843121F59601C05EDE4FA0
:10FA6000E880F9800A811B81C052D1400BBFF701A9
:10FA700087919691DB018C9311969C936E5F7F4FDB
:10FA8000D801C7010296A11DB11DC05EDE4F88835B
:10FA90009983AA83BB83C052D14022503040F1F6F3
:10FAA00036C0C05EDE4F288139814A815B81C052F9
:10FAB000D1400894C108D108760100E010E0089414
:10FAC000C11CD11C0894E11CF11C011D111DE20E8A
:10FAD000F31E041F151F21BDBB27A52F942F832FB5
:10FAE00082BD2F5F3F4F4F4F5F4FF89A80B5DB01CC
:10FAF0008D93BD012E153F054007510761F7C05E8C
:10FB0000DE4F288339834A835B83C052D1409601FC
:10FB10002D5F3F4FFB01108204C080EC8A8322E0FE
:10FB200030E08BE18093C6008091C00086FFFCCF5F
:10FB30008091C00080648093C000C15DDE4FF88179
:10FB4000CF52D140F093C6008091C00086FFFCCF19
:10FB50008091C00080648093C000432F3093C60022
:10FB60008091C00086FFFCCF8091C00080648093AC
:10FB7000C000922F2093C6008091C00086FFFCCF6A
:10FB80008091C00080648093C0008EE08093C600A6
:10FB90008091C00086FFFCCF8091C000806480937C
:10FBA000C00065E1C15DDE4FE880CF52D1406E25D7
:10FBB00069276427FE01319610C090819093C6009A
:10FBC0008091C00086FFFCCF31968091C000806498
:10FBD0008093C0006927215030402115310569F715
:10FBE0006093C6008091C00086FFFCCF8091C0006A
:10FBF00080648093C00085B1805885B9772081F4F6
:10FC0000C15DDE4F0881CF52D1400F5FC15DDE4F35
:10FC10000883CF52D14090E0A0E0B0E00D941AF4F8
:10FC200027982F9880E090E020ED37E0F901319798
:10FC3000F1F7019684369105C9F700008091C00064
:10FC40008D7F8093C00081E180935700E895EE2777
:10FC5000FF270994FFCF90E00D941AF497FB092E2B
:10FC600007260AD077FD04D02ED006D000201AF443
:10FC7000709561957F4F0895F6F7909581959F4F08
:10FC80000895A1E21A2EAA1BBB1BFD010DC0AA1FDD
:10FC9000BB1FEE1FFF1FA217B307E407F50720F0F5
:10FCA000A21BB30BE40BF50B661F771F881F991F70
:10FCB0001A9469F760957095809590959B01AC01B9
:10FCC000BD01CF010895AA1BBB1B51E107C0AA1FAC
:10FCD000BB1FA617B70710F0A61BB70B881F991FED
:10FCE0005A95A9F780959095BC01CD010895F99991
:10FCF000FECF92BD81BDF89A992780B50895262F31
:10FD0000F999FECF1FBA92BD81BD20BD0FB6F89400
:0EFD1000FA9AF99A0FBE01960895F894FFCF63
:00000001FF
