:100000000C9439010C946A010C946A010C946A01F5
:100010000C946A010C946A010C946A010C946A01B4
:100020000C946A010C946A010C946A010C946A01A4
:100030000C946A010C946A010C946A010C946A0194
:100040000C946A010C946A010C946A010C946A0184
:100050000C946A010C946A010C946A010C942806B1
:100060000C946A010C94F2050C94C8050C946A0176
:100070000C946A010C946A010C946A010C946A0154
:100080000C946A010C946A010C946A010C946A0144
:100090000C946A010C946A010C946A010C946A0134
:1000A0000C946A010C946A010C946A010C946A0124
:1000B0000C946A010C946A010C946A010C946A0114
:1000C0000C946A010C946A010C946A010C946A0104
:1000D0000C946A010C946A010C946A010C946A01F4
:1000E0000C946A010C94F2020C94E4020C94CD027C
:1000F0000C94FA020C94E8020C94EC020C94720634
:100100000C946D010C94FF020C94D1020C94A90183
:100110000C94F6020C9404030C94BD010C94CB01D6
:100120000C9450020C94C6050C946C010C94BF0204
:100130000C94D4020C949A010C94DE020C940302E9
:100140000C94C5020C94C9020C94DA020C940003BE
:1001500000002100240027002A002D003000330079
:1001600001010000040107010A010000220025002E
:1001700028002B002E003100340002010000050190
:1001800008010B01000020002300260029002C009C
:100190002F003200000100000301060109010505DE
:1001A0000505070508080808020202020A0A0808ED
:1001B000040404040101010101010101030303031B
:1001C00003030303040707070C0C0C0C0C0C0C0CAA
:1001D0000202020206060606060606060B0B0B0BBB
:1001E0000B0B0B0B010210202008081020401020E0
:1001F00040800201020108040201010204081020EB
:1002000040808040201008040201800402018040E8
:100210002010080402010804020101020408102051
:100220004080010204081020408000000A0B0209EF
:100230000C0D0E0807030401000000000000000080
:1002400000000000000000000000000000000000AE
:10025000000000000000121110000000000000006B
:10026000000000000000000000000000000000008E
:10027000720611241FBECFEFD1E2DEBFCDBF00E07A
:100280000CBF12E0A0E0B2E0E4E9FBE100E00BBF4C
:1002900002C007900D92A83AB107D9F724E0A8EA66
:1002A000B2E001C01D92A93EB207E1F711E0C9E337
:1002B000D1E000E006C021970109802FFE010E94D5
:1002C0009B0CC833D10780E00807A9F70E947C0780
:1002D0000C94C80D0C9400000895AF92BF92CF9279
:1002E000DF92EF92FF920F931F93CF93DF936C01F6
:1002F0007B018B01040F151FEB015E01AE18BF08D7
:10030000C017D10759F06991D601ED91FC91019088
:10031000F081E02DC6011995892B79F7C501DF9190
:10032000CF911F910F91FF90EF90DF90CF90BF90F2
:10033000AF900895FC01538D448D252F30E0842F1C
:1003400090E0821B930B541710F0CF9608950197FD
:100350000895FC01918D828D981761F0A28DAE0FEA
:10036000BF2FB11D5D968C91928D9F5F9F73928F71
:1003700090E008958FEF9FEF0895FC01918D828D9D
:10038000981731F0828DE80FF11D858D90E008956A
:100390008FEF9FEF0895FC01918D228D892F90E0C2
:1003A000805C9F4F821B91098F739927089584EC7D
:1003B00093E00E94CB0121E0892B09F420E0822FF9
:1003C0000895FC01A48DA80FB92FB11DA35ABF4FEA
:1003D0002C91848D90E001968F739927848FA68944
:1003E000B7892C93A089B1898C91837080648C9398
:1003F000938D848D981306C00288F389E02D808147
:100400008F7D80830895EF92FF920F931F93CF9378
:10041000DF93EC0181E0888F9B8D8C8D98131AC03F
:10042000E889F989808185FF15C09FB7F894EE8926
:10043000FF896083E889F989808183708064808383
:100440009FBF81E090E0DF91CF911F910F91FF90CE
:10045000EF900895F62E0B8D10E00F5F1F4F0F7376
:100460001127E02E8C8D8E110CC00FB607FCFACF31
:10047000E889F989808185FFF5CFCE010E94E101ED
:10048000F1CFEB8DEC0FFD2FF11DE35AFF4FF08202
:100490009FB7F8940B8FEA89FB8980818062CFCF68
:1004A000CF93DF93EC01888D8823B9F0AA89BB89AB
:1004B000E889F9898C9185FD03C0808186FD0DC096
:1004C0000FB607FCF7CF8C9185FFF2CF808185FFB7
:1004D000EDCFCE010E94E101E9CFDF91CF910895E8
:1004E00080E090E0892B29F00E94D70181110E94C1
:1004F000000080E090E0892B49F080E090E0892BBB
:1005000029F00E94000081110E94000080E090E02C
:10051000892B49F080E090E0892B29F00E940000AF
:1005200081110E94000080E090E0892B49F080E07A
:1005300090E0892B29F00E94000081110C940000AA
:1005400008958150823108F05AC0E82FF0E08827E2
:10055000E355FD4F8F4F0C949B0CCD02D102BF028F
:10056000C502C902FF02D402DA02DE02E402E80296
:10057000EC02F202F602FF02FA0200030403809189
:1005800080008F77809380000895809180008F7D18
:10059000F9CF80918000877FF5CF84B58F7784BDB8
:1005A000089584B58F7DFBCF8091B0008F778093C5
:1005B000B00008958091B0008F7DF9CF80919000B8
:1005C0008F77809390000895809190008F7DF9CF70
:1005D00080919000877FF5CF8091A0008F778093E6
:1005E000A00008958091A0008F7DF9CF8091A00098
:1005F000877FF5CF809120018F7780932001089528
:10060000809120018F7DF9CF80912001877FF5CFE8
:10061000CF93DF93282F30E0F901E65DFD4F849101
:10062000F901EC51FE4FD491F901E256FE4FC4910D
:10063000CC23A1F081110E94A102EC2FF0E0EE0F7B
:10064000FF1FEC57FE4FA591B491EC91ED2381E093
:1006500090E009F480E0DF91CF91089580E090E090
:10066000FACF1F93CF93DF93282F30E0F901E65D97
:10067000FD4F8491F901EC51FE4FD491F901E256FE
:10068000FE4FC491CC23A9F0162F81110E94A10224
:10069000EC2FF0E0EE0FFF1FE659FE4FA591B4914D
:1006A0008FB7F894EC91111108C0D095DE23DC933C
:1006B0008FBFDF91CF911F910895DE2BF8CFCF939D
:1006C000DF9390E0FC01EC51FE4F249182569E4F47
:1006D000FC0184918823D1F090E0880F991FFC01E0
:1006E000E05BFE4FA591B491FC01E659FE4FC59128
:1006F000D49161110EC09FB7F8948C91E22FE095D0
:100700008E238C932881E223E8839FBFDF91CF91D2
:1007100008958FB7F894EC91E22BEC938FBFF6CF4E
:100720003FB7F8948091AF029091B002A091B102CE
:10073000B091B20226B5A89B05C02F3F19F00196D3
:10074000A11DB11D3FBFBA2FA92F982F8827BC012B
:10075000CD01620F711D811D911D42E0660F771F53
:10076000881F991F4A95D1F708958F929F92AF9253
:10077000BF92CF92DF92EF92FF926B017C010E94B9
:1007800090034B015C01C114D104E104F104B9F000
:100790000E949003681979098A099B09683E734091
:1007A0008105910580F321E0C21AD108E108F10822
:1007B00088EE880E83E0981EA11CB11CE4CFFF9048
:1007C000EF90DF90CF90BF90AF909F908F90089563
:1007D000CF92DF92EF92FF920F931F93CF93DF930D
:1007E0001F921F92CDB7DEB769834A83880F991F86
:1007F0000091E3041091E404000F111FEDE8F4E010
:100800009F012D5834402017310714F41192F8CF6E
:100810002981FC01E357FB4F21838A81808360E0BB
:100820008091E1040E9431031016110604F5015075
:100830001109F801E357FB4FE080D090DF04C0902E
:10084000DD0488E0F82E6E2D661F6627661F8C2D4E
:100850000E943103EE0C61E08D2D0E94310360E0B7
:100860008D2D0E943103FA94F110EDCFDDCF61E0C0
:100870008091E1040F900F90DF91CF911F910F9124
:10088000FF90EF90DF90CF900C94310397FD2CC038
:10089000E091E304F091E4048E179F072CF5683093
:1008A000710510F548305105F8F4E0E8F0E0DF019B
:1008B00002C0B595A7954A95E2F7AD01FC0133E07A
:1008C000EE0FFF1F3A95E1F7E60FF71FE357FB4FD7
:1008D0003089222331F0432B408B6F5F40890C9489
:1008E000E80340954323F8CF0895EF92FF920F93CA
:1008F0001F93CF937C018C0183E0000F111F8A9519
:10090000E1F703561B4FC1E0F80111928F0140E05F
:100910006C2FC7010E94E803CF5FC930A9F7CF91C0
:100920001F910F91FF90EF900895FC01019000201E
:10093000E9F73197AF01481B590BBC0184EC93E0F8
:100940000C946D01CF93DF930E949504EC0184E237
:1009500092E00E9495048C0F9D1FDF91CF91089526
:100960008F929F92AF92BF92CF92DF92EF92FF92BF
:100970000F931F93CF93DF93CDB7DEB7A1970FB639
:10098000F894DEBF0FBECDBF6C01990FEE08FF08D3
:10099000F7FE47C06DE284EC93E00E9403028C01F5
:1009A00022273327A9012C193D094E095F0919A2F5
:1009B000CE0181967C019AE0892E912CA12CB12C3C
:1009C000CA01B901A50194010E946A0C605DF7019A
:1009D00062937F01211531054105510589F790E0AA
:1009E00080E0309719F0CF010E949504080F191F7D
:1009F00084E292E00E949504800F911FA1960FB6A9
:100A0000F894DEBF0FBECDBFDF91CF911F910F9144
:100A1000FF90EF90DF90CF90BF90AF909F908F901E
:100A20000895A701960119A28E010F5D1F4F8AE05C
:100A3000C82ED12CE12CF12CCA01B901A7019601D5
:100A40000E946A0C605DF80162938F0121153105E7
:100A50004105510589F7309729F0CF010E9495048F
:100A60008C01C6CF10E000E0C3CFEF92FF920F934E
:100A70001F93CF93DF9364E670E080E090E00E94E4
:100A8000B503E0906304F090640400916104109158
:100A90006204C0916504D091660421E0A701B80109
:100AA000CE010E9446040F3F100739F08FEFE81681
:100AB000F80619F0CF3FDC07D1F50E94E00B26E0E5
:100AC00030E040E050E00E94380C6F5F7F4F8F4F66
:100AD0009F4F70936404609363040E94E00B28E0CE
:100AE00030E040E050E00E94380C70936204609364
:100AF00061040E94E00B22E030E040E050E00E9400
:100B0000380CCB01709366046093650440916304D4
:100B100050916404609161047091620421E0DF915E
:100B2000CF911F910F91FF90EF900C94460480910C
:100B30007C0490917D04E816F90609F580917E0405
:100B400090917F0408171907D1F48091880490913F
:100B50008904C817D90799F48FEF9FEF9093640425
:100B60008093630490936204809361048091A8024F
:100B70009091A90201969093A9028093A802DF9117
:100B8000CF911F910F91FF90EF9008950C943F0D1E
:100B90001F920F920FB60F9211240BB60F922F9344
:100BA0003F934F935F936F937F938F939F93AF93F5
:100BB000BF93EF93FF9384EC93E00E94E101FF91D8
:100BC000EF91BF91AF919F918F917F916F915F91C5
:100BD0004F913F912F910F900BBE0F900FBE0F9032
:100BE0001F9018951F920F920FB60F9211240BB6FB
:100BF0000F922F938F939F93EF93FF93E091D403E2
:100C0000F091D5038081E091DA03F091DB0382FD5E
:100C10001DC090818091DD038F5F8F732091DE0373
:100C2000821741F0E091DD03F0E0EC53FC4F958F2B
:100C30008093DD03FF91EF919F918F912F910F9002
:100C40000BBE0F900FBE0F901F9018958081F2CFB2
:100C50001F920F920FB60F9211242F933F938F93F1
:100C60009F93AF93BF938091AB029091AC02A09100
:100C7000AD02B091AE023091AA0223E0230F2D37CE
:100C800058F50196A11DB11D2093AA028093AB02D5
:100C90009093AC02A093AD02B093AE028091AF02EC
:100CA0009091B002A091B102B091B2020196A11D43
:100CB000B11D8093AF029093B002A093B102B093A4
:100CC000B202BF91AF919F918F913F912F910F9061
:100CD0000FBE0F901F90189526E8230F0296A11DB6
:100CE000B11DD2CFCF93DF931092C7031092C603EA
:100CF00088EE93E0A0E0B0E08093C8039093C9032E
:100D0000A093CA03B093CB038EE092E09093C50307
:100D10008093C40385EC90E09093D1038093D0033B
:100D200084EC90E09093D3038093D20380EC90E026
:100D30009093D5038093D40381EC90E09093D703F4
:100D40008093D60382EC90E09093D9038093D803EC
:100D500086EC90E09093DB038093DA031092DD033E
:100D60001092DE031092DF031092E003CCE0D0E09B
:100D7000D093DE04C093DD048BE090E09093E00418
:100D80008093DF048AE090E09093E2048093E10492
:100D900082E090E09093E4048093E30461E08CE0CF
:100DA0000E945F0361E08091DF040E945F0361E0C5
:100DB0008091E1040E945F0361E08091E1040E9460
:100DC0003103D093DE04C093DD04EDE9F4E0119229
:100DD00084E0ED3DF807D9F7D0E0C0E08091E3046E
:100DE0009091E404C817D90774F540E06FE0CE0194
:100DF0000E94E8038091E3049091E404C817D907A6
:100E00002CF447E06BE0CE010E94E80340E069E08B
:100E1000CE010E94E8038091E3049091E404C81796
:100E2000D9071CF4CE010E9475048091E3049091CF
:100E3000E404C817D9072CF440E06CE0CE010E940E
:100E4000E8032196CBCF20E232E030937B0420935D
:100E50007A0410927D0410927C0410927F04109208
:100E60007E0484E090E0909381048093800410924B
:100E700089041092880410928B0410928A041092B4
:100E80008C041092850410928404109287041092AE
:100E90008604309368042093670410926A041092C9
:100EA000690410926C0410926B0490936E0480930A
:100EB0006D041092760410927504109278041092CA
:100EC00077041092790410927204109271041092B7
:100ED0007404109273048FEF9FEF909362048093D9
:100EE00061049093640480936304909366048093F8
:100EF0006504DF91CF910895CF93DF93CDB7DEB72F
:100F0000A6970FB6F894DEBF0FBECDBF789484B518
:100F1000826084BD84B5816084BD85B5826085BDF5
:100F200085B5816085BD80916E00816080936E0083
:100F30001092810080918100826080938100809175
:100F40008100816080938100809180008160809326
:100F500080008091B10084608093B1008091B000E6
:100F600081608093B00080919100826080939100B5
:100F700080919100816080939100809190008160C8
:100F8000809390008091A10082608093A100809165
:100F9000A10081608093A1008091A0008160809376
:100FA000A000809121018260809321018091210124
:100FB00081608093210180912001816080932001D4
:100FC00080917A00846080937A0080917A008260B8
:100FD00080937A0080917A00816080937A0080917A
:100FE0007A00806880937A001092C10060E087E008
:100FF0000E945F0360E086E00E945F0360E085E09E
:101000000E945F0360E084E00E945F0361E083E090
:101010000E945F03E091D403F091D50382E08083C6
:10102000E091D003F091D1031082E091D203F091CE
:10103000D3038FEC80831092DC03E091D803F0910E
:10104000D90386E08083E091D603F091D7038081B5
:1010500080618083E091D603F091D703808188601E
:101060008083E091D603F091D703808180688083EC
:10107000E091D603F091D70380818F7D80838091AA
:10108000E3049091E4041816190634F441E06CE08E
:1010900090E080E00E94E8038091E3049091E404F2
:1010A0001816190634F448E06AE090E080E00E94E7
:1010B000E8038091E3049091E4041816190624F4DF
:1010C00090E080E00E9475048091E3049091E40434
:1010D000029734F041E06CE081E090E00E94E80388
:1010E0008091E3049091E404029734F048E06AE0D0
:1010F00081E090E00E94E8038091E3049091E40491
:10110000029724F081E090E00E9475040E94E00BB9
:1011100047E0C42ED12CE12CF12CA70196010E94AE
:10112000380C6F5F7F4F8F4F9F4F70937D0460939C
:101130007C040E94E00BA70196010E94380C6F5FAF
:101140007F4F8F4F9F4F70937F0460937E040E9468
:10115000E00B22E030E040E050E00E94380C709359
:101160008904609388040E94E00B24E030E040E0B2
:1011700050E00E94380C6F5F7F4F8F4F9F4F7093EE
:1011800081046093800480917C0490917D0490930D
:1011900085048093840480917E0490917F049093D1
:1011A00087048093860480918804909189049093A9
:1011B0008B0480938A0481E080938C0481E090E02A
:1011C00090938304809382040E94350540917C04AF
:1011D00050917D0460917E0470917F0421E08091A4
:1011E0008804909189040E9446048AE794E09093D1
:1011F000B4028093B30287E694E09093B6028093A2
:10120000B5026CEB72E080E090E00E94B50304E070
:1012100010E057E0652E712C60E2C62E62E0D62EFB
:101220001E0124E1220E311CCE0101962C0187E023
:101230000E9408037C019093C3038093C20386E05D
:101240000E9408034C019093C1038093C00385E082
:101250000E9408035C019093BF038093BE0384E067
:101260000E9408039093BD038093BC03A1E0EA169B
:10127000F10409F011C161E083E00E943103F092B2
:101280008104E092800480917C0490917D042091FF
:101290008004309181042230310509F479C10CF0C9
:1012A00025C12130310509F458C180917C04909109
:1012B0007D04209163043091640482179307C9F47C
:1012C00040917E0450917F0420916104309162042A
:1012D0004217530771F4409188045091890420917A
:1012E0006504309166044217530719F421E02093F6
:1012F000B5030E94B00480917E0490917F040E9407
:10130000B00480918404909185040E94B00480917F
:101310008604909187040E94B0048FE592E00E94B9
:10132000A20423EBA22E22E0B22EEE24E394F12CB1
:10133000D5011296ED91FC9113976D917D915D0110
:101340008289882309F467C1828193819387828788
:10135000848195819587848786859785918B808BFD
:10136000DB011A968D919C911B97938382831C9627
:101370008D919C911D979583848350968D919C911E
:101380009787868787E292E00E94A204D501ED91BB
:10139000FC91808991890E94B00483E392E00E94CD
:1013A000A204D501ED91FC91848595850E94B0043D
:1013B00086E492E00E94A204D501ED91FC91828521
:1013C00093850E94B00489E592E00E94A20489E519
:1013D00092E00E94A20480E792E00E94A204D5015C
:1013E000ED91FC91868597850E94B00488E792E094
:1013F0000E94A204D501ED91FC91848195810E9407
:10140000B00488E892E00E94A204D501ED91FC911D
:10141000828193810E94B00489E592E00E94A20437
:1014200089E592E00E94A204BFEFEB1AFB0AE1E813
:10143000EE16F10409F07CCF40917C0450917D04BC
:1014400060917E0470917F0421E0809188049091E6
:1014500089040E944604809182049091830401973C
:1014600009F05AC14091BA035091BB036091B8038F
:101470007091B90320E08091B6039091B7030E9468
:1014800046046CEB72E080E090E00E94B5030E949D
:1014900035050E947002CBCE892859F061E083E0C7
:1014A0000E943103E2E0F0E0F0938104E0938004D5
:1014B000EACEAB2859F061E083E00E94310383E07B
:1014C00090E09093810480938004DDCE892B49F0D5
:1014D00061E083E00E943103109381040093800453
:1014E000D2CE60E083E00E943103CDCE23303105BF
:1014F00009F459C02430310509F0D7CE9093850402
:101500008093840420917E0430917F04309387047B
:1015100020938604019690937D0480937C0420910F
:1015200088043091890408970CF470C021153105A6
:1015300009F068C0A1E0B0E0B0938904A0938804EA
:1015400010928B0410928A04709285046092840435
:1015500010927D0410927C04A8CE20917E043091DC
:101560007F043093870420938604215031093093FF
:101570007F0420937E04909385048093840480915B
:1015800088049091890490938B0480938A048DCE73
:1015900020917E0430917F04309387042093860449
:1015A0002F5F3F4FE4CF9093850480938404209174
:1015B0007E0430917F043093870420938604019742
:1015C00090937D0480937C04209188043091890459
:1015D00097FF1CC02115310509F467CE2130310574
:1015E000A9F4109289041092880430938B042093FC
:1015F0008A04109285041092840470927D04609293
:101600007C0453CE2130310509F44FCE30938B0446
:1016100020938A044ACEDB011A964D915C911B9768
:101620005093BB034093BA031C962D913C911D9798
:101630003093B9032093B80350968D919C91909369
:10164000B7038093B6036091B503662309F4F4CE23
:10165000DD8ACC8A1B8F0A8FDA82C9821C821B82A8
:101660001E821D8218870F83188A1F861A8A198A7C
:101670001B8A1C861B861E861D8661E06EA35F8BFF
:101680004E8B398F288F9BA38AA35F8F4E8F39A3F0
:1016900028A39DA38CA388E992E00E94A2048091D4
:1016A000BA039091BB030E94B0048091B80390915B
:1016B000B9030E94B0048FE592E00E94A204570192
:1016C000AA0CBB1CF501ED54FD4F80819181009760
:1016D00039F0DC01ED91FC910280F381E02D199548
:1016E000F501ED54FD4F31822082F701EE0FFF1F0F
:1016F000EB54FD4F518240826CEB72E080E090E051
:101700000E94B50380918204909183040196909386
:1017100083048093820490CE8091B503882309F4DA
:10172000A1CE1092B503ADCE8F929F92AF92BF9291
:10173000CF92DF92EF92FF92CF93DF93EC0168811B
:1017400079818A819B81611571058105910521F45B
:1017500064E279ED8BE597E02DE133EF41E050E075
:101760000E94380C49015A019B01AC01A7EAB1E47F
:101770000E94570C6B017C01ACEEB4EFA501940103
:101780000E94650CC60ED71EE81EF91EF7FE06C0A5
:1017900081E0C81AD108E10880E8F80AC882D98235
:1017A000EA82FB82C701B6019F77DF91CF91FF905C
:1017B000EF90DF90CF90BF90AF909F908F90089563
:1017C0008F929F92AF92BF92CF92DF92EF92FF9251
:1017D00060910002709101028091020290910302D7
:1017E000611571058105910521F464E279ED8BE5C0
:1017F00097E02DE133EF41E050E00E94380C4901C1
:101800005A019B01AC01A7EAB1E40E94570C6B019D
:101810007C01ACEEB4EFA50194010E94650CC60EEC
:10182000D71EE81EF91EF7FE06C081E0C81AD108CF
:10183000E10880E8F80AC0920002D0920102E0922A
:101840000202F0920302C701B6019F77FF90EF906A
:10185000DF90CF90BF90AF909F908F90089560934E
:101860000002709301028093020290930302089594
:10187000052E97FB1EF400940E944F0C57FD07D0D5
:101880000E946A0C07FC03D04EF40C944F0C509548
:101890004095309521953F4F4F4F5F4F089590955C
:1018A0008095709561957F4F8F4F9F4F08950E944F
:1018B0008C0CA59F900DB49F900DA49F800D911D41
:1018C00011240895B7FF0C94570C0E94570C821BEB
:1018D000930B0895A1E21A2EAA1BBB1BFD010DC09C
:1018E000AA1FBB1FEE1FFF1FA217B307E407F507D0
:1018F00020F0A21BB30BE40BF50B661F771F881FAC
:10190000991F1A9469F760957095809590959B0141
:10191000AC01BD01CF010895A29FB001B39FC001EA
:10192000A39F700D811D1124911DB29F700D811D0B
:101930001124911D0895EE0FFF1F881F8BBF079084
:10194000F691E02D19940F931F93CF93DF9382307C
:10195000910510F482E090E0E091E704F091E80452
:1019600030E020E0B0E0A0E0309799F42115310597
:1019700009F44AC0281B390B24303105D8F58A8177
:101980009B816115710589F1FB0193838283FE01BF
:1019900011C0408151810281138148175907E0F03D
:1019A0004817590799F4109761F012960C93129703
:1019B00013961C933296CF01DF91CF911F910F9117
:1019C00008950093E7041093E804F4CF211531053E
:1019D00051F04217530738F0A901DB019A01BD010C
:1019E000DF01F801C1CFEF01F9CF9093E8048093B4
:1019F000E704CDCFFE01E20FF31F819391932250B4
:101A0000310939832883D7CF2091E5043091E6044A
:101A1000232B41F420910602309107023093E60413
:101A20002093E5042091040230910502211531052F
:101A300041F42DB73EB74091080250910902241B92
:101A4000350BE091E504F091E604E217F307A0F40A
:101A50002E1B3F0B2817390778F0AC014E5F5F4F04
:101A60002417350748F04E0F5F1F5093E60440934C
:101A7000E504819391939FCFF0E0E0E09CCFCF937A
:101A8000DF930097E9F0FC01329713821282A09154
:101A9000E704B091E804ED0130E020E01097A1F4F4
:101AA00020813181820F931F2091E5043091E6045B
:101AB0002817390709F061C0F093E604E093E504C4
:101AC000DF91CF910895EA01CE17DF07E8F54A814B
:101AD0005B819E0141155105B1F7E901FB83EA8362
:101AE00049915991C40FD51FEC17FD0761F480810E
:101AF00091810296840F951FE901998388838281E1
:101B000093819B838A83F0E0E0E012968D919C9113
:101B100013970097B9F52D913C911197CD0102963D
:101B2000820F931F2091E5043091E60428173907AE
:101B300039F6309751F51092E8041092E704B0930B
:101B4000E604A093E504BCCFD383C28340815181D6
:101B5000840F951FC817D90761F44E5F5F4F8881C6
:101B60009981480F591F518340838A819B819383B8
:101B700082832115310509F0B0CFF093E804E0939A
:101B8000E7049ECFFD01DC01C0CF13821282D7CFC4
:041B9000F894FFCFF7
:101B9400010000000000E9048000000000000302CE
:101BA4006D019A015002CB01A901BD0100000000A2
:101BB4006C01C6050D0A004D617472697A20616E6C
:101BC400743A00506F73696369C3B36E20656E2005
:101BD40059616E743A00506F73696369C3B36E20C0
:101BE400656E2058616E743A002D2D2D2D2D2D2DEE
:101BF4002D2D2D2D2D2D2D2D2D2D2D2D2D2D2D003E
:101C04004D617472697A3A00506F73696369C3B342
:101C14006E20656E20593A00506F73696369C3B3CF
:101C24006E20656E20583A00437265616E646F20C1
:081C3400736563746F72000018
:00000001FF
