:100000000C9427010C944B010C944B010C944B0164
:100010000C944B010C944B010C944B010C944B0130
:100020000C944B010C944B010C944B010C944B0120
:100030000C944B010C944B010C944B010C944B0110
:100040000C944B010C944B010C944B010C944B0100
:100050000C944B010C944B010C944B010C944103F8
:100060000C944B010C944B010C944B010C944B01E0
:100070000C944B010C944B010C944B010C944B01D0
:100080000C944B010C944B010C944B010C944B01C0
:100090000C944B010C944B010C944B010C944B01B0
:1000A0000C944B010C944B010C944B010C944B01A0
:1000B0000C944B010C944B010C944B010C944B0190
:1000C0000C944B010C944B010C944B010C944B0180
:1000D0000C944B010C944B010C944B010C944B0170
:1000E0000C944B010C946B010C948A010C94AC01A0
:1000F0000C9420050C949E010C94B0010C947D018D
:100100000C9490010C9494010C94A6010C94980109
:100110000C9475010C9480010C9486010C94790167
:100120000C94AB010C9471010C94A201000021000D
:10013000240027002A002D003000330001010000B8
:10014000040107010A0100002200250028002B00FD
:100150002E003100340002010000050108010B01EE
:10016000000020002300260029002C002F00320070
:100170000001000003010601090105050505070549
:1001800008080808020202020A0A08080404040413
:10019000010101010101010103030303030303033F
:1001A000040707070C0C0C0C0C0C0C0C02020202CE
:1001B00006060606060606060B0B0B0B0B0B0B0BB7
:1001C0000102102020080810204010204080020169
:1001D000020108040201010204081020408080404E
:1001E000201008040201800402018040201008044D
:1001F00002010804020101020408102040800102EB
:1002000004081020408000000A0B02090C0D0E08A3
:1002100007030401000000000000000000000000CF
:1002200000000000000000000000000000000000CE
:10023000000012111000000000000000000000008B
:100240000000000000000000000000002005112454
:100250001FBECFEFD1E2DEBFCDBF00E00CBF22E07A
:10026000A0E0B2E001C01D92AD36B207E1F711E0A7
:10027000C7E2D1E000E006C021970109802FFE010E
:100280000E949205C632D10780E00807A9F70E94B4
:100290008B030C949A050C9400008150823108F075
:1002A0005AC0E82FF0E08827E75AFE4F8F4F0C9492
:1002B000920579017D016B0171017501AB0180012E
:1002C00086018A019001940198019E01A201AB016F
:1002D000A601AC01B001809180008F7780938000EF
:1002E0000895809180008F7DF9CF80918000877F75
:1002F000F5CF84B58F7784BD089584B58F7DFBCF0E
:100300008091B0008F778093B00008958091B00005
:100310008F7DF9CF809190008F7780939000089522
:10032000809190008F7DF9CF80919000877FF5CFED
:100330008091A0008F778093A00008958091A00005
:100340008F7DF9CF8091A000877FF5CF809120012C
:100350008F77809320010895809120018F7DF9CFC0
:1003600080912001877FF5CFCF93DF93282F30E056
:10037000F901EA5FFD4F8491F901E054FE4FD491F9
:10038000F901E658FE4FC491CC23A1F081110E94DF
:100390004D01EC2FF0E0EE0FFF1FE05AFE4FA5914C
:1003A000B491EC91ED2381E090E009F480E0DF91DD
:1003B000CF91089580E090E0FACF1F93CF93DF9321
:1003C000282F30E0F901EA5FFD4F8491F901E054F4
:1003D000FE4FD491F901E658FE4FC491CC23A9F009
:1003E000162F81110E944D01EC2FF0E0EE0FFF1F40
:1003F000EA5BFE4FA591B4918FB7F894EC9111117F
:1004000008C0D095DE23DC938FBFDF91CF911F9181
:100410000895DE2BF8CFCF93DF9390E0FC01E054FA
:10042000FE4F249186589E4FFC0184918823D1F081
:1004300090E0880F991FFC01E45DFE4FA591B491F7
:10044000FC01EA5BFE4FC591D49161110EC09FB7CC
:10045000F8948C91E22FE0958E238C932881E223EF
:10046000E8839FBFDF91CF9108958FB7F894EC9107
:10047000E22BEC938FBFF6CF3FB7F8948091050243
:1004800090910602A0910702B091080226B5A89BA0
:1004900005C02F3F19F00196A11DB11D3FBFBA2F16
:1004A000A92F982F8827BC01CD01620F711D811DD6
:1004B000911D42E0660F771F881F991F4A95D1F75B
:1004C00008958F929F92AF92BF92CF92DF92EF9258
:1004D000FF926B017C010E943C024B015C01C11444
:1004E000D104E104F104B9F00E943C0268197909D1
:1004F0008A099B09683E73408105910580F321E0DC
:10050000C21AD108E108F10888EE880E83E0981E2F
:10051000A11CB11CE4CFFF90EF90DF90CF90BF9073
:10052000AF909F908F900895CF92DF92EF92FF92BD
:100530000F931F93CF93DF931F921F92CDB7DEB718
:1005400069834A83880F991F00916B0210916C0296
:10055000000F111FE5E1F2E09F0125513240201705
:10056000310714F41192F8CF2981FC01EB5EFD4FA5
:1005700021838A81808360E0809169020E94DD018D
:100580001016110604F501501109F801EB5EFD4F3C
:10059000E080D0906702C090650288E0F82E6E2D52
:1005A000661F6627661F8C2D0E94DD01EE0C61E040
:1005B0008D2D0E94DD0160E08D2D0E94DD01FA94F9
:1005C000F110EDCFDDCF61E0809169020F900F90C7
:1005D000DF91CF911F910F91FF90EF90DF90CF901F
:1005E0000C94DD01EF92FF920F931F93CF937C0148
:1005F0008C0183E0000F111F8A95E1F70B5D1D4F01
:10060000C1E0F80111928F0140E06C2FC7010E94F8
:100610009402CF5FC930A9F7CF911F910F91FF903E
:10062000EF90089597FD2CC0E0916B02F0916C0261
:100630008E179F072CF56830710510F5483051056D
:10064000F8F4E0E8F0E0DF0102C0B595A7954A951F
:10065000E2F7AD01FC0133E0EE0FFF1F3A95E1F741
:10066000E60FF71FEB5EFD4F3089222331F0432B5D
:10067000408B6F5F40890C94940240954323F8CFE0
:1006800008951F920F920FB60F9211242F933F934C
:100690008F939F93AF93BF93809101029091020239
:1006A000A0910302B09104023091000223E0230FD5
:1006B0002D3758F50196A11DB11D2093000280939E
:1006C000010290930202A0930302B093040280916E
:1006D000050290910602A0910702B09108020196CE
:1006E000A11DB11D8093050290930602A0930702FD
:1006F000B0930802BF91AF919F918F913F912F913D
:100700000F900FBE0F901F90189526E8230F0296AA
:10071000A11DB11DD2CF789484B5826084BD84B50B
:10072000816084BD85B5826085BD85B5816085BDEC
:1007300080916E00816080936E00109281008091A4
:10074000810082608093810080918100816080932C
:100750008100809180008160809380008091B10051
:1007600084608093B1008091B00081608093B0007C
:1007700080919100826080939100809191008160CE
:10078000809391008091900081608093900080918F
:10079000A10082608093A1008091A100816080937C
:1007A000A1008091A00081608093A0008091210130
:1007B00082608093210180912101816080932101D9
:1007C0008091200181608093200180917A00846073
:1007D00080937A0080917A00826080937A00809181
:1007E0007A00816080937A0080917A00806880939B
:1007F0007A001092C10060E087E00E940B0260E086
:1008000086E00E940B0260E085E00E940B0260E03F
:1008100084E00E940B0261E083E00E940B02809161
:100820006B0290916C021816190634F441E06CE0EA
:1008300090E080E00E94940280916B0290916C02A3
:100840001816190634F448E06AE090E080E00E944F
:10085000940280916B0290916C021816190624F490
:1008600090E080E00E94F20280916B0290916C0215
:10087000029734F041E06CE081E090E00E94940245
:1008800080916B0290916C02029734F048E06AE02C
:1008900081E090E00E94940280916B0290916C0242
:1008A000029724F081E090E00E94F20221E050E003
:1008B00040E070E060E090E080E00E94120380E0A1
:1008C000C82E80E0D82EAA24A394B12C27E0822E33
:1008D000912C87E00E94B4017C01909314028093D4
:1008E000130286E00E94B4018C019093120280935F
:1008F000110285E00E94B401EC01909310028093F4
:100900000F0284E00E94B401EA94EF28A9F561E0A7
:1009100083E00E94DD0100910D0210910E02B801EA
:100920006150710970930E0260930D02E0900B020A
:10093000F0900C02C0910902D0910A0221E0A701B7
:10094000CE010E94120364E670E080E090E00E9415
:10095000610220E0A701B801CE010E94120364E603
:1009600070E080E090E00E946102C114D10409F4BB
:10097000B0CF0E940000ADCF012B61F061E083E0B9
:100980000E94DD0100910D0210910E02B8016F5F0F
:100990007F4FC8CFCD2B71F161E083E00E94DD0174
:1009A000E0900B02F0900C02C701019790930C02AB
:1009B00080930B02C0910902D0910A02C130D10587
:1009C00051F497FF08C010920A0210920902909207
:1009D0000C0280920B0200910D0210910E024091C8
:1009E0000B0250910C0221E0B80180910902909114
:1009F0000A02A7CF892BF9F061E083E00E94DD01B4
:100A0000E0900B02F0900C02C701019690930C024B
:100A100080930B02C0910902D0910A022097D9F667
:100A20000897CCF2B0920A02A092090210920C022E
:100A300010920B02D0CF60E083E00E94DD0195CFE1
:100A4000CF93DF93CCE0D0E0D0936602C0936502F1
:100A50008BE090E090936802809367028AE090E0D8
:100A600090936A028093690282E090E090936C0216
:100A700080936B0261E08CE00E940B0261E0809148
:100A800067020E940B0261E0809169020E940B02E2
:100A900061E0809169020E94DD01D0936602C093FB
:100AA0006502E5E2F2E0119282E0E536F807D9F757
:100AB000D0E0C0E080916B0290916C02C817D9071A
:100AC00074F540E06FE0CE010E94940280916B02C9
:100AD00090916C02C817D9072CF447E06BE0CE0167
:100AE0000E94940240E069E0CE010E94940280914D
:100AF0006B0290916C02C817D9071CF4CE010E94BA
:100B0000F20280916B0290916C02C817D9072CF405
:100B100040E06CE0CE010E9494022196CBCFDF91A1
:100B2000CF910895EE0FFF1F881F8BBF0790F6919E
:080B3000E02D1994F894FFCFA9
:00000001FF
