:100000000C9439010C946A010C946A010C946A01F5
:100010000C946A010C946A010C946A010C946A01B4
:100020000C946A010C946A010C946A010C946A01A4
:100030000C946A010C946A010C946A010C946A0194
:100040000C946A010C946A010C946A010C946A0184
:100050000C946A010C946A010C946A010C94500689
:100060000C946A010C941A060C94F0050C946A0125
:100070000C946A010C946A010C946A010C946A0154
:100080000C946A010C946A010C946A010C946A0144
:100090000C946A010C946A010C946A010C946A0134
:1000A0000C946A010C946A010C946A010C946A0124
:1000B0000C946A010C946A010C946A010C946A0114
:1000C0000C946A010C946A010C946A010C946A0104
:1000D0000C946A010C946A010C946A010C946A01F4
:1000E0000C946A010C94F2020C94E4020C94CD027C
:1000F0000C94FA020C94E8020C94EC020C949A060C
:100100000C946D010C94FF020C94D1020C94A90183
:100110000C94F6020C9404030C94BD010C94CB01D6
:100120000C9450020C946C010C94EE050C94BF02DC
:100130000C94D4020C949A010C94DE020C940302E9
:100140000C94C5020C94C9020C94DA020C940003BE
:1001500000002100240027002A002D003000330079
:1001600001010000040107010A010000220025002E
:1001700028002B002E003100340002010000050190
:1001800008010B01000020002300260029002C009C
:100190002F003200000100000301060109010505DE
:1001A0000505070508080808020202020A0A0808ED
:1001B000040404040101010101010101030303031B
:1001C00003030303040707070C0C0C0C0C0C0C0CAA
:1001D0000202020206060606060606060B0B0B0BBB
:1001E0000B0B0B0B010210202008081020401020E0
:1001F00040800201020108040201010204081020EB
:1002000040808040201008040201800402018040E8
:100210002010080402010804020101020408102051
:100220004080010204081020408000000A0B0209EF
:100230000C0D0E0807030401000000000000000080
:1002400000000000000000000000000000000000AE
:10025000000000000000121110000000000000006B
:10026000000000000000000000000000000000008E
:100270009A0611241FBECFEFD1E2DEBFCDBF00E052
:100280000CBF12E0A0E0B2E0EAE1FBE100E00BBF4E
:1002900002C007900D92A436B107D9F724E0A4E676
:1002A000B2E001C01D92A53AB207E1F711E0C9E33F
:1002B000D1E000E006C021970109802FFE010E94D5
:1002C0005E0CC833D10780E00807A9F70E94AE078B
:1002D0000C948B0D0C9400000895AF92BF92CF92B6
:1002E000DF92EF92FF920F931F93CF93DF936C01F6
:1002F0007B018B01040F151FEB015E01AE18BF08D7
:10030000C017D10759F06991D601ED91FC91019088
:10031000F081E02DC6011995892B79F7C501DF9190
:10032000CF911F910F91FF90EF90DF90CF90BF90F2
:10033000AF900895FC01538D448D252F30E0842F1C
:1003400090E0821B930B541710F0CF9608950197FD
:100350000895FC01918D828D981761F0A28DAE0FEA
:10036000BF2FB11D5D968C91928D9F5F9F73928F71
:1003700090E008958FEF9FEF0895FC01918D828D9D
:10038000981731F0828DE80FF11D858D90E008956A
:100390008FEF9FEF0895FC01918D228D892F90E0C2
:1003A000805C9F4F821B91098F739927089580E885
:1003B00093E00E94CB0121E0892B09F420E0822FF9
:1003C0000895FC01A48DA80FB92FB11DA35ABF4FEA
:1003D0002C91848D90E001968F739927848FA68944
:1003E000B7892C93A089B1898C91837080648C9398
:1003F000938D848D981306C00288F389E02D808147
:100400008F7D80830895EF92FF920F931F93CF9378
:10041000DF93EC0181E0888F9B8D8C8D98131AC03F
:10042000E889F989808185FF15C09FB7F894EE8926
:10043000FF896083E889F989808183708064808383
:100440009FBF81E090E0DF91CF911F910F91FF90CE
:10045000EF900895F62E0B8D10E00F5F1F4F0F7376
:100460001127E02E8C8D8E110CC00FB607FCFACF31
:10047000E889F989808185FFF5CFCE010E94E101ED
:10048000F1CFEB8DEC0FFD2FF11DE35AFF4FF08202
:100490009FB7F8940B8FEA89FB8980818062CFCF68
:1004A000CF93DF93EC01888D8823B9F0AA89BB89AB
:1004B000E889F9898C9185FD03C0808186FD0DC096
:1004C0000FB607FCF7CF8C9185FFF2CF808185FFB7
:1004D000EDCFCE010E94E101E9CFDF91CF910895E8
:1004E00080E090E0892B29F00E94D70181110E94C1
:1004F000000080E090E0892B49F080E090E0892BBB
:1005000029F00E94000081110E94000080E090E02C
:10051000892B49F080E090E0892B29F00E940000AF
:1005200081110E94000080E090E0892B49F080E07A
:1005300090E0892B29F00E94000081110C940000AA
:1005400008958150823108F05AC0E82FF0E08827E2
:10055000E355FD4F8F4F0C945E0CCD02D102BF02CC
:10056000C502C902FF02D402DA02DE02E402E80296
:10057000EC02F202F602FF02FA0200030403809189
:1005800080008F77809380000895809180008F7D18
:10059000F9CF80918000877FF5CF84B58F7784BDB8
:1005A000089584B58F7DFBCF8091B0008F778093C5
:1005B000B00008958091B0008F7DF9CF80919000B8
:1005C0008F77809390000895809190008F7DF9CF70
:1005D00080919000877FF5CF8091A0008F778093E6
:1005E000A00008958091A0008F7DF9CF8091A00098
:1005F000877FF5CF809120018F7780932001089528
:10060000809120018F7DF9CF80912001877FF5CFE8
:10061000CF93DF93282F30E0F901E65DFD4F849101
:10062000F901EC51FE4FD491F901E256FE4FC4910D
:10063000CC23A1F081110E94A102EC2FF0E0EE0F7B
:10064000FF1FEC57FE4FA591B491EC91ED2381E093
:1006500090E009F480E0DF91CF91089580E090E090
:10066000FACF1F93CF93DF93282F30E0F901E65D97
:10067000FD4F8491F901EC51FE4FD491F901E256FE
:10068000FE4FC491CC23A9F0162F81110E94A10224
:10069000EC2FF0E0EE0FFF1FE659FE4FA591B4914D
:1006A0008FB7F894EC91111108C0D095DE23DC933C
:1006B0008FBFDF91CF911F910895DE2BF8CFCF939D
:1006C000DF9390E0FC01EC51FE4F249182569E4F47
:1006D000FC0184918823D1F090E0880F991FFC01E0
:1006E000E05BFE4FA591B491FC01E659FE4FC59128
:1006F000D49161110EC09FB7F8948C91E22FE095D0
:100700008E238C932881E223E8839FBFDF91CF91D2
:1007100008958FB7F894EC91E22BEC938FBFF6CF4E
:100720003FB7F89480916B0290916C02A0916D029A
:10073000B0916E0226B5A89B05C02F3F19F0019617
:10074000A11DB11D3FBFBA2FA92F982F8827BC012B
:10075000CD01620F711D811D911D42E0660F771F53
:10076000881F991F4A95D1F708958F929F92AF9253
:10077000BF92CF92DF92EF92FF926B017C010E94B9
:1007800090034B015C01C114D104E104F104B9F000
:100790000E949003681979098A099B09683E734091
:1007A0008105910580F321E0C21AD108E108F10822
:1007B00088EE880E83E0981EA11CB11CE4CFFF9048
:1007C000EF90DF90CF90BF90AF909F908F90089563
:1007D000CF92DF92EF92FF920F931F93CF93DF930D
:1007E0001F921F92CDB7DEB769834A83880F991F86
:1007F00000919F041091A004000F111FE9E4F4E0A0
:100800009F01295434402017310714F41192F8CF76
:100810002981FC01E75BFB4F21838A81808360E0B3
:1008200080919D040E9431031016110604F50150B9
:100830001109F801E75BFB4FE080D0909B04C0906A
:10084000990488E0F82E6E2D661F6627661F8C2D92
:100850000E943103EE0C61E08D2D0E94310360E0B7
:100860008D2D0E943103FA94F110EDCFDDCF61E0C0
:1008700080919D040F900F90DF91CF911F910F9168
:10088000FF90EF90DF90CF900C94310397FD2CC038
:10089000E0919F04F091A0048E179F072CF568301B
:1008A000710510F548305105F8F4E0E8F0E0DF019B
:1008B00002C0B595A7954A95E2F7AD01FC0133E07A
:1008C000EE0FFF1F3A95E1F7E60FF71FE75BFB4FCF
:1008D0003089222331F0432B408B6F5F40890C9489
:1008E000E80340954323F8CF0895EF92FF920F93CA
:1008F0001F93CF937C018C0183E0000F111F8A9519
:10090000E1F7075A1B4FC1E0F80111928F0140E057
:100910006C2FC7010E94E803CF5FC930A9F7CF91C0
:100920001F910F91FF90EF900895FC01019000201E
:10093000E9F73197AF01481B590BBC0180E893E000
:100940000C946D018F929F92AF92BF920F931F9361
:10095000CF93DF93CDB7DEB7A1970FB6F894DEBF84
:100960000FBECDBF19A2423008F44AE08E010F5DE0
:100970001F4F842E912CB12CA12CA50194010E9413
:100980002D0CE62FB901CA01EA30F4F4E05DD8017C
:10099000EE938D01232B242B252B79F790E080E01B
:1009A000109719F0CD010E949504A1960FB6F89406
:1009B000DEBF0FBECDBFDF91CF911F910F91BF90D2
:1009C000AF909F908F900895E95CE1CFCF92DF9236
:1009D000EF92FF92CF93DF936B017C016DE280E891
:1009E00093E00E940302EC0166277727CB016C1984
:1009F0007D098E099F094AE00E94A2048C0F9D1F69
:100A0000DF91CF91FF90EF90DF90CF900895CF933B
:100A1000DF93BC01990F880B990B97FF0CC00E94C4
:100A2000E604EC0184E292E00E9495048C0F9D1F85
:100A3000DF91CF9108954AE00E94A204F2CFCF93B4
:100A4000DF930E949504EC0184E292E00E949504F9
:100A50008C0F9D1FDF91CF910895EF92FF920F931E
:100A60001F93CF93DF9364E670E080E090E00E94F4
:100A7000B503E0901F04F090200400911D04109134
:100A80001E04C0912104D091220421E0A701B801E5
:100A9000CE010E9446040F3F100741F08FEFE81689
:100AA000F80621F0CF3FDC0709F04EC00E94A30BEF
:100AB00026E030E040E050E00E94FB0B6F5F7F4F8C
:100AC0008F4F9F4F7093200460931F040E94A30BCD
:100AD00028E030E040E050E00E94FB0B70931E04E1
:100AE00060931D040E94A30B22E030E040E050E040
:100AF0000E94FB0BCB017093220460932104C091F0
:100B00001D04D0911E0440911F045091200421E047
:100B1000BE010E944604CE010E94070580911F0479
:100B2000909120040E940705809121049091220455
:100B30000E94070587E292E0DF91CF911F910F910C
:100B4000FF90EF900C941F05809138049091390428
:100B5000E816F906C1F580913A0490913B04081714
:100B6000190789F58091440490914504C817D90765
:100B700051F58FEF9FEF9093200480931F04909383
:100B80001E0480931D048091640290916502019679
:100B9000909365028093640280E492E00E94950441
:100BA0006091640270916502072E000C880B990B0E
:100BB00097FF10C00E94E60484E292E00E94950430
:100BC00081E080937703DF91CF911F910F91FF9088
:100BD000EF9008954AE00E94A204EECF0C94020D1B
:100BE0001F920F920FB60F9211240BB60F922F93F4
:100BF0003F934F935F936F937F938F939F93AF93A5
:100C0000BF93EF93FF9380E893E00E94E101FF918F
:100C1000EF91BF91AF919F918F917F916F915F9174
:100C20004F913F912F910F900BBE0F900FBE0F90E1
:100C30001F9018951F920F920FB60F9211240BB6AA
:100C40000F922F938F939F93EF93FF93E0919003D5
:100C5000F09191038081E0919603F091970382FDDA
:100C60001DC09081809199038F5F8F7320919A03AB
:100C7000821741F0E0919903F0E0E058FC4F958F26
:100C800080939903FF91EF919F918F912F910F90F6
:100C90000BBE0F900FBE0F901F9018958081F2CF62
:100CA0001F920F920FB60F9211242F933F938F93A1
:100CB0009F93AF93BF938091670290916802A09138
:100CC0006902B0916A023091660223E0230F2D374A
:100CD00058F50196A11DB11D20936602809367020D
:100CE00090936802A0936902B0936A0280916B02AC
:100CF00090916C02A0916D02B0916E020196A11DBF
:100D0000B11D80936B0290936C02A0936D02B0931F
:100D10006E02BF91AF919F918F913F912F910F9054
:100D20000FBE0F901F90189526E8230F0296A11D65
:100D3000B11DD2CFCF93DF93109283031092820321
:100D400088EE93E0A0E0B0E0809384039093850365
:100D5000A0938603B09387038EE092E09093810383
:100D60008093800385EC90E090938D0380938C03B7
:100D700084EC90E090938F0380938E0380EC90E05E
:100D8000909391038093900381EC90E09093930370
:100D90008093920382EC90E0909395038093940368
:100DA00086EC90E0909397038093960310929903BA
:100DB00010929A0310929B0310929C03CCE0D0E017
:100DC000D0939A04C09399048BE090E090939C0494
:100DD00080939B048AE090E090939E0480939D040E
:100DE00082E090E09093A00480939F0461E08CE007
:100DF0000E945F0361E080919B040E945F0361E0B9
:100E000080919D040E945F0361E080919D040E9497
:100E10003103D0939A04C0939904E9E5F4E0119268
:100E200084E0E939F807D9F7D0E0C0E080919F0469
:100E30009091A004C817D90774F540E06FE0CE0187
:100E40000E94E80380919F049091A004C817D907DD
:100E50002CF447E06BE0CE010E94E80340E069E03B
:100E6000CE010E94E80380919F049091A004C817CE
:100E7000D9071CF4CE010E94750480919F049091C3
:100E8000A004C817D9072CF440E06CE0CE010E9402
:100E9000E8032196CBCF40E252E0509337044093D1
:100EA0003604109239041092380410923B041092C8
:100EB0003A0424E030E030933D0420933C04109247
:100EC0004504109244041092470410924604109274
:100ED000480410924104109240041092430410926E
:100EE000420481E090E090933F0480933E0450934D
:100EF0002404409323041092260410922504109297
:100F000028041092270430932A0420932904109275
:100F1000320410923104109234041092330410926F
:100F2000350410922E0410922D0410923004109269
:100F30002F0490932C0480932B048FEF9FEF9093BA
:100F40001E0480931D049093200480931F049093AB
:100F5000220480932104DF91CF910895CF93DF93F2
:100F6000CDB7DEB7A6970FB6F894DEBF0FBECDBFE4
:100F7000789484B5826084BD84B5816084BD85B574
:100F8000826085BD85B5816085BD80916E00816080
:100F900080936E0010928100809181008260809326
:100FA0008100809181008160809381008091800028
:100FB0008160809380008091B10084608093B10053
:100FC0008091B00081608093B00080919100826038
:100FD0008093910080919100816080939100809135
:100FE00090008160809390008091A1008260809346
:100FF000A1008091A10081608093A1008091A00058
:1010000081608093A0008091210182608093210102
:101010008091210181608093210180912001816074
:101020008093200180917A00846080937A0080917F
:101030007A00826080937A0080917A008160809348
:101040007A0080917A00806880937A001092C100C3
:1010500060E087E00E945F0360E086E00E945F033B
:1010600060E085E00E945F0360E084E00E945F032F
:1010700061E083E00E945F03E0919003F0919103AF
:1010800082E08083E0918C03F0918D031082E091E7
:101090008E03F0918F038FEC808310929803E09180
:1010A0009403F091950386E08083E0919203F091A0
:1010B0009303808180618083E0919203F091930398
:1010C000808188608083E0919203F0919303808116
:1010D00080688083E0919203F091930380818F7DFB
:1010E000808380919F049091A0041816190634F40F
:1010F00041E06CE090E080E00E94E80380919F0472
:101100009091A0041816190634F448E06AE090E0C3
:1011100080E00E94E80380919F049091A00418163B
:10112000190624F490E080E00E94750480919F04E9
:101130009091A004029734F041E06CE081E090E0EF
:101140000E94E80380919F049091A004029734F0DC
:1011500048E06AE081E090E00E94E80380919F040B
:101160009091A004029724F081E090E00E94750421
:101170000E94A30B57E0C52ED12CE12CF12CA70126
:1011800096010E94FB0B6F5F7F4F8F4F9F4F7093B5
:101190003904609338040E94A30BA70196010E94B2
:1011A000FB0B6F5F7F4F8F4F9F4F70933B0460939C
:1011B0003A040E94A30B22E030E040E050E00E949D
:1011C000FB0B70934504609344040E94A30B24E03E
:1011D00030E040E050E00E94FB0B6F5F7F4F8F4F8D
:1011E0009F4F70933D0460933C048091380490912C
:1011F0003904909341048093400480913A04909183
:101200003B04909343048093420480914404909162
:101210004504909347048093460481E080934804FA
:1012200081E090E090933F0480933E040E942D055E
:10123000409138045091390460913A0470913B0414
:1012400021E080914404909145040E94460486E385
:1012500094E09093700280936F0283E294E0909305
:101260007202809371026CEB72E080E090E00E9469
:10127000B50304E010E067E0462E512CEE24E39421
:10128000F12CE0E26E2EE2E07E2E1E0124E1220E21
:10129000311C87E00E9408036C0190937F038093C8
:1012A0007E0386E00E9408034C0190937D038093A7
:1012B0007C0385E00E9408035C0190937B0380938C
:1012C0007A0384E00E940803909379038093780363
:1012D000A1E0CA16D10409F080C061E083E00E9459
:1012E0003103D0923D04C0923C0480913C04909123
:1012F0003D048230910509F4F0C00CF098C00197CC
:1013000009F4CDC03FE6A32E32E0B32ECC24C39423
:10131000D12C960121503109F501A281B381529659
:101320008C91882309F41FC18BE492E00E941F0571
:10133000D5011296ED91FC91139782819381938749
:101340008287848195819587848786859785918B0F
:10135000808B2D913D915D01D9011A968D919C91C3
:101360001B97938382831C968D919C911D979583E7
:10137000848350968D919C9197878687BFEFCB1A77
:10138000DB0AE1E8CE16D10421F60E942D0540913A
:1013900038045091390460913A0470913B0421E083
:1013A00080914404909145040E94460480913E043B
:1013B00090913F04019709F05DC140914004509124
:1013C0004104609142047091430420E080914604FE
:1013D000909147040E94460453C1892859F061E066
:1013E00083E00E943103E2E0F0E0F0933D04E093FB
:1013F0003C047BCFAB2859F061E083E00E943103CD
:1014000083E090E090933D0480933C046ECF892B61
:1014100049F061E083E00E94310310933D040093A2
:101420003C0463CF60E083E00E9431035ECF8330F1
:10143000910509F45CC0049709F064CF80913804E9
:1014400090913904909341048093400420913A0490
:1014500030913B04309343042093420401969093CF
:10146000390480933804209144043091450408974E
:101470000CF474C02115310509F06CC0F0924504DC
:10148000E0924404109247041092460450924104A2
:1014900040924004109239041092380433CF809166
:1014A0003A0490913B049093430480934204019743
:1014B00090933B0480933A048091380490913904CE
:1014C000909341048093400480914404909145049A
:1014D000909347048093460415CF80913A049091ED
:1014E0003B0490934304809342040196E1CF8091A2
:1014F00038049091390490934104809340042091E2
:101500003A0430913B043093430420934204019702
:101510009093390480933804209144043091450419
:1015200097FF1CC02115310509F4ECCE213031059F
:10153000A9F4109245041092440430934704209378
:101540004604109241041092400450923904409293
:101550003804D8CE2130310509F4D4CE3093470475
:1015600020934604CFCEF901EE0FFF1FE159FD4F46
:101570000190F081E02D828593859093760380938E
:101580007503848595859093740380937303808994
:1015900091899093720380937103809177038823DC
:1015A00009F4F3CE85E592E00E941F057D8A6C8ADE
:1015B0001B8F0A8FFD8EEC8E7A8269821C821B82C1
:1015C0001E821D8218870F83188A1F861A8A198A1D
:1015D0001B8A1C861B861E861D86FA86E98681E08C
:1015E0008EA340917503509176035F8B4E8B2091B3
:1015F000730330917403398F288F80917103909118
:1016000072039BA38AA35F8F4E8F39A328A39DA348
:101610008CA35601AA0CBB1CF501E159FD4F80813A
:101620009181009739F0DC01ED91FC910280F3810A
:10163000E02D1995F501E159FD4F31822082F60127
:10164000EE0FFF1FEF58FD4F81E090E08C0F9D1FC4
:10165000918380836CEB72E080E090E00E94B503A0
:1016600080913E0490913F04019690933F048093B3
:101670003E048BCE80917703882359F01092770334
:101680006CEB72E080E090E00E94B5030E94700273
:1016900000CE409175035091760360917303709171
:1016A000740320E0809171039091720393CE8F9226
:1016B0009F92AF92BF92CF92DF92EF92FF92CF9321
:1016C000DF93EC01688179818A819B8161157105C5
:1016D0008105910521F464E279ED8BE597E02DE138
:1016E00033EF41E050E00E94FB0B49015A019B019E
:1016F000AC01A7EAB1E40E941A0C6B017C01ACEECC
:10170000B4EFA50194010E94280CC60ED71EE81E56
:10171000F91EF7FE06C081E0C81AD108E10880E88A
:10172000F80AC882D982EA82FB82C701B6019F7794
:10173000DF91CF91FF90EF90DF90CF90BF90AF906F
:101740009F908F9008958F929F92AF92BF92CF9269
:10175000DF92EF92FF9260910002709101028091FE
:10176000020290910302611571058105910521F432
:1017700064E279ED8BE597E02DE133EF41E050E055
:101780000E94FB0B49015A019B01AC01A7EAB1E49D
:101790000E941A0C6B017C01ACEEB4EFA501940120
:1017A0000E94280CC60ED71EE81EF91EF7FE06C0C2
:1017B00081E0C81AD108E10880E8F80AC092000266
:1017C000D0920102E0920202F0920302C701B60138
:1017D0009F77FF90EF90DF90CF90BF90AF909F905A
:1017E0008F9008956093000270930102809302022B
:1017F000909303020895052E97FB1EF400940E9417
:10180000120C57FD07D00E942D0C07FC03D04EF49C
:101810000C94120C50954095309521953F4F4F4FA9
:101820005F4F089590958095709561957F4F8F4F8C
:101830009F4F08950E944F0CA59F900DB49F900D4F
:10184000A49F800D911D11240895B7FF0C941A0CCC
:101850000E941A0C821B930B0895A1E21A2EAA1B58
:10186000BB1BFD010DC0AA1FBB1FEE1FFF1FA21750
:10187000B307E407F50720F0A21BB30BE40BF50B4D
:10188000661F771F881F991F1A9469F760957095D6
:10189000809590959B01AC01BD01CF010895A29F59
:1018A000B001B39FC001A39F700D811D1124911D34
:1018B000B29F700D811D1124911D0895EE0FFF1F21
:1018C000881F8BBF0790F691E02D19940F931F93FB
:1018D000CF93DF938230910510F482E090E0E091A5
:1018E000A304F091A40430E020E0B0E0A0E0309741
:1018F00099F42115310509F44AC0281B390B24300D
:101900003105D8F58A819B816115710589F1FB014B
:1019100093838283FE0111C0408151810281138132
:1019200048175907E0F04817590799F4109761F0E4
:1019300012960C93129713961C933296CF01DF9157
:10194000CF911F910F9108950093A3041093A404C5
:10195000F4CF2115310551F04217530738F0A90192
:10196000DB019A01BD01DF01F801C1CFEF01F9CF21
:101970009093A4048093A304CDCFFE01E20FF31F44
:10198000819391932250310939832883D7CF2091B5
:10199000A1043091A204232B41F42091060230913E
:1019A00007023093A2042093A104209104023091F5
:1019B00005022115310541F42DB73EB740910802CB
:1019C00050910902241B350BE091A104F091A2046F
:1019D000E217F307A0F42E1B3F0B2817390778F006
:1019E000AC014E5F5F4F2417350748F04E0F5F1F65
:1019F0005093A2044093A104819391939FCFF0E070
:101A0000E0E09CCFCF93DF930097E9F0FC013297A1
:101A100013821282A091A304B091A404ED0130E0DE
:101A200020E01097A1F420813181820F931F209133
:101A3000A1043091A2042817390709F061C0F0937E
:101A4000A204E093A104DF91CF910895EA01CE179B
:101A5000DF07E8F54A815B819E0141155105B1F729
:101A6000E901FB83EA8349915991C40FD51FEC1713
:101A7000FD0761F4808191810296840F951FE90131
:101A800099838883828193819B838A83F0E0E0E05D
:101A900012968D919C9113970097B9F52D913C91D9
:101AA0001197CD010296820F931F2091A1043091CE
:101AB000A2042817390739F6309751F51092A4047B
:101AC0001092A304B093A204A093A104BCCFD3832B
:101AD000C28340815181840F951FC817D90761F4D3
:101AE0004E5F5F4F88819981480F591F5183408312
:101AF0008A819B81938382832115310509F0B0CFC0
:101B0000F093A404E093A3049ECFFD01DC01C0CFB9
:0A1B100013821282D7CFF894FFCFA2
:101B1A00010000000000A50480000000000003028C
:101B2A006D019A015002CB01A901BD01000000001C
:101B3A006C01EE050D0A002D2D2D2D2D2D2D2D2D8F
:101B4A002D2D2D2D2D2D2D2D2D2D2D2D2D2D2D00E8
:101B5A003E3E3E70756E746F733A00536920657825
:101B6A006973746500437265616E646F207365639F
:041B7A00746F720012
:00000001FF
