:100000000C9435010C9466010C9466010C94660105
:100010000C9466010C9466010C9466010C946601C4
:100020000C9466010C9466010C9466010C946601B4
:100030000C9466010C9466010C9466010C946601A4
:100040000C9466010C9466010C9466010C94660194
:100050000C9466010C9466010C9466010C949C054A
:100060000C9466010C9466050C943C050C94660196
:100070000C9466010C9466010C9466010C94660164
:100080000C9466010C9466010C9466010C94660154
:100090000C9466010C9466010C9466010C94660144
:1000A0000C9466010C9466010C9466010C94660134
:1000B0000C9466010C9466010C9466010C94660124
:1000C0000C9466010C9466010C9466010C94660114
:1000D0000C9466010C9466010C9466010C94660104
:1000E0000C9466010C9495010C94CC020C94C402FF
:1000F0000C94B8010C94FB020C9468010C94A401BC
:100100000C94FA020C94BA020C94D9020C94E605F1
:100110000C94DF020C94C6010C94C0020C94E7020C
:100120000C94ED020C94E3020C944B020C94D50257
:100130000C94CF020C94F5020C94F1020C94C802BA
:100140000C94FE010C94FF02000021002400270003
:100150002A002D00300033000101000004010701D6
:100160000A0100002200250028002B002E0031008B
:10017000340002010000050108010B01000020000D
:100180002300260029002C002F003200000100006F
:10019000030106010901050505050705080808080A
:1001A000020202020A0A080804040404010101010F
:1001B000010101010303030303030303040707070A
:1001C0000C0C0C0C0C0C0C0C0202020206060606AF
:1001D000060606060B0B0B0B0B0B0B0B010210207C
:1001E000200808102040102040800201020108046D
:1001F0000201010204081020408080402010080401
:100200000201800402018040201008040201080459
:10021000020101020408102040800102040810209D
:10022000408000000A0B02090C0D0E0807030401B0
:1002300000000000000000000000000000000000BE
:10024000000000000000000000000000000012118B
:10025000100000000000000000000000000000008E
:100260000000000000000000E60511241FBECFEFD3
:10027000D1E2DEBFCDBF00E00CBF12E0A0E0B2E0F3
:10028000EEE7F5E100E00BBF02C007900D92A6314A
:10029000B107D9F724E0A6E1B2E001C01D92A63B68
:1002A000B207E1F711E0C5E3D1E000E006C0219715
:1002B0000109802FFE010E94B50AC433D10780E0F6
:1002C0000807A9F70E94C8060C94BD0A0C94000008
:1002D000AF92BF92CF92DF92EF92FF920F931F9354
:1002E000CF93DF936C017B018B01040F151FEB0192
:1002F0005E01AE18BF08C017D10759F06991D60149
:10030000ED91FC910190F081E02DC6011995892BAA
:1003100079F7C501DF91CF911F910F91FF90EF9079
:10032000DF90CF90BF90AF900895FC01538D448D26
:10033000252F30E0842F90E0821B930B541710F090
:10034000CF96089501970895FC01918D828D98179D
:1003500061F0A28DAE0FBF2FB11D5D968C91928D75
:100360009F5F9F73928F90E008958FEF9FEF0895A6
:10037000FC01918D828D981731F0828DE80FF11D6F
:10038000858D90E008958FEF9FEF0895FC01918D8A
:10039000228D892F90E0805C9F4F821B91098F7383
:1003A000992708958BEA93E00E94C60121E0892BEA
:1003B00009F420E0822F0895FC01A48DA80FB92F25
:1003C000B11DA35ABF4F2C91848D90E001968F737D
:1003D0009927848FA689B7892C93A089B1898C919C
:1003E000837080648C93938D848D981306C00288EB
:1003F000F389E02D80818F7D80830895EF92FF92B5
:100400000F931F93CF93DF93EC0181E0888F9B8D37
:100410008C8D98131AC0E889F989808185FF15C0F1
:100420009FB7F894EE89FF896083E889F989808114
:100430008370806480839FBF81E090E0DF91CF91E3
:100440001F910F91FF90EF900895F62E0B8D10E005
:100450000F5F1F4F0F731127E02E8C8D8E110CC074
:100460000FB607FCFACFE889F989808185FFF5CFBF
:10047000CE010E94DC01F1CFEB8DEC0FFD2FF11DC1
:10048000E35AFF4FF0829FB7F8940B8FEA89FB89FC
:1004900080818062CFCFCF93DF93EC01888D88235A
:1004A000B9F0AA89BB89E889F9898C9185FD03C0D7
:1004B000808186FD0DC00FB607FCF7CF8C9185FFBC
:1004C000F2CF808185FFEDCFCE010E94DC01E9CF24
:1004D000DF91CF91089580E090E0892B29F00E9470
:1004E000D20181110E94000080E090E0892B49F048
:1004F00080E090E0892B29F00E94000081110E9489
:10050000000080E090E0892B49F080E090E0892BAA
:1005100029F00E94000081110E94000080E090E01C
:10052000892B49F080E090E0892B29F00E9400009F
:1005300081110C94000008958150823108F05AC056
:10054000E82FF0E08827E855FD4F8F4F0C94B50A4F
:10055000C802CC02BA02C002C402FA02CF02D5021B
:10056000D902DF02E302E702ED02F102FA02F5022C
:10057000FB02FF02809180008F77809380000895B6
:10058000809180008F7DF9CF80918000877FF5CFAB
:1005900084B58F7784BD089584B58F7DFBCF80911E
:1005A000B0008F778093B00008958091B0008F7D68
:1005B000F9CF809190008F7780939000089580917B
:1005C00090008F7DF9CF80919000877FF5CF80914B
:1005D000A0008F778093A00008958091A0008F7D68
:1005E000F9CF8091A000877FF5CF809120018F7790
:1005F000809320010895809120018F7DF9CF809113
:100600002001877FF5CFCF93DF93282F30E0F901CA
:10061000EE5DFD4F8491F901E452FE4FD491F90152
:10062000EA56FE4FC491CC23A1F081110E949C0296
:10063000EC2FF0E0EE0FFF1FE458FE4FA591B491B0
:10064000EC91ED2381E090E009F480E0DF91CF911F
:10065000089580E090E0FACF1F93CF93DF93282F87
:1006600030E0F901EE5DFD4F8491F901E452FE4F57
:10067000D491F901EA56FE4FC491CC23A9F0162F6C
:1006800081110E949C02EC2FF0E0EE0FFF1FEE594B
:10069000FE4FA591B4918FB7F894EC91111108C059
:1006A000D095DE23DC938FBFDF91CF911F9108950A
:1006B000DE2BF8CFCF93DF9390E0FC01E452FE4FA6
:1006C00024918A569E4FFC0184918823D1F090E0BA
:1006D000880F991FFC01E85BFE4FA591B491FC01C6
:1006E000EE59FE4FC591D49161110EC09FB7F89499
:1006F0008C91E22FE0958E238C932881E223E8836E
:100700009FBFDF91CF9108958FB7F894EC91E22BC2
:10071000EC938FBFF6CF3FB7F89480911D02909174
:100720001E02A0911F02B091200226B5A89B05C011
:100730002F3F19F00196A11DB11D3FBFBA2FA92F60
:10074000982F8827BC01CD01620F711D811D911D5D
:1007500042E0660F771F881F991F4A95D1F70895C9
:100760008F929F92AF92BF92CF92DF92EF92FF92C1
:100770006B017C010E948B034B015C01C114D1040D
:10078000E104F104B9F00E948B03681979098A0920
:100790009B09683E73408105910580F321E0C21AF0
:1007A000D108E108F10888EE880E83E0981EA11CAC
:1007B000B11CE4CFFF90EF90DF90CF90BF90AF904F
:1007C0009F908F900895CF92DF92EF92FF920F93B8
:1007D0001F93CF93DF931F921F92CDB7DEB769832C
:1007E0004A83880F991F0091B4041091B504000F3B
:1007F000111FEEE5F4E09F012E553440201731071C
:1008000014F41192F8CF2981FC01E25AFB4F2183A5
:100810008A81808360E08091B2040E942C031016CC
:10082000110604F501501109F801E25AFB4FE0806E
:10083000D090B004C090AE0488E0F82E6E2D661FF4
:100840006627661F8C2D0E942C03EE0C61E08D2D17
:100850000E942C0360E08D2D0E942C03FA94F1106D
:10086000EDCFDDCF61E08091B2040F900F90DF916A
:10087000CF911F910F91FF90EF90DF90CF900C944C
:100880002C03EF92FF920F931F93CF937C018C0167
:1008900083E0000F111F8A95E1F702591B4FC1E059
:1008A000F80111928F0140E06C2FC7010E94E30311
:1008B000CF5FC930A9F7CF911F910F91FF90EF90B3
:1008C000089597FD2CC0E091B404F091B5048E1703
:1008D0009F072CF56830710510F548305105F8F484
:1008E000E0E8F0E0DF0102C0B595A7954A95E2F790
:1008F000AD01FC0133E0EE0FFF1F3A95E1F7E60F83
:10090000F71FE25AFB4F3089222331F0432B408BF3
:100910006F5F40890C94E30340954323F8CF08951B
:10092000EF92FF920F931F93CF93DF9364E670E0F3
:1009300080E090E00E94B003E0905A04F0905B04E5
:100940000091580410915904C0915C04D0915D0449
:1009500021E0A701B801CE010E9461040F3F1007FA
:1009600039F08FEFE816F80619F0CF3FDC07D1F524
:100970000E94FA0926E030E040E050E00E94520A6E
:100980006F5F7F4F8F4F9F4F70935B0460935A044C
:100990000E94FA0928E030E040E050E00E94520A4C
:1009A00070935904609358040E94FA0922E030E0E1
:1009B00040E050E00E94520ACB0170935D046093C6
:1009C0005C0440915A0450915B046091580470910A
:1009D000590421E0DF91CF911F910F91FF90EF908B
:1009E0000C9461048091520490915304E816F90626
:1009F000E1F5809150049091510408171907A9F569
:100A00008091540490915504C817D90771F5F0925C
:100A10004B04E0924A041093490400934804D09395
:100A20004D04C0934C04E091A203EF5FE093A20356
:100A3000F0E0EE5DFD4FE082DF01A058BF4F0C9368
:100A4000F395C0838FEF9FEF90935B0480935A04DC
:100A50009093590480935804809116029091170244
:100A600001969093170280931602DF91CF911F9108
:100A70000F91FF90EF9008951F920F920FB60F9273
:100A800011240BB60F922F933F934F935F936F9365
:100A90007F938F939F93AF93BF93EF93FF938BEAD3
:100AA00093E00E94DC01FF91EF91BF91AF919F9184
:100AB0008F917F916F915F914F913F912F910F9007
:100AC0000BBE0F900FBE0F901F9018951F920F92A4
:100AD0000FB60F9211240BB60F922F938F939F9303
:100AE000EF93FF93E091BB03F091BC038081E09111
:100AF000C103F091C20382FD1DC090818091C403A7
:100B00008F5F8F732091C503821741F0E091C4037A
:100B1000F0E0E555FC4F958F8093C403FF91EF9172
:100B20009F918F912F910F900BBE0F900FBE0F9042
:100B30001F9018958081F2CF1F920F920FB60F92DF
:100B400011242F933F938F939F93AF93BF938091E3
:100B5000190290911A02A0911B02B0911C023091CF
:100B6000180223E0230F2D3758F50196A11DB11D62
:100B7000209318028093190290931A02A0931B02EB
:100B8000B0931C0280911D0290911E02A0911F0241
:100B9000B09120020196A11DB11D80931D0290937A
:100BA0001E02A0931F02B0932002BF91AF919F91AC
:100BB0008F913F912F910F900FBE0F901F9018951E
:100BC00026E8230F0296A11DB11DD2CFCF93DF934C
:100BD0001092AE031092AD0388EE93E0A0E0B0E077
:100BE0008093AF039093B003A093B103B093B2038B
:100BF00088E092E09093AC038093AB0385EC90E0A7
:100C00009093B8038093B70384EC90E09093BA0379
:100C10008093B90380EC90E09093BC038093BB0376
:100C200081EC90E09093BE038093BD0382EC90E052
:100C30009093C0038093BF0386EC90E09093C2032F
:100C40008093C1031092C4031092C5031092C6038F
:100C50001092C703CCE0D0E0D093AF04C093AE04B1
:100C60008BE090E09093B1048093B0048AE090E030
:100C70009093B3048093B20482E090E09093B50423
:100C80008093B40461E08CE00E945A0361E080919B
:100C9000B0040E945A0361E08091B2040E945A039A
:100CA00061E08091B2040E942C03D093AF04C09302
:100CB000AE04EEE6F4E0119284E0EE3AF807D9F7DC
:100CC000D0E0C0E08091B4049091B504C817D90772
:100CD00074F540E06FE0CE010E94E3038091B4041C
:100CE0009091B504C817D9072CF447E06BE0CE010A
:100CF0000E94E30340E069E0CE010E94E30380919B
:100D0000B4049091B504C817D9071CF4CE010E9411
:100D100041048091B4049091B504C817D9072CF40C
:100D200040E06CE0CE010E94E3032196CBCF8FEF31
:100D30009FEF909359048093580490935B048093A1
:100D40005A0490935D0480935C04109251041092B5
:100D500050041092530410925204109255041092B1
:100D600054041092570410925604109249041092A1
:100D7000480410924B0410924A0410924D041092B1
:100D80004C0410924F0410924E04DF91CF910895BD
:100D9000CF93DF9300D01F92CDB7DEB7789484B5A0
:100DA000826084BD84B5816084BD85B5826085BD67
:100DB00085B5816085BD80916E00816080936E00F5
:100DC00010928100809181008260809381008091E7
:100DD0008100816080938100809180008160809398
:100DE00080008091B10084608093B1008091B00058
:100DF00081608093B0008091910082608093910027
:100E00008091910081608093910080919000816039
:100E1000809390008091A10082608093A1008091D6
:100E2000A10081608093A1008091A00081608093E7
:100E3000A000809121018260809321018091210195
:100E40008160809321018091200181608093200145
:100E500080917A00846080937A0080917A00826029
:100E600080937A0080917A00816080937A008091EB
:100E70007A00806880937A001092C10060E087E079
:100E80000E945A0360E086E00E945A0360E085E019
:100E90000E945A0360E084E00E945A0361E083E00C
:100EA0000E945A03E091BB03F091BC0382E080836F
:100EB000E091B703F091B8031082E091B903F0918B
:100EC000BA038FEC80831092C303E091BF03F091CB
:100ED000C00386E08083E091BD03F091BE03808172
:100EE00080618083E091BD03F091BE0380818860C2
:100EF0008083E091BD03F091BE0380818068808390
:100F0000E091BD03F091BE0380818F7D808380914D
:100F1000B4049091B5041816190634F441E06CE05D
:100F200090E080E00E94E3038091B4049091B504C6
:100F30001816190634F448E06AE090E080E00E9458
:100F4000E3038091B4049091B5041816190624F4B3
:100F500090E080E00E9441048091B4049091B50437
:100F6000029734F041E06CE081E090E00E94E303FE
:100F70008091B4049091B504029734F048E06AE09F
:100F800081E090E00E94E3038091B4049091B50465
:100F9000029724F081E090E00E9441040E94FA0947
:100FA00027E0C22ED12CE12CF12CA70196010E9442
:100FB000520A6F5F7F4F8F4F9F4F70935104609322
:100FC00050040E94FA09A70196010E94520A6F5F1D
:100FD0007F4F8F4F9F4F70935304609352040E9432
:100FE000FA0924E030E040E050E00E94520A6F5FCE
:100FF0007F4F8F4F9F4F70935704609356040E940A
:10100000FA0981E090E09093550480935404209174
:1010100050043091510430934904209348042091A6
:1010200052043091530430934B0420934A0420918E
:1010300056043091570430934F0420934E049093FC
:101040004D0480934C040E9490041092A2031091CE
:10105000520450915304209150042B8370915104F9
:1010600030915404398321E0412F6B81832F90917B
:1010700055040E946104109322028B818093A20286
:101080009981909322036CEB72E080E090E00E94E3
:10109000B00333E0232E312C42E0442E512C57E094
:1010A000652E712C88248394912C87E00E94030381
:1010B0009A8389839093AA038093A90386E00E9470
:1010C00003036C019093A8038093A70385E00E941B
:1010D00003037C019093A6038093A50384E00E9400
:1010E00003039093A4038093A303A981BA8111976A
:1010F00009F08CC061E083E00E942C03E981FA8151
:10110000F0935704E09356048091210281111092CC
:1011100021024091500450915104809152049091C9
:1011200053042091540430915504609156047091F9
:1011300057046230710509F4ACC00CF08FC0415007
:1011400051096130710509F4A6C0409152045091D3
:101150005304609150047091510480915404909113
:10116000550420915A0430915B044217530789F4C7
:1011700020915804309159042617370751F42091D3
:101180005C0430915D048217930719F421E02093E9
:1011900021021091A203A12FB0E0AE5DBD4FBC8330
:1011A000AB83CC90D12CD0924B04C0924A04FD0169
:1011B000E058FF4FE080F12CF0924904E09248049F
:1011C000E058FF4FA080B12CB0924D04A0924C0487
:1011D000FD0122E232E02E173F0709F475C0DF015E
:1011E0002E91BA83A98320839F0121583F4FD901B3
:1011F0000C912F5F3F4FD9010C9321583F4FD901DC
:101200002C91F3952083E981FA81E3CFCD2849F031
:1012100061E083E00E942C035092570440925604F0
:1012200073CFEF2849F061E083E00E942C033092F5
:1012300057042092560468CF892B59F061E083E06F
:101240000E942C0324E030E030935704209356048E
:101250005BCF60E083E00E942C0356CF63307105C2
:10126000F9F06430710509F070CF01969093530442
:101270008093520408970CF468CF232B09F065CFB4
:101280001092530410925204909255048092540488
:101290005CCF4F5F5F4F509351044093500455CF44
:1012A0000197909353048093520497FF4ECF2130BF
:1012B000310509F04ACF10925504109254047092EF
:1012C00053046092520441CF409322026093A202E1
:1012D0008093220321E00E94610420E0A601B7016F
:1012E000C5010E9461041123B1F0EB80FC80BFEFC7
:1012F000EB1AFB0AF70142917F0150E0E058FF4FE3
:10130000608170E0E058FF4F808121E090E00E9412
:101310006104115079F7AB81BC818C9190E090937E
:101320004B0480934A04FD01E058FF4F808190E018
:101330009093490480934804B3958C9190E09093E6
:101340004D0480934C046CEB72E080E090E00E94CE
:10135000B0030E9490040E946B02A7CE8F929F92CE
:10136000AF92BF92CF92DF92EF92FF92CF93DF9333
:10137000EC01688179818A819B8161157105810504
:10138000910521F464E279ED8BE597E02DE133EFEF
:1013900041E050E00E94520A49015A019B01AC0110
:1013A000A7EAB1E40E94710A6B017C01ACEEB4EFD4
:1013B000A50194010E947F0AC60ED71EE81EF91EE1
:1013C000F7FE06C081E0C81AD108E10880E8F80AF3
:1013D000C882D982EA82FB82C701B6019F77DF917A
:1013E000CF91FF90EF90DF90CF90BF90AF909F9004
:1013F0008F9008958F929F92AF92BF92CF92DF927B
:10140000EF92FF92609100027091010280910202BE
:1014100090910302611571058105910521F464E243
:1014200079ED8BE597E02DE133EF41E050E00E944C
:10143000520A49015A019B01AC01A7EAB1E40E949A
:10144000710A6B017C01ACEEB4EFA50194010E941E
:101450007F0AC60ED71EE81EF91EF7FE06C081E001
:10146000C81AD108E10880E8F80AC0920002D092B8
:101470000102E0920202F0920302C701B6019F77D7
:10148000FF90EF90DF90CF90BF90AF909F908F90A4
:10149000089560930002709301028093020290937A
:1014A00003020895052E97FB1EF400940E94690A1A
:1014B00057FD07D00E94840A07FC03D04EF40C9419
:1014C000690A50954095309521953F4F4F4F5F4F9A
:1014D000089590958095709561957F4F8F4F9F4FA0
:1014E00008950E94A60AA59F900DB49F900DA49FF9
:1014F000800D911D11240895B7FF0C94710A0E946C
:10150000710A821B930B0895A1E21A2EAA1BBB1B22
:10151000FD010DC0AA1FBB1FEE1FFF1FA217B307BF
:10152000E407F50720F0A21BB30BE40BF50B661FD5
:10153000771F881F991F1A9469F760957095809599
:1015400090959B01AC01BD01CF010895A29FB00110
:10155000B39FC001A39F700D811D1124911DB29FE7
:10156000700D811D1124911D0895EE0FFF1F881F1E
:0E1570008BBF0790F691E02D1994F894FFCFF1
:10157E000100000000000000FE01680195014B0211
:06158E00C601A401B80132
:00000001FF
